
STM32H743ZI_Nucleo.elf:     file format elf32-littlearm

Sections:
Idx Name          Size      VMA       LMA       File off  Algn
  0 .isr_vector   00000298  08000000  08000000  00010000  2**0
                  CONTENTS, ALLOC, LOAD, READONLY, DATA
  1 .text         0000cba4  080002a0  080002a0  000102a0  2**4
                  CONTENTS, ALLOC, LOAD, READONLY, CODE
  2 .rodata       000029ac  0800ce44  0800ce44  0001ce44  2**2
                  CONTENTS, ALLOC, LOAD, READONLY, DATA
  3 .ARM          00000008  0800f7f0  0800f7f0  0001f7f0  2**2
                  CONTENTS, ALLOC, LOAD, READONLY, DATA
  4 .init_array   00000004  0800f7f8  0800f7f8  0001f7f8  2**2
                  CONTENTS, ALLOC, LOAD, DATA
  5 .fini_array   00000004  0800f7fc  0800f7fc  0001f7fc  2**2
                  CONTENTS, ALLOC, LOAD, DATA
  6 .data         00000098  24000000  0800f800  00020000  2**2
                  CONTENTS, ALLOC, LOAD, DATA
  7 .bss          0000a71c  24000098  0800f898  00020098  2**2
                  ALLOC
  8 ._user_heap_stack 00000c04  2400a7b4  0800f898  0002a7b4  2**0
                  ALLOC
  9 .lwip_sec     00041a00  30000000  0800f898  00030000  2**2
                  ALLOC
 10 .ARM.attributes 0000002e  00000000  00000000  00020098  2**0
                  CONTENTS, READONLY
 11 .debug_line   00041e1a  00000000  00000000  000200c6  2**0
                  CONTENTS, READONLY, DEBUGGING, OCTETS
 12 .debug_info   000627f9  00000000  00000000  00061ee0  2**0
                  CONTENTS, READONLY, DEBUGGING, OCTETS
 13 .debug_abbrev 0000b572  00000000  00000000  000c46d9  2**0
                  CONTENTS, READONLY, DEBUGGING, OCTETS
 14 .debug_aranges 00001fb0  00000000  00000000  000cfc50  2**3
                  CONTENTS, READONLY, DEBUGGING, OCTETS
 15 .debug_str    0019cda4  00000000  00000000  000d1c00  2**0
                  CONTENTS, READONLY, DEBUGGING, OCTETS
 16 .debug_ranges 000032c8  00000000  00000000  0026e9a8  2**3
                  CONTENTS, READONLY, DEBUGGING, OCTETS
 17 .debug_loc    00022552  00000000  00000000  00271c70  2**0
                  CONTENTS, READONLY, DEBUGGING, OCTETS
 18 .debug_macro  0004732e  00000000  00000000  002941c2  2**0
                  CONTENTS, READONLY, DEBUGGING, OCTETS
 19 .comment      00000053  00000000  00000000  002db4f0  2**0
                  CONTENTS, READONLY
 20 .debug_frame  00006a9c  00000000  00000000  002db544  2**2
                  CONTENTS, READONLY, DEBUGGING, OCTETS
 21 .stab         000000cc  00000000  00000000  002e1fe0  2**2
                  CONTENTS, READONLY, DEBUGGING
 22 .stabstr      000001b9  00000000  00000000  002e20ac  2**0
                  CONTENTS, READONLY, DEBUGGING

Disassembly of section .text:

080002a0 <__do_global_dtors_aux>:
 80002a0:	b510      	push	{r4, lr}
 80002a2:	4c05      	ldr	r4, [pc, #20]	; (80002b8 <__do_global_dtors_aux+0x18>)
 80002a4:	7823      	ldrb	r3, [r4, #0]
 80002a6:	b933      	cbnz	r3, 80002b6 <__do_global_dtors_aux+0x16>
 80002a8:	4b04      	ldr	r3, [pc, #16]	; (80002bc <__do_global_dtors_aux+0x1c>)
 80002aa:	b113      	cbz	r3, 80002b2 <__do_global_dtors_aux+0x12>
 80002ac:	4804      	ldr	r0, [pc, #16]	; (80002c0 <__do_global_dtors_aux+0x20>)
 80002ae:	f3af 8000 	nop.w
 80002b2:	2301      	movs	r3, #1
 80002b4:	7023      	strb	r3, [r4, #0]
 80002b6:	bd10      	pop	{r4, pc}
 80002b8:	24000098 	.word	0x24000098
 80002bc:	00000000 	.word	0x00000000
 80002c0:	0800ce2c 	.word	0x0800ce2c

080002c4 <frame_dummy>:
 80002c4:	b508      	push	{r3, lr}
 80002c6:	4b03      	ldr	r3, [pc, #12]	; (80002d4 <frame_dummy+0x10>)
 80002c8:	b11b      	cbz	r3, 80002d2 <frame_dummy+0xe>
 80002ca:	4903      	ldr	r1, [pc, #12]	; (80002d8 <frame_dummy+0x14>)
 80002cc:	4803      	ldr	r0, [pc, #12]	; (80002dc <frame_dummy+0x18>)
 80002ce:	f3af 8000 	nop.w
 80002d2:	bd08      	pop	{r3, pc}
 80002d4:	00000000 	.word	0x00000000
 80002d8:	2400009c 	.word	0x2400009c
 80002dc:	0800ce2c 	.word	0x0800ce2c

080002e0 <memchr>:
 80002e0:	f001 01ff 	and.w	r1, r1, #255	; 0xff
 80002e4:	2a10      	cmp	r2, #16
 80002e6:	db2b      	blt.n	8000340 <memchr+0x60>
 80002e8:	f010 0f07 	tst.w	r0, #7
 80002ec:	d008      	beq.n	8000300 <memchr+0x20>
 80002ee:	f810 3b01 	ldrb.w	r3, [r0], #1
 80002f2:	3a01      	subs	r2, #1
 80002f4:	428b      	cmp	r3, r1
 80002f6:	d02d      	beq.n	8000354 <memchr+0x74>
 80002f8:	f010 0f07 	tst.w	r0, #7
 80002fc:	b342      	cbz	r2, 8000350 <memchr+0x70>
 80002fe:	d1f6      	bne.n	80002ee <memchr+0xe>
 8000300:	b4f0      	push	{r4, r5, r6, r7}
 8000302:	ea41 2101 	orr.w	r1, r1, r1, lsl #8
 8000306:	ea41 4101 	orr.w	r1, r1, r1, lsl #16
 800030a:	f022 0407 	bic.w	r4, r2, #7
 800030e:	f07f 0700 	mvns.w	r7, #0
 8000312:	2300      	movs	r3, #0
 8000314:	e8f0 5602 	ldrd	r5, r6, [r0], #8
 8000318:	3c08      	subs	r4, #8
 800031a:	ea85 0501 	eor.w	r5, r5, r1
 800031e:	ea86 0601 	eor.w	r6, r6, r1
 8000322:	fa85 f547 	uadd8	r5, r5, r7
 8000326:	faa3 f587 	sel	r5, r3, r7
 800032a:	fa86 f647 	uadd8	r6, r6, r7
 800032e:	faa5 f687 	sel	r6, r5, r7
 8000332:	b98e      	cbnz	r6, 8000358 <memchr+0x78>
 8000334:	d1ee      	bne.n	8000314 <memchr+0x34>
 8000336:	bcf0      	pop	{r4, r5, r6, r7}
 8000338:	f001 01ff 	and.w	r1, r1, #255	; 0xff
 800033c:	f002 0207 	and.w	r2, r2, #7
 8000340:	b132      	cbz	r2, 8000350 <memchr+0x70>
 8000342:	f810 3b01 	ldrb.w	r3, [r0], #1
 8000346:	3a01      	subs	r2, #1
 8000348:	ea83 0301 	eor.w	r3, r3, r1
 800034c:	b113      	cbz	r3, 8000354 <memchr+0x74>
 800034e:	d1f8      	bne.n	8000342 <memchr+0x62>
 8000350:	2000      	movs	r0, #0
 8000352:	4770      	bx	lr
 8000354:	3801      	subs	r0, #1
 8000356:	4770      	bx	lr
 8000358:	2d00      	cmp	r5, #0
 800035a:	bf06      	itte	eq
 800035c:	4635      	moveq	r5, r6
 800035e:	3803      	subeq	r0, #3
 8000360:	3807      	subne	r0, #7
 8000362:	f015 0f01 	tst.w	r5, #1
 8000366:	d107      	bne.n	8000378 <memchr+0x98>
 8000368:	3001      	adds	r0, #1
 800036a:	f415 7f80 	tst.w	r5, #256	; 0x100
 800036e:	bf02      	ittt	eq
 8000370:	3001      	addeq	r0, #1
 8000372:	f415 3fc0 	tsteq.w	r5, #98304	; 0x18000
 8000376:	3001      	addeq	r0, #1
 8000378:	bcf0      	pop	{r4, r5, r6, r7}
 800037a:	3801      	subs	r0, #1
 800037c:	4770      	bx	lr
 800037e:	bf00      	nop

08000380 <__aeabi_uldivmod>:
 8000380:	b953      	cbnz	r3, 8000398 <__aeabi_uldivmod+0x18>
 8000382:	b94a      	cbnz	r2, 8000398 <__aeabi_uldivmod+0x18>
 8000384:	2900      	cmp	r1, #0
 8000386:	bf08      	it	eq
 8000388:	2800      	cmpeq	r0, #0
 800038a:	bf1c      	itt	ne
 800038c:	f04f 31ff 	movne.w	r1, #4294967295
 8000390:	f04f 30ff 	movne.w	r0, #4294967295
 8000394:	f000 b96e 	b.w	8000674 <__aeabi_idiv0>
 8000398:	f1ad 0c08 	sub.w	ip, sp, #8
 800039c:	e96d ce04 	strd	ip, lr, [sp, #-16]!
 80003a0:	f000 f806 	bl	80003b0 <__udivmoddi4>
 80003a4:	f8dd e004 	ldr.w	lr, [sp, #4]
 80003a8:	e9dd 2302 	ldrd	r2, r3, [sp, #8]
 80003ac:	b004      	add	sp, #16
 80003ae:	4770      	bx	lr

080003b0 <__udivmoddi4>:
 80003b0:	e92d 47f0 	stmdb	sp!, {r4, r5, r6, r7, r8, r9, sl, lr}
 80003b4:	9d08      	ldr	r5, [sp, #32]
 80003b6:	4604      	mov	r4, r0
 80003b8:	468c      	mov	ip, r1
 80003ba:	2b00      	cmp	r3, #0
 80003bc:	f040 8083 	bne.w	80004c6 <__udivmoddi4+0x116>
 80003c0:	428a      	cmp	r2, r1
 80003c2:	4617      	mov	r7, r2
 80003c4:	d947      	bls.n	8000456 <__udivmoddi4+0xa6>
 80003c6:	fab2 f282 	clz	r2, r2
 80003ca:	b142      	cbz	r2, 80003de <__udivmoddi4+0x2e>
 80003cc:	f1c2 0020 	rsb	r0, r2, #32
 80003d0:	fa24 f000 	lsr.w	r0, r4, r0
 80003d4:	4091      	lsls	r1, r2
 80003d6:	4097      	lsls	r7, r2
 80003d8:	ea40 0c01 	orr.w	ip, r0, r1
 80003dc:	4094      	lsls	r4, r2
 80003de:	ea4f 4817 	mov.w	r8, r7, lsr #16
 80003e2:	0c23      	lsrs	r3, r4, #16
 80003e4:	fbbc f6f8 	udiv	r6, ip, r8
 80003e8:	fa1f fe87 	uxth.w	lr, r7
 80003ec:	fb08 c116 	mls	r1, r8, r6, ip
 80003f0:	ea43 4301 	orr.w	r3, r3, r1, lsl #16
 80003f4:	fb06 f10e 	mul.w	r1, r6, lr
 80003f8:	4299      	cmp	r1, r3
 80003fa:	d909      	bls.n	8000410 <__udivmoddi4+0x60>
 80003fc:	18fb      	adds	r3, r7, r3
 80003fe:	f106 30ff 	add.w	r0, r6, #4294967295
 8000402:	f080 8119 	bcs.w	8000638 <__udivmoddi4+0x288>
 8000406:	4299      	cmp	r1, r3
 8000408:	f240 8116 	bls.w	8000638 <__udivmoddi4+0x288>
 800040c:	3e02      	subs	r6, #2
 800040e:	443b      	add	r3, r7
 8000410:	1a5b      	subs	r3, r3, r1
 8000412:	b2a4      	uxth	r4, r4
 8000414:	fbb3 f0f8 	udiv	r0, r3, r8
 8000418:	fb08 3310 	mls	r3, r8, r0, r3
 800041c:	ea44 4403 	orr.w	r4, r4, r3, lsl #16
 8000420:	fb00 fe0e 	mul.w	lr, r0, lr
 8000424:	45a6      	cmp	lr, r4
 8000426:	d909      	bls.n	800043c <__udivmoddi4+0x8c>
 8000428:	193c      	adds	r4, r7, r4
 800042a:	f100 33ff 	add.w	r3, r0, #4294967295
 800042e:	f080 8105 	bcs.w	800063c <__udivmoddi4+0x28c>
 8000432:	45a6      	cmp	lr, r4
 8000434:	f240 8102 	bls.w	800063c <__udivmoddi4+0x28c>
 8000438:	3802      	subs	r0, #2
 800043a:	443c      	add	r4, r7
 800043c:	ea40 4006 	orr.w	r0, r0, r6, lsl #16
 8000440:	eba4 040e 	sub.w	r4, r4, lr
 8000444:	2600      	movs	r6, #0
 8000446:	b11d      	cbz	r5, 8000450 <__udivmoddi4+0xa0>
 8000448:	40d4      	lsrs	r4, r2
 800044a:	2300      	movs	r3, #0
 800044c:	e9c5 4300 	strd	r4, r3, [r5]
 8000450:	4631      	mov	r1, r6
 8000452:	e8bd 87f0 	ldmia.w	sp!, {r4, r5, r6, r7, r8, r9, sl, pc}
 8000456:	b902      	cbnz	r2, 800045a <__udivmoddi4+0xaa>
 8000458:	deff      	udf	#255	; 0xff
 800045a:	fab2 f282 	clz	r2, r2
 800045e:	2a00      	cmp	r2, #0
 8000460:	d150      	bne.n	8000504 <__udivmoddi4+0x154>
 8000462:	1bcb      	subs	r3, r1, r7
 8000464:	ea4f 4e17 	mov.w	lr, r7, lsr #16
 8000468:	fa1f f887 	uxth.w	r8, r7
 800046c:	2601      	movs	r6, #1
 800046e:	fbb3 fcfe 	udiv	ip, r3, lr
 8000472:	0c21      	lsrs	r1, r4, #16
 8000474:	fb0e 331c 	mls	r3, lr, ip, r3
 8000478:	ea41 4103 	orr.w	r1, r1, r3, lsl #16
 800047c:	fb08 f30c 	mul.w	r3, r8, ip
 8000480:	428b      	cmp	r3, r1
 8000482:	d907      	bls.n	8000494 <__udivmoddi4+0xe4>
 8000484:	1879      	adds	r1, r7, r1
 8000486:	f10c 30ff 	add.w	r0, ip, #4294967295
 800048a:	d202      	bcs.n	8000492 <__udivmoddi4+0xe2>
 800048c:	428b      	cmp	r3, r1
 800048e:	f200 80e9 	bhi.w	8000664 <__udivmoddi4+0x2b4>
 8000492:	4684      	mov	ip, r0
 8000494:	1ac9      	subs	r1, r1, r3
 8000496:	b2a3      	uxth	r3, r4
 8000498:	fbb1 f0fe 	udiv	r0, r1, lr
 800049c:	fb0e 1110 	mls	r1, lr, r0, r1
 80004a0:	ea43 4401 	orr.w	r4, r3, r1, lsl #16
 80004a4:	fb08 f800 	mul.w	r8, r8, r0
 80004a8:	45a0      	cmp	r8, r4
 80004aa:	d907      	bls.n	80004bc <__udivmoddi4+0x10c>
 80004ac:	193c      	adds	r4, r7, r4
 80004ae:	f100 33ff 	add.w	r3, r0, #4294967295
 80004b2:	d202      	bcs.n	80004ba <__udivmoddi4+0x10a>
 80004b4:	45a0      	cmp	r8, r4
 80004b6:	f200 80d9 	bhi.w	800066c <__udivmoddi4+0x2bc>
 80004ba:	4618      	mov	r0, r3
 80004bc:	eba4 0408 	sub.w	r4, r4, r8
 80004c0:	ea40 400c 	orr.w	r0, r0, ip, lsl #16
 80004c4:	e7bf      	b.n	8000446 <__udivmoddi4+0x96>
 80004c6:	428b      	cmp	r3, r1
 80004c8:	d909      	bls.n	80004de <__udivmoddi4+0x12e>
 80004ca:	2d00      	cmp	r5, #0
 80004cc:	f000 80b1 	beq.w	8000632 <__udivmoddi4+0x282>
 80004d0:	2600      	movs	r6, #0
 80004d2:	e9c5 0100 	strd	r0, r1, [r5]
 80004d6:	4630      	mov	r0, r6
 80004d8:	4631      	mov	r1, r6
 80004da:	e8bd 87f0 	ldmia.w	sp!, {r4, r5, r6, r7, r8, r9, sl, pc}
 80004de:	fab3 f683 	clz	r6, r3
 80004e2:	2e00      	cmp	r6, #0
 80004e4:	d14a      	bne.n	800057c <__udivmoddi4+0x1cc>
 80004e6:	428b      	cmp	r3, r1
 80004e8:	d302      	bcc.n	80004f0 <__udivmoddi4+0x140>
 80004ea:	4282      	cmp	r2, r0
 80004ec:	f200 80b8 	bhi.w	8000660 <__udivmoddi4+0x2b0>
 80004f0:	1a84      	subs	r4, r0, r2
 80004f2:	eb61 0103 	sbc.w	r1, r1, r3
 80004f6:	2001      	movs	r0, #1
 80004f8:	468c      	mov	ip, r1
 80004fa:	2d00      	cmp	r5, #0
 80004fc:	d0a8      	beq.n	8000450 <__udivmoddi4+0xa0>
 80004fe:	e9c5 4c00 	strd	r4, ip, [r5]
 8000502:	e7a5      	b.n	8000450 <__udivmoddi4+0xa0>
 8000504:	f1c2 0320 	rsb	r3, r2, #32
 8000508:	fa20 f603 	lsr.w	r6, r0, r3
 800050c:	4097      	lsls	r7, r2
 800050e:	fa01 f002 	lsl.w	r0, r1, r2
 8000512:	ea4f 4e17 	mov.w	lr, r7, lsr #16
 8000516:	40d9      	lsrs	r1, r3
 8000518:	4330      	orrs	r0, r6
 800051a:	0c03      	lsrs	r3, r0, #16
 800051c:	fbb1 f6fe 	udiv	r6, r1, lr
 8000520:	fa1f f887 	uxth.w	r8, r7
 8000524:	fb0e 1116 	mls	r1, lr, r6, r1
 8000528:	ea43 4301 	orr.w	r3, r3, r1, lsl #16
 800052c:	fb06 f108 	mul.w	r1, r6, r8
 8000530:	4299      	cmp	r1, r3
 8000532:	fa04 f402 	lsl.w	r4, r4, r2
 8000536:	d909      	bls.n	800054c <__udivmoddi4+0x19c>
 8000538:	18fb      	adds	r3, r7, r3
 800053a:	f106 3cff 	add.w	ip, r6, #4294967295
 800053e:	f080 808d 	bcs.w	800065c <__udivmoddi4+0x2ac>
 8000542:	4299      	cmp	r1, r3
 8000544:	f240 808a 	bls.w	800065c <__udivmoddi4+0x2ac>
 8000548:	3e02      	subs	r6, #2
 800054a:	443b      	add	r3, r7
 800054c:	1a5b      	subs	r3, r3, r1
 800054e:	b281      	uxth	r1, r0
 8000550:	fbb3 f0fe 	udiv	r0, r3, lr
 8000554:	fb0e 3310 	mls	r3, lr, r0, r3
 8000558:	ea41 4103 	orr.w	r1, r1, r3, lsl #16
 800055c:	fb00 f308 	mul.w	r3, r0, r8
 8000560:	428b      	cmp	r3, r1
 8000562:	d907      	bls.n	8000574 <__udivmoddi4+0x1c4>
 8000564:	1879      	adds	r1, r7, r1
 8000566:	f100 3cff 	add.w	ip, r0, #4294967295
 800056a:	d273      	bcs.n	8000654 <__udivmoddi4+0x2a4>
 800056c:	428b      	cmp	r3, r1
 800056e:	d971      	bls.n	8000654 <__udivmoddi4+0x2a4>
 8000570:	3802      	subs	r0, #2
 8000572:	4439      	add	r1, r7
 8000574:	1acb      	subs	r3, r1, r3
 8000576:	ea40 4606 	orr.w	r6, r0, r6, lsl #16
 800057a:	e778      	b.n	800046e <__udivmoddi4+0xbe>
 800057c:	f1c6 0c20 	rsb	ip, r6, #32
 8000580:	fa03 f406 	lsl.w	r4, r3, r6
 8000584:	fa22 f30c 	lsr.w	r3, r2, ip
 8000588:	431c      	orrs	r4, r3
 800058a:	fa20 f70c 	lsr.w	r7, r0, ip
 800058e:	fa01 f306 	lsl.w	r3, r1, r6
 8000592:	ea4f 4e14 	mov.w	lr, r4, lsr #16
 8000596:	fa21 f10c 	lsr.w	r1, r1, ip
 800059a:	431f      	orrs	r7, r3
 800059c:	0c3b      	lsrs	r3, r7, #16
 800059e:	fbb1 f9fe 	udiv	r9, r1, lr
 80005a2:	fa1f f884 	uxth.w	r8, r4
 80005a6:	fb0e 1119 	mls	r1, lr, r9, r1
 80005aa:	ea43 4101 	orr.w	r1, r3, r1, lsl #16
 80005ae:	fb09 fa08 	mul.w	sl, r9, r8
 80005b2:	458a      	cmp	sl, r1
 80005b4:	fa02 f206 	lsl.w	r2, r2, r6
 80005b8:	fa00 f306 	lsl.w	r3, r0, r6
 80005bc:	d908      	bls.n	80005d0 <__udivmoddi4+0x220>
 80005be:	1861      	adds	r1, r4, r1
 80005c0:	f109 30ff 	add.w	r0, r9, #4294967295
 80005c4:	d248      	bcs.n	8000658 <__udivmoddi4+0x2a8>
 80005c6:	458a      	cmp	sl, r1
 80005c8:	d946      	bls.n	8000658 <__udivmoddi4+0x2a8>
 80005ca:	f1a9 0902 	sub.w	r9, r9, #2
 80005ce:	4421      	add	r1, r4
 80005d0:	eba1 010a 	sub.w	r1, r1, sl
 80005d4:	b2bf      	uxth	r7, r7
 80005d6:	fbb1 f0fe 	udiv	r0, r1, lr
 80005da:	fb0e 1110 	mls	r1, lr, r0, r1
 80005de:	ea47 4701 	orr.w	r7, r7, r1, lsl #16
 80005e2:	fb00 f808 	mul.w	r8, r0, r8
 80005e6:	45b8      	cmp	r8, r7
 80005e8:	d907      	bls.n	80005fa <__udivmoddi4+0x24a>
 80005ea:	19e7      	adds	r7, r4, r7
 80005ec:	f100 31ff 	add.w	r1, r0, #4294967295
 80005f0:	d22e      	bcs.n	8000650 <__udivmoddi4+0x2a0>
 80005f2:	45b8      	cmp	r8, r7
 80005f4:	d92c      	bls.n	8000650 <__udivmoddi4+0x2a0>
 80005f6:	3802      	subs	r0, #2
 80005f8:	4427      	add	r7, r4
 80005fa:	ea40 4009 	orr.w	r0, r0, r9, lsl #16
 80005fe:	eba7 0708 	sub.w	r7, r7, r8
 8000602:	fba0 8902 	umull	r8, r9, r0, r2
 8000606:	454f      	cmp	r7, r9
 8000608:	46c6      	mov	lr, r8
 800060a:	4649      	mov	r1, r9
 800060c:	d31a      	bcc.n	8000644 <__udivmoddi4+0x294>
 800060e:	d017      	beq.n	8000640 <__udivmoddi4+0x290>
 8000610:	b15d      	cbz	r5, 800062a <__udivmoddi4+0x27a>
 8000612:	ebb3 020e 	subs.w	r2, r3, lr
 8000616:	eb67 0701 	sbc.w	r7, r7, r1
 800061a:	fa07 fc0c 	lsl.w	ip, r7, ip
 800061e:	40f2      	lsrs	r2, r6
 8000620:	ea4c 0202 	orr.w	r2, ip, r2
 8000624:	40f7      	lsrs	r7, r6
 8000626:	e9c5 2700 	strd	r2, r7, [r5]
 800062a:	2600      	movs	r6, #0
 800062c:	4631      	mov	r1, r6
 800062e:	e8bd 87f0 	ldmia.w	sp!, {r4, r5, r6, r7, r8, r9, sl, pc}
 8000632:	462e      	mov	r6, r5
 8000634:	4628      	mov	r0, r5
 8000636:	e70b      	b.n	8000450 <__udivmoddi4+0xa0>
 8000638:	4606      	mov	r6, r0
 800063a:	e6e9      	b.n	8000410 <__udivmoddi4+0x60>
 800063c:	4618      	mov	r0, r3
 800063e:	e6fd      	b.n	800043c <__udivmoddi4+0x8c>
 8000640:	4543      	cmp	r3, r8
 8000642:	d2e5      	bcs.n	8000610 <__udivmoddi4+0x260>
 8000644:	ebb8 0e02 	subs.w	lr, r8, r2
 8000648:	eb69 0104 	sbc.w	r1, r9, r4
 800064c:	3801      	subs	r0, #1
 800064e:	e7df      	b.n	8000610 <__udivmoddi4+0x260>
 8000650:	4608      	mov	r0, r1
 8000652:	e7d2      	b.n	80005fa <__udivmoddi4+0x24a>
 8000654:	4660      	mov	r0, ip
 8000656:	e78d      	b.n	8000574 <__udivmoddi4+0x1c4>
 8000658:	4681      	mov	r9, r0
 800065a:	e7b9      	b.n	80005d0 <__udivmoddi4+0x220>
 800065c:	4666      	mov	r6, ip
 800065e:	e775      	b.n	800054c <__udivmoddi4+0x19c>
 8000660:	4630      	mov	r0, r6
 8000662:	e74a      	b.n	80004fa <__udivmoddi4+0x14a>
 8000664:	f1ac 0c02 	sub.w	ip, ip, #2
 8000668:	4439      	add	r1, r7
 800066a:	e713      	b.n	8000494 <__udivmoddi4+0xe4>
 800066c:	3802      	subs	r0, #2
 800066e:	443c      	add	r4, r7
 8000670:	e724      	b.n	80004bc <__udivmoddi4+0x10c>
 8000672:	bf00      	nop

08000674 <__aeabi_idiv0>:
 8000674:	4770      	bx	lr
 8000676:	bf00      	nop

08000678 <Reset_Handler>:

    .section  .text.Reset_Handler
  .weak  Reset_Handler
  .type  Reset_Handler, %function
Reset_Handler:  
  ldr   sp, =_estack      /* set stack pointer */
 8000678:	f8df d034 	ldr.w	sp, [pc, #52]	; 80006b0 <LoopFillZerobss+0x14>

/* Copy the data segment initializers from flash to SRAM */  
  movs  r1, #0
 800067c:	2100      	movs	r1, #0
  b  LoopCopyDataInit
 800067e:	e003      	b.n	8000688 <LoopCopyDataInit>

08000680 <CopyDataInit>:

CopyDataInit:
  ldr  r3, =_sidata
 8000680:	4b0c      	ldr	r3, [pc, #48]	; (80006b4 <LoopFillZerobss+0x18>)
  ldr  r3, [r3, r1]
 8000682:	585b      	ldr	r3, [r3, r1]
  str  r3, [r0, r1]
 8000684:	5043      	str	r3, [r0, r1]
  adds  r1, r1, #4
 8000686:	3104      	adds	r1, #4

08000688 <LoopCopyDataInit>:
    
LoopCopyDataInit:
  ldr  r0, =_sdata
 8000688:	480b      	ldr	r0, [pc, #44]	; (80006b8 <LoopFillZerobss+0x1c>)
  ldr  r3, =_edata
 800068a:	4b0c      	ldr	r3, [pc, #48]	; (80006bc <LoopFillZerobss+0x20>)
  adds  r2, r0, r1
 800068c:	1842      	adds	r2, r0, r1
  cmp  r2, r3
 800068e:	429a      	cmp	r2, r3
  bcc  CopyDataInit
 8000690:	d3f6      	bcc.n	8000680 <CopyDataInit>
  ldr  r2, =_sbss
 8000692:	4a0b      	ldr	r2, [pc, #44]	; (80006c0 <LoopFillZerobss+0x24>)
  b  LoopFillZerobss
 8000694:	e002      	b.n	800069c <LoopFillZerobss>

08000696 <FillZerobss>:
/* Zero fill the bss segment. */  
FillZerobss:
  movs  r3, #0
 8000696:	2300      	movs	r3, #0
  str  r3, [r2], #4
 8000698:	f842 3b04 	str.w	r3, [r2], #4

0800069c <LoopFillZerobss>:
    
LoopFillZerobss:
  ldr  r3, = _ebss
 800069c:	4b09      	ldr	r3, [pc, #36]	; (80006c4 <LoopFillZerobss+0x28>)
  cmp  r2, r3
 800069e:	429a      	cmp	r2, r3
  bcc  FillZerobss
 80006a0:	d3f9      	bcc.n	8000696 <FillZerobss>

/* Call the clock system intitialization function.*/
  bl  SystemInit   
 80006a2:	f000 fef7 	bl	8001494 <SystemInit>
/* Call static constructors */
    bl __libc_init_array
 80006a6:	f00b fb0f 	bl	800bcc8 <__libc_init_array>
/* Call the application's entry point.*/
  bl  main
 80006aa:	f000 fabd 	bl	8000c28 <main>
  bx  lr    
 80006ae:	4770      	bx	lr
  ldr   sp, =_estack      /* set stack pointer */
 80006b0:	24080000 	.word	0x24080000
  ldr  r3, =_sidata
 80006b4:	0800f800 	.word	0x0800f800
  ldr  r0, =_sdata
 80006b8:	24000000 	.word	0x24000000
  ldr  r3, =_edata
 80006bc:	24000098 	.word	0x24000098
  ldr  r2, =_sbss
 80006c0:	24000098 	.word	0x24000098
  ldr  r3, = _ebss
 80006c4:	2400a7b4 	.word	0x2400a7b4

080006c8 <ADC3_IRQHandler>:
 * @retval None       
*/
    .section  .text.Default_Handler,"ax",%progbits
Default_Handler:
Infinite_Loop:
  b  Infinite_Loop
 80006c8:	e7fe      	b.n	80006c8 <ADC3_IRQHandler>

080006ca <ethernet_link_status_updated>:
  * @brief  Notify the User about the nework interface config status 
  * @param  netif: the network interface
  * @retval None
  */
void ethernet_link_status_updated(struct netif *netif) 
{
 80006ca:	b508      	push	{r3, lr}
  if (netif_is_up(netif))
 80006cc:	f890 302d 	ldrb.w	r3, [r0, #45]	; 0x2d
 {
#if LWIP_DHCP
    /* Update DHCP state machine */
    DHCP_state = DHCP_START;
#else
    BSP_LED_On(LED2);
 80006d0:	2001      	movs	r0, #1
  if (netif_is_up(netif))
 80006d2:	07db      	lsls	r3, r3, #31
 80006d4:	d506      	bpl.n	80006e4 <ethernet_link_status_updated+0x1a>
    BSP_LED_On(LED2);
 80006d6:	f000 feb5 	bl	8001444 <BSP_LED_On>
    BSP_LED_Off(LED3);
 80006da:	2002      	movs	r0, #2
#else    
    BSP_LED_Off(LED2);
    BSP_LED_On(LED3); 
#endif /* LWIP_DHCP */
  } 
}
 80006dc:	e8bd 4008 	ldmia.w	sp!, {r3, lr}
    BSP_LED_Off(LED3);
 80006e0:	f000 bec4 	b.w	800146c <BSP_LED_Off>
    BSP_LED_Off(LED2);
 80006e4:	f000 fec2 	bl	800146c <BSP_LED_Off>
    BSP_LED_On(LED3); 
 80006e8:	2002      	movs	r0, #2
}
 80006ea:	e8bd 4008 	ldmia.w	sp!, {r3, lr}
    BSP_LED_On(LED3); 
 80006ee:	f000 bea9 	b.w	8001444 <BSP_LED_On>

080006f2 <ETH_PHY_IO_DeInit>:
  * @retval 0 if OK, -1 if ERROR
  */
int32_t ETH_PHY_IO_DeInit (void)
{
  return 0;
}
 80006f2:	2000      	movs	r0, #0
 80006f4:	4770      	bx	lr
	...

080006f8 <low_level_output>:
{
 80006f8:	b530      	push	{r4, r5, lr}
 80006fa:	b08d      	sub	sp, #52	; 0x34
 80006fc:	460d      	mov	r5, r1
  memset(Txbuffer, 0 , ETH_TX_DESC_CNT*sizeof(ETH_BufferTypeDef));
 80006fe:	2230      	movs	r2, #48	; 0x30
 8000700:	2100      	movs	r1, #0
 8000702:	4668      	mov	r0, sp
  for(q = p; q != NULL; q = q->next)
 8000704:	462c      	mov	r4, r5
  memset(Txbuffer, 0 , ETH_TX_DESC_CNT*sizeof(ETH_BufferTypeDef));
 8000706:	f00b fb1f 	bl	800bd48 <memset>
  for(q = p; q != NULL; q = q->next)
 800070a:	466b      	mov	r3, sp
  uint32_t i=0;
 800070c:	2200      	movs	r2, #0
  for(q = p; q != NULL; q = q->next)
 800070e:	b95c      	cbnz	r4, 8000728 <low_level_output+0x30>
  TxConfig.Length = p->tot_len;
 8000710:	490e      	ldr	r1, [pc, #56]	; (800074c <low_level_output+0x54>)
  HAL_ETH_Transmit(&EthHandle, &TxConfig, ETH_DMA_TRANSMIT_TIMEOUT);
 8000712:	2214      	movs	r2, #20
  TxConfig.Length = p->tot_len;
 8000714:	892b      	ldrh	r3, [r5, #8]
  HAL_ETH_Transmit(&EthHandle, &TxConfig, ETH_DMA_TRANSMIT_TIMEOUT);
 8000716:	480e      	ldr	r0, [pc, #56]	; (8000750 <low_level_output+0x58>)
  TxConfig.Length = p->tot_len;
 8000718:	604b      	str	r3, [r1, #4]
  TxConfig.TxBuffer = Txbuffer;
 800071a:	f8c1 d008 	str.w	sp, [r1, #8]
  HAL_ETH_Transmit(&EthHandle, &TxConfig, ETH_DMA_TRANSMIT_TIMEOUT);
 800071e:	f001 fbdb 	bl	8001ed8 <HAL_ETH_Transmit>
  return errval;
 8000722:	4620      	mov	r0, r4
}
 8000724:	b00d      	add	sp, #52	; 0x34
 8000726:	bd30      	pop	{r4, r5, pc}
    if(i >= ETH_TX_DESC_CNT)	
 8000728:	2a04      	cmp	r2, #4
 800072a:	d00c      	beq.n	8000746 <low_level_output+0x4e>
    Txbuffer[i].buffer = q->payload;
 800072c:	6861      	ldr	r1, [r4, #4]
 800072e:	6019      	str	r1, [r3, #0]
    Txbuffer[i].len = q->len;
 8000730:	8961      	ldrh	r1, [r4, #10]
 8000732:	6059      	str	r1, [r3, #4]
    if(i>0)
 8000734:	b10a      	cbz	r2, 800073a <low_level_output+0x42>
      Txbuffer[i-1].next = &Txbuffer[i];
 8000736:	f843 3c04 	str.w	r3, [r3, #-4]
    if(q->next == NULL)
 800073a:	6824      	ldr	r4, [r4, #0]
 800073c:	b904      	cbnz	r4, 8000740 <low_level_output+0x48>
      Txbuffer[i].next = NULL;
 800073e:	609c      	str	r4, [r3, #8]
    i++;
 8000740:	3201      	adds	r2, #1
  for(q = p; q != NULL; q = q->next)
 8000742:	330c      	adds	r3, #12
 8000744:	e7e3      	b.n	800070e <low_level_output+0x16>
      return ERR_IF;
 8000746:	f06f 000b 	mvn.w	r0, #11
 800074a:	e7eb      	b.n	8000724 <low_level_output+0x2c>
 800074c:	24006948 	.word	0x24006948
 8000750:	240067ec 	.word	0x240067ec

08000754 <pbuf_free_custom>:
{
 8000754:	4601      	mov	r1, r0
  LWIP_MEMPOOL_FREE(RX_POOL, custom_pbuf);
 8000756:	4801      	ldr	r0, [pc, #4]	; (800075c <pbuf_free_custom+0x8>)
 8000758:	f007 b92a 	b.w	80079b0 <memp_free_pool>
 800075c:	0800ce44 	.word	0x0800ce44

08000760 <ETH_PHY_IO_GetTick>:
  * @brief  Get the time in millisecons used for internal PHY driver process.
  * @retval Time value
  */
int32_t ETH_PHY_IO_GetTick(void)
{
  return HAL_GetTick();
 8000760:	f000 bf16 	b.w	8001590 <HAL_GetTick>

08000764 <ETH_PHY_IO_Init>:
  HAL_ETH_SetMDIOClockRange(&EthHandle);
 8000764:	4802      	ldr	r0, [pc, #8]	; (8000770 <ETH_PHY_IO_Init+0xc>)
{  
 8000766:	b508      	push	{r3, lr}
  HAL_ETH_SetMDIOClockRange(&EthHandle);
 8000768:	f001 fee8 	bl	800253c <HAL_ETH_SetMDIOClockRange>
}
 800076c:	2000      	movs	r0, #0
 800076e:	bd08      	pop	{r3, pc}
 8000770:	240067ec 	.word	0x240067ec

08000774 <ETH_PHY_IO_ReadReg>:
{
 8000774:	b508      	push	{r3, lr}
 8000776:	4613      	mov	r3, r2
  if(HAL_ETH_ReadPHYRegister(&EthHandle, DevAddr, RegAddr, pRegVal) != HAL_OK)
 8000778:	460a      	mov	r2, r1
 800077a:	4601      	mov	r1, r0
 800077c:	4803      	ldr	r0, [pc, #12]	; (800078c <ETH_PHY_IO_ReadReg+0x18>)
 800077e:	f001 fdab 	bl	80022d8 <HAL_ETH_ReadPHYRegister>
 8000782:	3800      	subs	r0, #0
 8000784:	bf18      	it	ne
 8000786:	2001      	movne	r0, #1
}
 8000788:	4240      	negs	r0, r0
 800078a:	bd08      	pop	{r3, pc}
 800078c:	240067ec 	.word	0x240067ec

08000790 <ETH_PHY_IO_WriteReg>:
{
 8000790:	b508      	push	{r3, lr}
 8000792:	4613      	mov	r3, r2
  if(HAL_ETH_WritePHYRegister(&EthHandle, DevAddr, RegAddr, RegVal) != HAL_OK)
 8000794:	460a      	mov	r2, r1
 8000796:	4601      	mov	r1, r0
 8000798:	4803      	ldr	r0, [pc, #12]	; (80007a8 <ETH_PHY_IO_WriteReg+0x18>)
 800079a:	f001 fdcb 	bl	8002334 <HAL_ETH_WritePHYRegister>
 800079e:	3800      	subs	r0, #0
 80007a0:	bf18      	it	ne
 80007a2:	2001      	movne	r0, #1
}
 80007a4:	4240      	negs	r0, r0
 80007a6:	bd08      	pop	{r3, pc}
 80007a8:	240067ec 	.word	0x240067ec

080007ac <ethernetif_input>:
{
 80007ac:	b5f0      	push	{r4, r5, r6, r7, lr}
 80007ae:	4605      	mov	r5, r0
 80007b0:	b091      	sub	sp, #68	; 0x44
     int32_t linesize = 32;                /* in Cortex-M7 size of cache line is fixed to 8 words (32 bytes) */

    __DSB();

    while (op_size > 0) {
      SCB->DCIMVAC = op_addr;
 80007b2:	4f28      	ldr	r7, [pc, #160]	; (8000854 <ethernetif_input+0xa8>)
    if (osSemaphoreWait( RxPktSemaphore, TIME_WAITING_FOR_INPUT)==osOK)
 80007b4:	4c28      	ldr	r4, [pc, #160]	; (8000858 <ethernetif_input+0xac>)
 80007b6:	f04f 31ff 	mov.w	r1, #4294967295
 80007ba:	6820      	ldr	r0, [r4, #0]
 80007bc:	f004 ffda 	bl	8005774 <osSemaphoreWait>
 80007c0:	2800      	cmp	r0, #0
 80007c2:	d1f8      	bne.n	80007b6 <ethernetif_input+0xa>
  if(HAL_ETH_GetRxDataBuffer(&EthHandle, RxBuff) == HAL_OK)
 80007c4:	4e25      	ldr	r6, [pc, #148]	; (800085c <ethernetif_input+0xb0>)
  uint32_t framelength = 0, i = 0;;
 80007c6:	2100      	movs	r1, #0
  memset(RxBuff, 0 , ETH_RX_DESC_CNT*sizeof(ETH_BufferTypeDef));
 80007c8:	2230      	movs	r2, #48	; 0x30
 80007ca:	a804      	add	r0, sp, #16
  uint32_t framelength = 0, i = 0;;
 80007cc:	9103      	str	r1, [sp, #12]
  memset(RxBuff, 0 , ETH_RX_DESC_CNT*sizeof(ETH_BufferTypeDef));
 80007ce:	f00b fabb 	bl	800bd48 <memset>
    RxBuff[i].next=&RxBuff[i+1];
 80007d2:	ab07      	add	r3, sp, #28
  if(HAL_ETH_GetRxDataBuffer(&EthHandle, RxBuff) == HAL_OK)
 80007d4:	a904      	add	r1, sp, #16
 80007d6:	4630      	mov	r0, r6
    RxBuff[i].next=&RxBuff[i+1];
 80007d8:	9306      	str	r3, [sp, #24]
 80007da:	ab0a      	add	r3, sp, #40	; 0x28
 80007dc:	9309      	str	r3, [sp, #36]	; 0x24
 80007de:	ab0d      	add	r3, sp, #52	; 0x34
 80007e0:	930c      	str	r3, [sp, #48]	; 0x30
  if(HAL_ETH_GetRxDataBuffer(&EthHandle, RxBuff) == HAL_OK)
 80007e2:	f001 fc41 	bl	8002068 <HAL_ETH_GetRxDataBuffer>
 80007e6:	2800      	cmp	r0, #0
 80007e8:	d1e4      	bne.n	80007b4 <ethernetif_input+0x8>
    HAL_ETH_GetRxDataLength(&EthHandle, &framelength);
 80007ea:	a903      	add	r1, sp, #12
 80007ec:	4630      	mov	r0, r6
 80007ee:	f001 fc82 	bl	80020f6 <HAL_ETH_GetRxDataLength>
    HAL_ETH_BuildRxDescriptors(&EthHandle);
 80007f2:	4630      	mov	r0, r6
 80007f4:	f001 fc9b 	bl	800212e <HAL_ETH_BuildRxDescriptors>
    uint32_t op_addr = (uint32_t)addr;
 80007f8:	e9dd 3203 	ldrd	r3, r2, [sp, #12]
  \details Acts as a special kind of Data Memory Barrier.
           It completes when all explicit memory accesses before this instruction complete.
 */
__STATIC_FORCEINLINE void __DSB(void)
{
  __ASM volatile ("dsb 0xF":::"memory");
 80007fc:	f3bf 8f4f 	dsb	sy
 8000800:	441a      	add	r2, r3
    while (op_size > 0) {
 8000802:	2b00      	cmp	r3, #0
 8000804:	eba2 0103 	sub.w	r1, r2, r3
 8000808:	dc20      	bgt.n	800084c <ethernetif_input+0xa0>
 800080a:	f3bf 8f4f 	dsb	sy
  __ASM volatile ("isb 0xF":::"memory");
 800080e:	f3bf 8f6f 	isb	sy
    custom_pbuf  = (struct pbuf_custom*)LWIP_MEMPOOL_ALLOC(RX_POOL);
 8000812:	4813      	ldr	r0, [pc, #76]	; (8000860 <ethernetif_input+0xb4>)
 8000814:	f007 f898 	bl	8007948 <memp_malloc_pool>
    if(custom_pbuf != NULL)
 8000818:	4603      	mov	r3, r0
 800081a:	2800      	cmp	r0, #0
 800081c:	d0ca      	beq.n	80007b4 <ethernetif_input+0x8>
      custom_pbuf->custom_free_function = pbuf_free_custom;
 800081e:	4a11      	ldr	r2, [pc, #68]	; (8000864 <ethernetif_input+0xb8>)
      p = pbuf_alloced_custom(PBUF_RAW, framelength, PBUF_REF, custom_pbuf, RxBuff->buffer, framelength);
 8000820:	f8bd 100c 	ldrh.w	r1, [sp, #12]
      custom_pbuf->custom_free_function = pbuf_free_custom;
 8000824:	6102      	str	r2, [r0, #16]
      p = pbuf_alloced_custom(PBUF_RAW, framelength, PBUF_REF, custom_pbuf, RxBuff->buffer, framelength);
 8000826:	2000      	movs	r0, #0
 8000828:	9a04      	ldr	r2, [sp, #16]
 800082a:	9101      	str	r1, [sp, #4]
 800082c:	9200      	str	r2, [sp, #0]
 800082e:	2241      	movs	r2, #65	; 0x41
 8000830:	f007 faea 	bl	8007e08 <pbuf_alloced_custom>
        if (p != NULL)
 8000834:	4604      	mov	r4, r0
 8000836:	2800      	cmp	r0, #0
 8000838:	d0bc      	beq.n	80007b4 <ethernetif_input+0x8>
          if (netif->input( p, netif) != ERR_OK )
 800083a:	692b      	ldr	r3, [r5, #16]
 800083c:	4629      	mov	r1, r5
 800083e:	4798      	blx	r3
 8000840:	2800      	cmp	r0, #0
 8000842:	d0c0      	beq.n	80007c6 <ethernetif_input+0x1a>
            pbuf_free(p);
 8000844:	4620      	mov	r0, r4
 8000846:	f007 fb31 	bl	8007eac <pbuf_free>
 800084a:	e7bc      	b.n	80007c6 <ethernetif_input+0x1a>
      op_addr += (uint32_t)linesize;
      op_size -=           linesize;
 800084c:	3b20      	subs	r3, #32
      SCB->DCIMVAC = op_addr;
 800084e:	f8c7 125c 	str.w	r1, [r7, #604]	; 0x25c
      op_size -=           linesize;
 8000852:	e7d6      	b.n	8000802 <ethernetif_input+0x56>
 8000854:	e000ed00 	.word	0xe000ed00
 8000858:	240000b4 	.word	0x240000b4
 800085c:	240067ec 	.word	0x240067ec
 8000860:	0800ce44 	.word	0x0800ce44
 8000864:	08000755 	.word	0x08000755

08000868 <ethernetif_init>:
{
 8000868:	b5f0      	push	{r4, r5, r6, r7, lr}
  LWIP_ASSERT("netif != NULL", (netif != NULL));
 800086a:	4604      	mov	r4, r0
{
 800086c:	b0a1      	sub	sp, #132	; 0x84
  LWIP_ASSERT("netif != NULL", (netif != NULL));
 800086e:	b930      	cbnz	r0, 800087e <ethernetif_init+0x16>
 8000870:	4b4a      	ldr	r3, [pc, #296]	; (800099c <ethernetif_init+0x134>)
 8000872:	f44f 72bf 	mov.w	r2, #382	; 0x17e
 8000876:	494a      	ldr	r1, [pc, #296]	; (80009a0 <ethernetif_init+0x138>)
 8000878:	484a      	ldr	r0, [pc, #296]	; (80009a4 <ethernetif_init+0x13c>)
 800087a:	f00b fa6d 	bl	800bd58 <iprintf>
  netif->name[0] = IFNAME0;
 800087e:	f247 4373 	movw	r3, #29811	; 0x7473
  EthHandle.Instance = ETH;  
 8000882:	4d49      	ldr	r5, [pc, #292]	; (80009a8 <ethernetif_init+0x140>)
  netif->hwaddr[2] =  ETH_MAC_ADDR2;
 8000884:	2600      	movs	r6, #0
 8000886:	4f49      	ldr	r7, [pc, #292]	; (80009ac <ethernetif_init+0x144>)
  netif->name[0] = IFNAME0;
 8000888:	85e3      	strh	r3, [r4, #46]	; 0x2e
  netif->output = etharp_output;
 800088a:	4b49      	ldr	r3, [pc, #292]	; (80009b0 <ethernetif_init+0x148>)
  EthHandle.Init.MACAddr = macaddress;
 800088c:	f8c5 d004 	str.w	sp, [r5, #4]
  netif->output = etharp_output;
 8000890:	6163      	str	r3, [r4, #20]
  netif->linkoutput = low_level_output;
 8000892:	4b48      	ldr	r3, [pc, #288]	; (80009b4 <ethernetif_init+0x14c>)
 8000894:	61a3      	str	r3, [r4, #24]
  uint8_t macaddress[6]= {ETH_MAC_ADDR0, ETH_MAC_ADDR1, ETH_MAC_ADDR2, ETH_MAC_ADDR3, ETH_MAC_ADDR4, ETH_MAC_ADDR5};
 8000896:	4b48      	ldr	r3, [pc, #288]	; (80009b8 <ethernetif_init+0x150>)
 8000898:	6818      	ldr	r0, [r3, #0]
 800089a:	889b      	ldrh	r3, [r3, #4]
 800089c:	9000      	str	r0, [sp, #0]
  HAL_ETH_Init(&EthHandle);
 800089e:	4628      	mov	r0, r5
  uint8_t macaddress[6]= {ETH_MAC_ADDR0, ETH_MAC_ADDR1, ETH_MAC_ADDR2, ETH_MAC_ADDR3, ETH_MAC_ADDR4, ETH_MAC_ADDR5};
 80008a0:	f8ad 3004 	strh.w	r3, [sp, #4]
  EthHandle.Instance = ETH;  
 80008a4:	4b45      	ldr	r3, [pc, #276]	; (80009bc <ethernetif_init+0x154>)
 80008a6:	602b      	str	r3, [r5, #0]
  EthHandle.Init.MediaInterface = HAL_ETH_RMII_MODE;
 80008a8:	2301      	movs	r3, #1
 80008aa:	722b      	strb	r3, [r5, #8]
  EthHandle.Init.RxDesc = DMARxDscrTab;
 80008ac:	4b44      	ldr	r3, [pc, #272]	; (80009c0 <ethernetif_init+0x158>)
 80008ae:	612b      	str	r3, [r5, #16]
  EthHandle.Init.TxDesc = DMATxDscrTab;
 80008b0:	4b44      	ldr	r3, [pc, #272]	; (80009c4 <ethernetif_init+0x15c>)
 80008b2:	60eb      	str	r3, [r5, #12]
  EthHandle.Init.RxBuffLen = ETH_RX_BUFFER_SIZE;
 80008b4:	f44f 63c0 	mov.w	r3, #1536	; 0x600
 80008b8:	616b      	str	r3, [r5, #20]
  HAL_ETH_Init(&EthHandle);
 80008ba:	f001 fe7b 	bl	80025b4 <HAL_ETH_Init>
  netif->hwaddr[2] =  ETH_MAC_ADDR2;
 80008be:	4b42      	ldr	r3, [pc, #264]	; (80009c8 <ethernetif_init+0x160>)
 80008c0:	e9c4 3609 	strd	r3, r6, [r4, #36]	; 0x24
  netif->hwaddr_len = ETH_HWADDR_LEN;
 80008c4:	2306      	movs	r3, #6
 80008c6:	f884 302c 	strb.w	r3, [r4, #44]	; 0x2c
  netif->flags |= NETIF_FLAG_BROADCAST | NETIF_FLAG_ETHARP;
 80008ca:	f894 302d 	ldrb.w	r3, [r4, #45]	; 0x2d
 80008ce:	f043 030a 	orr.w	r3, r3, #10
 80008d2:	f884 302d 	strb.w	r3, [r4, #45]	; 0x2d
    HAL_ETH_DescAssignMemory(&EthHandle, idx, Rx_Buff[idx], NULL);
 80008d6:	4631      	mov	r1, r6
  for(idx = 0; idx < ETH_RX_DESC_CNT; idx ++)
 80008d8:	3601      	adds	r6, #1
    HAL_ETH_DescAssignMemory(&EthHandle, idx, Rx_Buff[idx], NULL);
 80008da:	463a      	mov	r2, r7
 80008dc:	2300      	movs	r3, #0
 80008de:	4628      	mov	r0, r5
 80008e0:	f507 67c0 	add.w	r7, r7, #1536	; 0x600
 80008e4:	f001 fa58 	bl	8001d98 <HAL_ETH_DescAssignMemory>
  for(idx = 0; idx < ETH_RX_DESC_CNT; idx ++)
 80008e8:	2e04      	cmp	r6, #4
 80008ea:	d1f4      	bne.n	80008d6 <ethernetif_init+0x6e>
  LWIP_MEMPOOL_INIT(RX_POOL);
 80008ec:	4f37      	ldr	r7, [pc, #220]	; (80009cc <ethernetif_init+0x164>)
  osThreadDef(EthIf, ethernetif_input, osPriorityRealtime, 0, INTERFACE_THREAD_STACK_SIZE);
 80008ee:	ad02      	add	r5, sp, #8
  LWIP_MEMPOOL_INIT(RX_POOL);
 80008f0:	4638      	mov	r0, r7
  osThreadDef(EthIf, ethernetif_input, osPriorityRealtime, 0, INTERFACE_THREAD_STACK_SIZE);
 80008f2:	f107 0614 	add.w	r6, r7, #20
  LWIP_MEMPOOL_INIT(RX_POOL);
 80008f6:	f007 f805 	bl	8007904 <memp_init_pool>
  memset(&TxConfig, 0 , sizeof(ETH_TxPacketConfig));  
 80008fa:	4b35      	ldr	r3, [pc, #212]	; (80009d0 <ethernetif_init+0x168>)
 80008fc:	2230      	movs	r2, #48	; 0x30
 80008fe:	2100      	movs	r1, #0
 8000900:	4618      	mov	r0, r3
 8000902:	f00b fa21 	bl	800bd48 <memset>
  TxConfig.Attributes = ETH_TX_PACKETS_FEATURES_CSUM | ETH_TX_PACKETS_FEATURES_CRCPAD;
 8000906:	2221      	movs	r2, #33	; 0x21
  RxPktSemaphore = xSemaphoreCreateBinary();
 8000908:	2100      	movs	r1, #0
  TxConfig.Attributes = ETH_TX_PACKETS_FEATURES_CSUM | ETH_TX_PACKETS_FEATURES_CRCPAD;
 800090a:	f840 2c04 	str.w	r2, [r0, #-4]
  TxConfig.ChecksumCtrl = ETH_CHECKSUM_IPHDR_PAYLOAD_INSERT_PHDR_CALC;
 800090e:	f44f 3240 	mov.w	r2, #196608	; 0x30000
 8000912:	6102      	str	r2, [r0, #16]
  RxPktSemaphore = xSemaphoreCreateBinary();
 8000914:	2203      	movs	r2, #3
 8000916:	2001      	movs	r0, #1
 8000918:	f003 fe8e 	bl	8004638 <xQueueGenericCreate>
 800091c:	4b2d      	ldr	r3, [pc, #180]	; (80009d4 <ethernetif_init+0x16c>)
 800091e:	6018      	str	r0, [r3, #0]
  osThreadDef(EthIf, ethernetif_input, osPriorityRealtime, 0, INTERFACE_THREAD_STACK_SIZE);
 8000920:	ce0f      	ldmia	r6!, {r0, r1, r2, r3}
 8000922:	c50f      	stmia	r5!, {r0, r1, r2, r3}
 8000924:	6833      	ldr	r3, [r6, #0]
  osThreadCreate (osThread(EthIf), netif);
 8000926:	4621      	mov	r1, r4
 8000928:	a802      	add	r0, sp, #8
  osThreadDef(EthIf, ethernetif_input, osPriorityRealtime, 0, INTERFACE_THREAD_STACK_SIZE);
 800092a:	602b      	str	r3, [r5, #0]
  osThreadCreate (osThread(EthIf), netif);
 800092c:	f004 feb0 	bl	8005690 <osThreadCreate>
  LAN8742_RegisterBusIO(&LAN8742, &LAN8742_IOCtx);
 8000930:	4929      	ldr	r1, [pc, #164]	; (80009d8 <ethernetif_init+0x170>)
 8000932:	482a      	ldr	r0, [pc, #168]	; (80009dc <ethernetif_init+0x174>)
 8000934:	f000 fc7c 	bl	8001230 <LAN8742_RegisterBusIO>
  LAN8742_Init(&LAN8742);
 8000938:	4828      	ldr	r0, [pc, #160]	; (80009dc <ethernetif_init+0x174>)
 800093a:	f000 fc8d 	bl	8001258 <LAN8742_Init>
  PHYLinkState = LAN8742_GetLinkState(&LAN8742);
 800093e:	4827      	ldr	r0, [pc, #156]	; (80009dc <ethernetif_init+0x174>)
 8000940:	f000 fceb 	bl	800131a <LAN8742_GetLinkState>
  if(PHYLinkState <= LAN8742_STATUS_LINK_DOWN)
 8000944:	2801      	cmp	r0, #1
 8000946:	dc08      	bgt.n	800095a <ethernetif_init+0xf2>
    netif_set_link_down(netif);
 8000948:	4620      	mov	r0, r4
 800094a:	f007 f9d7 	bl	8007cfc <netif_set_link_down>
    netif_set_down(netif);
 800094e:	4620      	mov	r0, r4
 8000950:	f007 f994 	bl	8007c7c <netif_set_down>
}
 8000954:	2000      	movs	r0, #0
 8000956:	b021      	add	sp, #132	; 0x84
 8000958:	bdf0      	pop	{r4, r5, r6, r7, pc}
    switch (PHYLinkState)
 800095a:	3803      	subs	r0, #3
    HAL_ETH_GetMACConfig(&EthHandle, &MACConf); 
 800095c:	a907      	add	r1, sp, #28
 800095e:	2802      	cmp	r0, #2
 8000960:	bf93      	iteet	ls
 8000962:	eb07 0040 	addls.w	r0, r7, r0, lsl #1
    switch (PHYLinkState)
 8000966:	f44f 4580 	movhi.w	r5, #16384	; 0x4000
 800096a:	f44f 5600 	movhi.w	r6, #8192	; 0x2000
 800096e:	8d06      	ldrhls	r6, [r0, #40]	; 0x28
 8000970:	bf98      	it	ls
 8000972:	8dc5      	ldrhls	r5, [r0, #46]	; 0x2e
    HAL_ETH_GetMACConfig(&EthHandle, &MACConf); 
 8000974:	480c      	ldr	r0, [pc, #48]	; (80009a8 <ethernetif_init+0x140>)
 8000976:	f001 fd0f 	bl	8002398 <HAL_ETH_GetMACConfig>
    HAL_ETH_SetMACConfig(&EthHandle, &MACConf);
 800097a:	a907      	add	r1, sp, #28
 800097c:	480a      	ldr	r0, [pc, #40]	; (80009a8 <ethernetif_init+0x140>)
    MACConf.Speed = speed;
 800097e:	e9cd 560c 	strd	r5, r6, [sp, #48]	; 0x30
    HAL_ETH_SetMACConfig(&EthHandle, &MACConf);
 8000982:	f001 fdcf 	bl	8002524 <HAL_ETH_SetMACConfig>
    HAL_ETH_Start_IT(&EthHandle);
 8000986:	4808      	ldr	r0, [pc, #32]	; (80009a8 <ethernetif_init+0x140>)
 8000988:	f001 fa23 	bl	8001dd2 <HAL_ETH_Start_IT>
    netif_set_up(netif);
 800098c:	4620      	mov	r0, r4
 800098e:	f007 f95b 	bl	8007c48 <netif_set_up>
    netif_set_link_up(netif);
 8000992:	4620      	mov	r0, r4
 8000994:	f007 f98e 	bl	8007cb4 <netif_set_link_up>
 8000998:	e7dc      	b.n	8000954 <ethernetif_init+0xec>
 800099a:	bf00      	nop
 800099c:	0800d07e 	.word	0x0800d07e
 80009a0:	0800d0fc 	.word	0x0800d0fc
 80009a4:	0800d10a 	.word	0x0800d10a
 80009a8:	240067ec 	.word	0x240067ec
 80009ac:	30040200 	.word	0x30040200
 80009b0:	0800652d 	.word	0x0800652d
 80009b4:	080006f9 	.word	0x080006f9
 80009b8:	0800ce50 	.word	0x0800ce50
 80009bc:	40028000 	.word	0x40028000
 80009c0:	30040000 	.word	0x30040000
 80009c4:	30040060 	.word	0x30040060
 80009c8:	000205dc 	.word	0x000205dc
 80009cc:	0800ce44 	.word	0x0800ce44
 80009d0:	2400694c 	.word	0x2400694c
 80009d4:	240000b4 	.word	0x240000b4
 80009d8:	24000000 	.word	0x24000000
 80009dc:	24006928 	.word	0x24006928

080009e0 <sys_now>:
  return HAL_GetTick();
 80009e0:	f000 bdd6 	b.w	8001590 <HAL_GetTick>

080009e4 <HAL_ETH_MspInit>:
{
 80009e4:	b530      	push	{r4, r5, lr}
  __HAL_RCC_GPIOA_CLK_ENABLE();
 80009e6:	4c40      	ldr	r4, [pc, #256]	; (8000ae8 <HAL_ETH_MspInit+0x104>)
{
 80009e8:	b08d      	sub	sp, #52	; 0x34
  GPIO_InitStructure.Pull = GPIO_NOPULL; 
 80009ea:	2500      	movs	r5, #0
  HAL_GPIO_Init(GPIOA, &GPIO_InitStructure);
 80009ec:	483f      	ldr	r0, [pc, #252]	; (8000aec <HAL_ETH_MspInit+0x108>)
  __HAL_RCC_GPIOA_CLK_ENABLE();
 80009ee:	f8d4 30e0 	ldr.w	r3, [r4, #224]	; 0xe0
  HAL_GPIO_Init(GPIOA, &GPIO_InitStructure);
 80009f2:	a907      	add	r1, sp, #28
  __HAL_RCC_GPIOA_CLK_ENABLE();
 80009f4:	f043 0301 	orr.w	r3, r3, #1
 80009f8:	f8c4 30e0 	str.w	r3, [r4, #224]	; 0xe0
 80009fc:	f8d4 30e0 	ldr.w	r3, [r4, #224]	; 0xe0
 8000a00:	f003 0301 	and.w	r3, r3, #1
 8000a04:	9300      	str	r3, [sp, #0]
 8000a06:	9b00      	ldr	r3, [sp, #0]
  __HAL_RCC_GPIOB_CLK_ENABLE();
 8000a08:	f8d4 30e0 	ldr.w	r3, [r4, #224]	; 0xe0
 8000a0c:	f043 0302 	orr.w	r3, r3, #2
 8000a10:	f8c4 30e0 	str.w	r3, [r4, #224]	; 0xe0
 8000a14:	f8d4 30e0 	ldr.w	r3, [r4, #224]	; 0xe0
 8000a18:	f003 0302 	and.w	r3, r3, #2
 8000a1c:	9301      	str	r3, [sp, #4]
 8000a1e:	9b01      	ldr	r3, [sp, #4]
  __HAL_RCC_GPIOC_CLK_ENABLE();
 8000a20:	f8d4 30e0 	ldr.w	r3, [r4, #224]	; 0xe0
 8000a24:	f043 0304 	orr.w	r3, r3, #4
 8000a28:	f8c4 30e0 	str.w	r3, [r4, #224]	; 0xe0
 8000a2c:	f8d4 30e0 	ldr.w	r3, [r4, #224]	; 0xe0
 8000a30:	f003 0304 	and.w	r3, r3, #4
 8000a34:	9302      	str	r3, [sp, #8]
 8000a36:	9b02      	ldr	r3, [sp, #8]
  __HAL_RCC_GPIOG_CLK_ENABLE();
 8000a38:	f8d4 30e0 	ldr.w	r3, [r4, #224]	; 0xe0
 8000a3c:	f043 0340 	orr.w	r3, r3, #64	; 0x40
 8000a40:	f8c4 30e0 	str.w	r3, [r4, #224]	; 0xe0
 8000a44:	f8d4 30e0 	ldr.w	r3, [r4, #224]	; 0xe0
  GPIO_InitStructure.Pull = GPIO_NOPULL; 
 8000a48:	9509      	str	r5, [sp, #36]	; 0x24
  __HAL_RCC_GPIOG_CLK_ENABLE();
 8000a4a:	f003 0340 	and.w	r3, r3, #64	; 0x40
 8000a4e:	9303      	str	r3, [sp, #12]
 8000a50:	9b03      	ldr	r3, [sp, #12]
  GPIO_InitStructure.Speed = GPIO_SPEED_FREQ_HIGH;
 8000a52:	2302      	movs	r3, #2
 8000a54:	930a      	str	r3, [sp, #40]	; 0x28
  GPIO_InitStructure.Mode = GPIO_MODE_AF_PP;
 8000a56:	9308      	str	r3, [sp, #32]
  GPIO_InitStructure.Alternate = GPIO_AF11_ETH;
 8000a58:	230b      	movs	r3, #11
 8000a5a:	930b      	str	r3, [sp, #44]	; 0x2c
  GPIO_InitStructure.Pin = GPIO_PIN_1 | GPIO_PIN_2 | GPIO_PIN_7;
 8000a5c:	2386      	movs	r3, #134	; 0x86
 8000a5e:	9307      	str	r3, [sp, #28]
  HAL_GPIO_Init(GPIOA, &GPIO_InitStructure);
 8000a60:	f001 feb0 	bl	80027c4 <HAL_GPIO_Init>
  GPIO_InitStructure.Pin = GPIO_PIN_13;
 8000a64:	f44f 5300 	mov.w	r3, #8192	; 0x2000
  HAL_GPIO_Init(GPIOB, &GPIO_InitStructure);
 8000a68:	a907      	add	r1, sp, #28
 8000a6a:	4821      	ldr	r0, [pc, #132]	; (8000af0 <HAL_ETH_MspInit+0x10c>)
  GPIO_InitStructure.Pin = GPIO_PIN_13;
 8000a6c:	9307      	str	r3, [sp, #28]
  HAL_GPIO_Init(GPIOB, &GPIO_InitStructure);
 8000a6e:	f001 fea9 	bl	80027c4 <HAL_GPIO_Init>
  GPIO_InitStructure.Pin = GPIO_PIN_1 | GPIO_PIN_4 | GPIO_PIN_5;
 8000a72:	2332      	movs	r3, #50	; 0x32
  HAL_GPIO_Init(GPIOC, &GPIO_InitStructure);
 8000a74:	a907      	add	r1, sp, #28
 8000a76:	481f      	ldr	r0, [pc, #124]	; (8000af4 <HAL_ETH_MspInit+0x110>)
  GPIO_InitStructure.Pin = GPIO_PIN_1 | GPIO_PIN_4 | GPIO_PIN_5;
 8000a78:	9307      	str	r3, [sp, #28]
  HAL_GPIO_Init(GPIOC, &GPIO_InitStructure);
 8000a7a:	f001 fea3 	bl	80027c4 <HAL_GPIO_Init>
  GPIO_InitStructure.Pin =  GPIO_PIN_2 | GPIO_PIN_11 | GPIO_PIN_13;
 8000a7e:	f642 0304 	movw	r3, #10244	; 0x2804
  HAL_GPIO_Init(GPIOG, &GPIO_InitStructure);	
 8000a82:	a907      	add	r1, sp, #28
 8000a84:	481c      	ldr	r0, [pc, #112]	; (8000af8 <HAL_ETH_MspInit+0x114>)
  GPIO_InitStructure.Pin =  GPIO_PIN_2 | GPIO_PIN_11 | GPIO_PIN_13;
 8000a86:	9307      	str	r3, [sp, #28]
  HAL_GPIO_Init(GPIOG, &GPIO_InitStructure);	
 8000a88:	f001 fe9c 	bl	80027c4 <HAL_GPIO_Init>
  HAL_NVIC_SetPriority(ETH_IRQn, 0x7, 0);
 8000a8c:	462a      	mov	r2, r5
 8000a8e:	2107      	movs	r1, #7
 8000a90:	203d      	movs	r0, #61	; 0x3d
 8000a92:	f000 fda5 	bl	80015e0 <HAL_NVIC_SetPriority>
  HAL_NVIC_EnableIRQ(ETH_IRQn);
 8000a96:	203d      	movs	r0, #61	; 0x3d
 8000a98:	f000 fdd4 	bl	8001644 <HAL_NVIC_EnableIRQ>
  __HAL_RCC_ETH1MAC_CLK_ENABLE();
 8000a9c:	f8d4 30d8 	ldr.w	r3, [r4, #216]	; 0xd8
 8000aa0:	f443 4300 	orr.w	r3, r3, #32768	; 0x8000
 8000aa4:	f8c4 30d8 	str.w	r3, [r4, #216]	; 0xd8
 8000aa8:	f8d4 30d8 	ldr.w	r3, [r4, #216]	; 0xd8
 8000aac:	f403 4300 	and.w	r3, r3, #32768	; 0x8000
 8000ab0:	9304      	str	r3, [sp, #16]
 8000ab2:	9b04      	ldr	r3, [sp, #16]
  __HAL_RCC_ETH1TX_CLK_ENABLE();
 8000ab4:	f8d4 30d8 	ldr.w	r3, [r4, #216]	; 0xd8
 8000ab8:	f443 3380 	orr.w	r3, r3, #65536	; 0x10000
 8000abc:	f8c4 30d8 	str.w	r3, [r4, #216]	; 0xd8
 8000ac0:	f8d4 30d8 	ldr.w	r3, [r4, #216]	; 0xd8
 8000ac4:	f403 3380 	and.w	r3, r3, #65536	; 0x10000
 8000ac8:	9305      	str	r3, [sp, #20]
 8000aca:	9b05      	ldr	r3, [sp, #20]
  __HAL_RCC_ETH1RX_CLK_ENABLE();
 8000acc:	f8d4 30d8 	ldr.w	r3, [r4, #216]	; 0xd8
 8000ad0:	f443 3300 	orr.w	r3, r3, #131072	; 0x20000
 8000ad4:	f8c4 30d8 	str.w	r3, [r4, #216]	; 0xd8
 8000ad8:	f8d4 30d8 	ldr.w	r3, [r4, #216]	; 0xd8
 8000adc:	f403 3300 	and.w	r3, r3, #131072	; 0x20000
 8000ae0:	9306      	str	r3, [sp, #24]
 8000ae2:	9b06      	ldr	r3, [sp, #24]
}
 8000ae4:	b00d      	add	sp, #52	; 0x34
 8000ae6:	bd30      	pop	{r4, r5, pc}
 8000ae8:	58024400 	.word	0x58024400
 8000aec:	58020000 	.word	0x58020000
 8000af0:	58020400 	.word	0x58020400
 8000af4:	58020800 	.word	0x58020800
 8000af8:	58021800 	.word	0x58021800

08000afc <HAL_ETH_RxCpltCallback>:
  osSemaphoreRelease(RxPktSemaphore);
 8000afc:	4b01      	ldr	r3, [pc, #4]	; (8000b04 <HAL_ETH_RxCpltCallback+0x8>)
 8000afe:	6818      	ldr	r0, [r3, #0]
 8000b00:	f004 be5e 	b.w	80057c0 <osSemaphoreRelease>
 8000b04:	240000b4 	.word	0x240000b4

08000b08 <ethernet_link_thread>:
  * @brief  Check the ETH link state and update netif accordingly.
  * @param  argument: netif
  * @retval None
  */
void ethernet_link_thread( void const * argument )
{
 8000b08:	e92d 47f0 	stmdb	sp!, {r4, r5, r6, r7, r8, r9, sl, lr}
  ETH_MACConfigTypeDef MACConf;
  int32_t PHYLinkState;
  uint32_t linkchanged = 0, speed = 0, duplex =0;
 8000b0c:	2500      	movs	r5, #0
{
 8000b0e:	b09a      	sub	sp, #104	; 0x68
 8000b10:	4604      	mov	r4, r0
  struct netif *netif = (struct netif *) argument;
  
  for(;;)
  {
    
    PHYLinkState = LAN8742_GetLinkState(&LAN8742);
 8000b12:	f8df 8088 	ldr.w	r8, [pc, #136]	; 8000b9c <ethernet_link_thread+0x94>
  uint32_t linkchanged = 0, speed = 0, duplex =0;
 8000b16:	462f      	mov	r7, r5
 8000b18:	46aa      	mov	sl, r5
      }
      
      if(linkchanged)
      {
        /* Get MAC Config MAC */
        HAL_ETH_GetMACConfig(&EthHandle, &MACConf); 
 8000b1a:	4e1f      	ldr	r6, [pc, #124]	; (8000b98 <ethernet_link_thread+0x90>)
 8000b1c:	f8df 9080 	ldr.w	r9, [pc, #128]	; 8000ba0 <ethernet_link_thread+0x98>
    PHYLinkState = LAN8742_GetLinkState(&LAN8742);
 8000b20:	4640      	mov	r0, r8
 8000b22:	f000 fbfa 	bl	800131a <LAN8742_GetLinkState>
    if(netif_is_link_up(netif) && (PHYLinkState <= LAN8742_STATUS_LINK_DOWN))
 8000b26:	f894 302d 	ldrb.w	r3, [r4, #45]	; 0x2d
 8000b2a:	075a      	lsls	r2, r3, #29
 8000b2c:	d510      	bpl.n	8000b50 <ethernet_link_thread+0x48>
 8000b2e:	2801      	cmp	r0, #1
 8000b30:	dc0c      	bgt.n	8000b4c <ethernet_link_thread+0x44>
      HAL_ETH_Stop_IT(&EthHandle);
 8000b32:	4630      	mov	r0, r6
 8000b34:	f001 f992 	bl	8001e5c <HAL_ETH_Stop_IT>
      netif_set_down(netif);
 8000b38:	4620      	mov	r0, r4
 8000b3a:	f007 f89f 	bl	8007c7c <netif_set_down>
      netif_set_link_down(netif);
 8000b3e:	4620      	mov	r0, r4
 8000b40:	f007 f8dc 	bl	8007cfc <netif_set_link_down>
        netif_set_up(netif);
        netif_set_link_up(netif);
      }
    }
    
    osDelay(100);
 8000b44:	2064      	movs	r0, #100	; 0x64
 8000b46:	f004 fdc0 	bl	80056ca <osDelay>
    PHYLinkState = LAN8742_GetLinkState(&LAN8742);
 8000b4a:	e7e9      	b.n	8000b20 <ethernet_link_thread+0x18>
    else if(!netif_is_link_up(netif) && (PHYLinkState > LAN8742_STATUS_LINK_DOWN))
 8000b4c:	075b      	lsls	r3, r3, #29
 8000b4e:	d4f9      	bmi.n	8000b44 <ethernet_link_thread+0x3c>
 8000b50:	2801      	cmp	r0, #1
 8000b52:	ddf7      	ble.n	8000b44 <ethernet_link_thread+0x3c>
      switch (PHYLinkState)
 8000b54:	3802      	subs	r0, #2
 8000b56:	2803      	cmp	r0, #3
 8000b58:	d819      	bhi.n	8000b8e <ethernet_link_thread+0x86>
 8000b5a:	eb09 0340 	add.w	r3, r9, r0, lsl #1
 8000b5e:	8e9f      	ldrh	r7, [r3, #52]	; 0x34
 8000b60:	8f9d      	ldrh	r5, [r3, #60]	; 0x3c
        HAL_ETH_GetMACConfig(&EthHandle, &MACConf); 
 8000b62:	a901      	add	r1, sp, #4
 8000b64:	4630      	mov	r0, r6
 8000b66:	f001 fc17 	bl	8002398 <HAL_ETH_GetMACConfig>
        HAL_ETH_SetMACConfig(&EthHandle, &MACConf);
 8000b6a:	a901      	add	r1, sp, #4
 8000b6c:	4630      	mov	r0, r6
        netif_set_link_up(netif);
 8000b6e:	f04f 0a01 	mov.w	sl, #1
        MACConf.Speed = speed;
 8000b72:	e9cd 7506 	strd	r7, r5, [sp, #24]
        HAL_ETH_SetMACConfig(&EthHandle, &MACConf);
 8000b76:	f001 fcd5 	bl	8002524 <HAL_ETH_SetMACConfig>
        HAL_ETH_Start_IT(&EthHandle);
 8000b7a:	4630      	mov	r0, r6
 8000b7c:	f001 f929 	bl	8001dd2 <HAL_ETH_Start_IT>
        netif_set_up(netif);
 8000b80:	4620      	mov	r0, r4
 8000b82:	f007 f861 	bl	8007c48 <netif_set_up>
        netif_set_link_up(netif);
 8000b86:	4620      	mov	r0, r4
 8000b88:	f007 f894 	bl	8007cb4 <netif_set_link_up>
 8000b8c:	e7da      	b.n	8000b44 <ethernet_link_thread+0x3c>
      if(linkchanged)
 8000b8e:	f1ba 0f00 	cmp.w	sl, #0
 8000b92:	d0d7      	beq.n	8000b44 <ethernet_link_thread+0x3c>
 8000b94:	e7e5      	b.n	8000b62 <ethernet_link_thread+0x5a>
 8000b96:	bf00      	nop
 8000b98:	240067ec 	.word	0x240067ec
 8000b9c:	24006928 	.word	0x24006928
 8000ba0:	0800ce44 	.word	0x0800ce44

08000ba4 <StartThread>:
  * @retval None
  */
static void StartThread(void const * argument)
{   
  /* Create tcp_ip stack thread */
  tcpip_init(NULL, NULL);
 8000ba4:	2100      	movs	r1, #0
  ethernet_link_status_updated(&gnetif); 
  
#if LWIP_NETIF_LINK_CALLBACK 
  netif_set_link_callback(&gnetif, ethernet_link_status_updated);
  
  osThreadDef(EthLink, ethernet_link_thread, osPriorityNormal, 0, configMINIMAL_STACK_SIZE *2);
 8000ba6:	4d1a      	ldr	r5, [pc, #104]	; (8000c10 <StartThread+0x6c>)
{   
 8000ba8:	b500      	push	{lr}
  tcpip_init(NULL, NULL);
 8000baa:	4608      	mov	r0, r1
{   
 8000bac:	b08d      	sub	sp, #52	; 0x34
  tcpip_init(NULL, NULL);
 8000bae:	f005 f991 	bl	8005ed4 <tcpip_init>
  IP_ADDR4(&netmask,NETMASK_ADDR0,NETMASK_ADDR1,NETMASK_ADDR2,NETMASK_ADDR3);
 8000bb2:	4a18      	ldr	r2, [pc, #96]	; (8000c14 <StartThread+0x70>)
 8000bb4:	f06f 437f 	mvn.w	r3, #4278190080	; 0xff000000
  netif_add(&gnetif, &ipaddr, &netmask, &gw, NULL, &ethernetif_init, &tcpip_input);
 8000bb8:	a904      	add	r1, sp, #16
 8000bba:	4817      	ldr	r0, [pc, #92]	; (8000c18 <StartThread+0x74>)
  osThreadDef(EthLink, ethernet_link_thread, osPriorityNormal, 0, configMINIMAL_STACK_SIZE *2);
 8000bbc:	ac07      	add	r4, sp, #28
  IP_ADDR4(&netmask,NETMASK_ADDR0,NETMASK_ADDR1,NETMASK_ADDR2,NETMASK_ADDR3);
 8000bbe:	e9cd 2304 	strd	r2, r3, [sp, #16]
  IP_ADDR4(&gw,GW_ADDR0,GW_ADDR1,GW_ADDR2,GW_ADDR3);
 8000bc2:	f503 4328 	add.w	r3, r3, #43008	; 0xa800
  netif_add(&gnetif, &ipaddr, &netmask, &gw, NULL, &ethernetif_init, &tcpip_input);
 8000bc6:	aa05      	add	r2, sp, #20
  IP_ADDR4(&gw,GW_ADDR0,GW_ADDR1,GW_ADDR2,GW_ADDR3);
 8000bc8:	33c1      	adds	r3, #193	; 0xc1
 8000bca:	9306      	str	r3, [sp, #24]
  netif_add(&gnetif, &ipaddr, &netmask, &gw, NULL, &ethernetif_init, &tcpip_input);
 8000bcc:	4b13      	ldr	r3, [pc, #76]	; (8000c1c <StartThread+0x78>)
 8000bce:	9302      	str	r3, [sp, #8]
 8000bd0:	4b13      	ldr	r3, [pc, #76]	; (8000c20 <StartThread+0x7c>)
 8000bd2:	9301      	str	r3, [sp, #4]
 8000bd4:	2300      	movs	r3, #0
 8000bd6:	9300      	str	r3, [sp, #0]
 8000bd8:	ab06      	add	r3, sp, #24
 8000bda:	f006 ff99 	bl	8007b10 <netif_add>
  netif_set_default(&gnetif);
 8000bde:	480e      	ldr	r0, [pc, #56]	; (8000c18 <StartThread+0x74>)
 8000be0:	f007 f82c 	bl	8007c3c <netif_set_default>
  ethernet_link_status_updated(&gnetif); 
 8000be4:	480c      	ldr	r0, [pc, #48]	; (8000c18 <StartThread+0x74>)
 8000be6:	f7ff fd70 	bl	80006ca <ethernet_link_status_updated>
  netif_set_link_callback(&gnetif, ethernet_link_status_updated);
 8000bea:	490e      	ldr	r1, [pc, #56]	; (8000c24 <StartThread+0x80>)
 8000bec:	480a      	ldr	r0, [pc, #40]	; (8000c18 <StartThread+0x74>)
 8000bee:	f007 f89f 	bl	8007d30 <netif_set_link_callback>
  osThreadDef(EthLink, ethernet_link_thread, osPriorityNormal, 0, configMINIMAL_STACK_SIZE *2);
 8000bf2:	cd0f      	ldmia	r5!, {r0, r1, r2, r3}
 8000bf4:	c40f      	stmia	r4!, {r0, r1, r2, r3}
 8000bf6:	682b      	ldr	r3, [r5, #0]
  osThreadCreate (osThread(EthLink), &gnetif);
 8000bf8:	a807      	add	r0, sp, #28
 8000bfa:	4907      	ldr	r1, [pc, #28]	; (8000c18 <StartThread+0x74>)
  osThreadDef(EthLink, ethernet_link_thread, osPriorityNormal, 0, configMINIMAL_STACK_SIZE *2);
 8000bfc:	6023      	str	r3, [r4, #0]
  osThreadCreate (osThread(EthLink), &gnetif);
 8000bfe:	f004 fd47 	bl	8005690 <osThreadCreate>
  tcp_echoserver_init();
 8000c02:	f000 faf3 	bl	80011ec <tcp_echoserver_init>
    osThreadTerminate(NULL);
 8000c06:	2000      	movs	r0, #0
 8000c08:	f004 fd5a 	bl	80056c0 <osThreadTerminate>
  for( ;; )
 8000c0c:	e7fb      	b.n	8000c06 <StartThread+0x62>
 8000c0e:	bf00      	nop
 8000c10:	0800ce88 	.word	0x0800ce88
 8000c14:	0a00a8c0 	.word	0x0a00a8c0
 8000c18:	2400697c 	.word	0x2400697c
 8000c1c:	08005eb9 	.word	0x08005eb9
 8000c20:	08000869 	.word	0x08000869
 8000c24:	080006cb 	.word	0x080006cb

08000c28 <main>:
{
 8000c28:	b580      	push	{r7, lr}
 8000c2a:	b09e      	sub	sp, #120	; 0x78

  /* Configure the MPU attributes as Device not cacheable 
     for ETH DMA descriptors */
  MPU_InitStruct.Enable = MPU_REGION_ENABLE;
  MPU_InitStruct.BaseAddress = 0x30040000;
  MPU_InitStruct.Size = MPU_REGION_SIZE_256B;
 8000c2c:	4d71      	ldr	r5, [pc, #452]	; (8000df4 <main+0x1cc>)
  HAL_MPU_Disable();
 8000c2e:	f000 fd2b 	bl	8001688 <HAL_MPU_Disable>
  MPU_InitStruct.Enable = MPU_REGION_ENABLE;
 8000c32:	2301      	movs	r3, #1
  MPU_InitStruct.Number = MPU_REGION_NUMBER0;
  MPU_InitStruct.TypeExtField = MPU_TEX_LEVEL0;
  MPU_InitStruct.SubRegionDisable = 0x00;
  MPU_InitStruct.DisableExec = MPU_INSTRUCTION_ACCESS_ENABLE;

  HAL_MPU_ConfigRegion(&MPU_InitStruct);
 8000c34:	a80b      	add	r0, sp, #44	; 0x2c
  
  /* Configure the MPU attributes as Normal Non Cacheable
     for LwIP RAM heap which contains the Tx buffers */
  MPU_InitStruct.Enable = MPU_REGION_ENABLE;
  MPU_InitStruct.BaseAddress = 0x30044000;
  MPU_InitStruct.Size = MPU_REGION_SIZE_16KB;
 8000c36:	4e70      	ldr	r6, [pc, #448]	; (8000df8 <main+0x1d0>)
  MPU_InitStruct.Enable = MPU_REGION_ENABLE;
 8000c38:	f8ad 302c 	strh.w	r3, [sp, #44]	; 0x2c
  MPU_InitStruct.Size = MPU_REGION_SIZE_256B;
 8000c3c:	4b6f      	ldr	r3, [pc, #444]	; (8000dfc <main+0x1d4>)
 8000c3e:	e9cd 530c 	strd	r5, r3, [sp, #48]	; 0x30
  MPU_InitStruct.DisableExec = MPU_INSTRUCTION_ACCESS_ENABLE;
 8000c42:	f04f 7380 	mov.w	r3, #16777216	; 0x1000000
 8000c46:	930e      	str	r3, [sp, #56]	; 0x38
  HAL_MPU_ConfigRegion(&MPU_InitStruct);
 8000c48:	f000 fd40 	bl	80016cc <HAL_MPU_ConfigRegion>
  MPU_InitStruct.Enable = MPU_REGION_ENABLE;
 8000c4c:	f240 1301 	movw	r3, #257	; 0x101
  MPU_InitStruct.Number = MPU_REGION_NUMBER1;
  MPU_InitStruct.TypeExtField = MPU_TEX_LEVEL1;
  MPU_InitStruct.SubRegionDisable = 0x00;
  MPU_InitStruct.DisableExec = MPU_INSTRUCTION_ACCESS_ENABLE;

  HAL_MPU_ConfigRegion(&MPU_InitStruct);
 8000c50:	a80b      	add	r0, sp, #44	; 0x2c
  MPU_InitStruct.Enable = MPU_REGION_ENABLE;
 8000c52:	f8ad 302c 	strh.w	r3, [sp, #44]	; 0x2c
  MPU_InitStruct.Size = MPU_REGION_SIZE_16KB;
 8000c56:	4b6a      	ldr	r3, [pc, #424]	; (8000e00 <main+0x1d8>)
 8000c58:	e9cd 630c 	strd	r6, r3, [sp, #48]	; 0x30
  MPU_InitStruct.DisableExec = MPU_INSTRUCTION_ACCESS_ENABLE;
 8000c5c:	f44f 7380 	mov.w	r3, #256	; 0x100
 8000c60:	930e      	str	r3, [sp, #56]	; 0x38
  HAL_MPU_ConfigRegion(&MPU_InitStruct);
 8000c62:	f000 fd33 	bl	80016cc <HAL_MPU_ConfigRegion>

  /* Enable the MPU */
  HAL_MPU_Enable(MPU_PRIVILEGED_DEFAULT);
 8000c66:	2004      	movs	r0, #4
 8000c68:	f000 fd1e 	bl	80016a8 <HAL_MPU_Enable>
  __ASM volatile ("dsb 0xF":::"memory");
 8000c6c:	f3bf 8f4f 	dsb	sy
  __ASM volatile ("isb 0xF":::"memory");
 8000c70:	f3bf 8f6f 	isb	sy
    SCB->ICIALLU = 0UL;                     /* invalidate I-Cache */
 8000c74:	4b63      	ldr	r3, [pc, #396]	; (8000e04 <main+0x1dc>)
 8000c76:	2100      	movs	r1, #0
 8000c78:	f8c3 1250 	str.w	r1, [r3, #592]	; 0x250
  __ASM volatile ("dsb 0xF":::"memory");
 8000c7c:	f3bf 8f4f 	dsb	sy
  __ASM volatile ("isb 0xF":::"memory");
 8000c80:	f3bf 8f6f 	isb	sy
    SCB->CCR |=  (uint32_t)SCB_CCR_IC_Msk;  /* enable I-Cache */
 8000c84:	695a      	ldr	r2, [r3, #20]
 8000c86:	f442 3200 	orr.w	r2, r2, #131072	; 0x20000
 8000c8a:	615a      	str	r2, [r3, #20]
  __ASM volatile ("dsb 0xF":::"memory");
 8000c8c:	f3bf 8f4f 	dsb	sy
  __ASM volatile ("isb 0xF":::"memory");
 8000c90:	f3bf 8f6f 	isb	sy
    SCB->CSSELR = 0U; /*(0U << 1U) | 0U;*/  /* Level 1 data cache */
 8000c94:	f8c3 1084 	str.w	r1, [r3, #132]	; 0x84
  __ASM volatile ("dsb 0xF":::"memory");
 8000c98:	f3bf 8f4f 	dsb	sy
    ccsidr = SCB->CCSIDR;
 8000c9c:	f8d3 2080 	ldr.w	r2, [r3, #128]	; 0x80
        SCB->DCISW = (((sets << SCB_DCISW_SET_Pos) & SCB_DCISW_SET_Msk) |
 8000ca0:	f643 74e0 	movw	r4, #16352	; 0x3fe0
      ways = (uint32_t)(CCSIDR_WAYS(ccsidr));
 8000ca4:	f3c2 00c9 	ubfx	r0, r2, #3, #10
    sets = (uint32_t)(CCSIDR_SETS(ccsidr));
 8000ca8:	f3c2 324e 	ubfx	r2, r2, #13, #15
 8000cac:	0152      	lsls	r2, r2, #5
        SCB->DCISW = (((sets << SCB_DCISW_SET_Pos) & SCB_DCISW_SET_Msk) |
 8000cae:	ea02 0604 	and.w	r6, r2, r4
      ways = (uint32_t)(CCSIDR_WAYS(ccsidr));
 8000cb2:	4601      	mov	r1, r0
        SCB->DCISW = (((sets << SCB_DCISW_SET_Pos) & SCB_DCISW_SET_Msk) |
 8000cb4:	ea46 7581 	orr.w	r5, r6, r1, lsl #30
      } while (ways-- != 0U);
 8000cb8:	3901      	subs	r1, #1
        SCB->DCISW = (((sets << SCB_DCISW_SET_Pos) & SCB_DCISW_SET_Msk) |
 8000cba:	f8c3 5260 	str.w	r5, [r3, #608]	; 0x260
      } while (ways-- != 0U);
 8000cbe:	d2f9      	bcs.n	8000cb4 <main+0x8c>
    } while(sets-- != 0U);
 8000cc0:	3a20      	subs	r2, #32
 8000cc2:	f112 0f20 	cmn.w	r2, #32
 8000cc6:	d1f2      	bne.n	8000cae <main+0x86>
 8000cc8:	f3bf 8f4f 	dsb	sy
    SCB->CCR |=  (uint32_t)SCB_CCR_DC_Msk;  /* enable D-Cache */
 8000ccc:	695a      	ldr	r2, [r3, #20]
 8000cce:	f442 3280 	orr.w	r2, r2, #65536	; 0x10000
 8000cd2:	615a      	str	r2, [r3, #20]
 8000cd4:	f3bf 8f4f 	dsb	sy
  __ASM volatile ("isb 0xF":::"memory");
 8000cd8:	f3bf 8f6f 	isb	sy
  HAL_Init();  
 8000cdc:	f000 fc1e 	bl	800151c <HAL_Init>
  HAL_PWREx_ConfigSupply(PWR_LDO_SUPPLY);
 8000ce0:	2002      	movs	r0, #2
 8000ce2:	f001 ff01 	bl	8002ae8 <HAL_PWREx_ConfigSupply>
  __HAL_PWR_VOLTAGESCALING_CONFIG(PWR_REGULATOR_VOLTAGE_SCALE1);
 8000ce6:	2300      	movs	r3, #0
 8000ce8:	9301      	str	r3, [sp, #4]
 8000cea:	4b47      	ldr	r3, [pc, #284]	; (8000e08 <main+0x1e0>)
 8000cec:	6ada      	ldr	r2, [r3, #44]	; 0x2c
 8000cee:	f022 0201 	bic.w	r2, r2, #1
 8000cf2:	62da      	str	r2, [r3, #44]	; 0x2c
 8000cf4:	6adb      	ldr	r3, [r3, #44]	; 0x2c
 8000cf6:	f003 0301 	and.w	r3, r3, #1
 8000cfa:	9301      	str	r3, [sp, #4]
 8000cfc:	4b43      	ldr	r3, [pc, #268]	; (8000e0c <main+0x1e4>)
 8000cfe:	699a      	ldr	r2, [r3, #24]
 8000d00:	f442 4240 	orr.w	r2, r2, #49152	; 0xc000
 8000d04:	619a      	str	r2, [r3, #24]
 8000d06:	699a      	ldr	r2, [r3, #24]
 8000d08:	f402 4240 	and.w	r2, r2, #49152	; 0xc000
 8000d0c:	9201      	str	r2, [sp, #4]
 8000d0e:	9a01      	ldr	r2, [sp, #4]
  while(!__HAL_PWR_GET_FLAG(PWR_FLAG_VOSRDY)) {}
 8000d10:	699a      	ldr	r2, [r3, #24]
 8000d12:	0494      	lsls	r4, r2, #18
 8000d14:	d5fc      	bpl.n	8000d10 <main+0xe8>
  __HAL_RCC_D2SRAM3_CLK_ENABLE();
 8000d16:	4b3e      	ldr	r3, [pc, #248]	; (8000e10 <main+0x1e8>)
  RCC_OscInitStruct.HSEState = RCC_HSE_BYPASS;
 8000d18:	2701      	movs	r7, #1
  RCC_OscInitStruct.PLL.PLLState = RCC_PLL_ON;
 8000d1a:	2602      	movs	r6, #2
  RCC_OscInitStruct.PLL.PLLN = 400;
 8000d1c:	2404      	movs	r4, #4
  __HAL_RCC_D2SRAM3_CLK_ENABLE();
 8000d1e:	f8d3 20dc 	ldr.w	r2, [r3, #220]	; 0xdc
  ret = HAL_RCC_OscConfig(&RCC_OscInitStruct);
 8000d22:	a80b      	add	r0, sp, #44	; 0x2c
  __HAL_RCC_D2SRAM3_CLK_ENABLE();
 8000d24:	f042 4200 	orr.w	r2, r2, #2147483648	; 0x80000000
 8000d28:	f8c3 20dc 	str.w	r2, [r3, #220]	; 0xdc
  RCC_OscInitStruct.PLL.PLLN = 400;
 8000d2c:	f44f 72c8 	mov.w	r2, #400	; 0x190
  __HAL_RCC_D2SRAM3_CLK_ENABLE();
 8000d30:	f8d3 30dc 	ldr.w	r3, [r3, #220]	; 0xdc
  RCC_OscInitStruct.PLL.PLLP = 2;
 8000d34:	9618      	str	r6, [sp, #96]	; 0x60
  __HAL_RCC_D2SRAM3_CLK_ENABLE();
 8000d36:	f003 4300 	and.w	r3, r3, #2147483648	; 0x80000000
 8000d3a:	9302      	str	r3, [sp, #8]
 8000d3c:	9b02      	ldr	r3, [sp, #8]
  RCC_OscInitStruct.HSEState = RCC_HSE_BYPASS;
 8000d3e:	f44f 23a0 	mov.w	r3, #327680	; 0x50000
 8000d42:	e9cd 730b 	strd	r7, r3, [sp, #44]	; 0x2c
  RCC_OscInitStruct.HSIState = RCC_HSI_OFF;
 8000d46:	2300      	movs	r3, #0
  RCC_OscInitStruct.PLL.PLLSource = RCC_PLLSOURCE_HSE;
 8000d48:	e9cd 6614 	strd	r6, r6, [sp, #80]	; 0x50
  RCC_OscInitStruct.HSIState = RCC_HSI_OFF;
 8000d4c:	930e      	str	r3, [sp, #56]	; 0x38
  RCC_OscInitStruct.CSIState = RCC_CSI_OFF;
 8000d4e:	9312      	str	r3, [sp, #72]	; 0x48
  RCC_OscInitStruct.PLL.PLLFRACN = 0;
 8000d50:	931d      	str	r3, [sp, #116]	; 0x74
  RCC_OscInitStruct.PLL.PLLN = 400;
 8000d52:	e9cd 4216 	strd	r4, r2, [sp, #88]	; 0x58
  RCC_OscInitStruct.PLL.PLLQ = 4;
 8000d56:	e9cd 4619 	strd	r4, r6, [sp, #100]	; 0x64
  RCC_OscInitStruct.PLL.PLLRGE = RCC_PLL1VCIRANGE_1;
 8000d5a:	e9cd 431b 	strd	r4, r3, [sp, #108]	; 0x6c
  ret = HAL_RCC_OscConfig(&RCC_OscInitStruct);
 8000d5e:	f001 fee7 	bl	8002b30 <HAL_RCC_OscConfig>
  if(ret != HAL_OK)
 8000d62:	b100      	cbz	r0, 8000d66 <main+0x13e>
    while(1);
 8000d64:	e7fe      	b.n	8000d64 <main+0x13c>
  RCC_ClkInitStruct.SYSCLKSource = RCC_SYSCLKSOURCE_PLLCLK;
 8000d66:	213f      	movs	r1, #63	; 0x3f
 8000d68:	2303      	movs	r3, #3
  RCC_ClkInitStruct.SYSCLKDivider = RCC_SYSCLK_DIV1;
 8000d6a:	9005      	str	r0, [sp, #20]
  RCC_ClkInitStruct.APB3CLKDivider = RCC_APB3_DIV2;  
 8000d6c:	2008      	movs	r0, #8
  RCC_ClkInitStruct.APB2CLKDivider = RCC_APB2_DIV2; 
 8000d6e:	f44f 6280 	mov.w	r2, #1024	; 0x400
  RCC_ClkInitStruct.SYSCLKSource = RCC_SYSCLKSOURCE_PLLCLK;
 8000d72:	e9cd 1303 	strd	r1, r3, [sp, #12]
  RCC_ClkInitStruct.APB3CLKDivider = RCC_APB3_DIV2;  
 8000d76:	2340      	movs	r3, #64	; 0x40
  ret = HAL_RCC_ClockConfig(&RCC_ClkInitStruct, FLASH_LATENCY_4);
 8000d78:	4621      	mov	r1, r4
  RCC_ClkInitStruct.APB3CLKDivider = RCC_APB3_DIV2;  
 8000d7a:	e9cd 0306 	strd	r0, r3, [sp, #24]
  ret = HAL_RCC_ClockConfig(&RCC_ClkInitStruct, FLASH_LATENCY_4);
 8000d7e:	a803      	add	r0, sp, #12
  RCC_ClkInitStruct.APB1CLKDivider = RCC_APB1_DIV2; 
 8000d80:	9308      	str	r3, [sp, #32]
  RCC_ClkInitStruct.APB4CLKDivider = RCC_APB4_DIV2; 
 8000d82:	e9cd 2309 	strd	r2, r3, [sp, #36]	; 0x24
  ret = HAL_RCC_ClockConfig(&RCC_ClkInitStruct, FLASH_LATENCY_4);
 8000d86:	f002 fa0f 	bl	80031a8 <HAL_RCC_ClockConfig>
  if(ret != HAL_OK)
 8000d8a:	4605      	mov	r5, r0
 8000d8c:	b100      	cbz	r0, 8000d90 <main+0x168>
    while(1);
 8000d8e:	e7fe      	b.n	8000d8e <main+0x166>
  BSP_LED_Init(LED2);
 8000d90:	4638      	mov	r0, r7
  UartHandle_x.Instance        = USARTx;
 8000d92:	4c20      	ldr	r4, [pc, #128]	; (8000e14 <main+0x1ec>)
  BSP_LED_Init(LED2);
 8000d94:	f000 fb0c 	bl	80013b0 <BSP_LED_Init>
  BSP_LED_Init(LED3);
 8000d98:	4630      	mov	r0, r6
 8000d9a:	f000 fb09 	bl	80013b0 <BSP_LED_Init>
  UartHandle_x.Init.BaudRate   = 115200;
 8000d9e:	f44f 33e1 	mov.w	r3, #115200	; 0x1c200
 8000da2:	4a1d      	ldr	r2, [pc, #116]	; (8000e18 <main+0x1f0>)
  if(HAL_UART_DeInit(&UartHandle_x) != HAL_OK)
 8000da4:	4620      	mov	r0, r4
  UartHandle_x.Init.Parity     = UART_PARITY_NONE;
 8000da6:	6125      	str	r5, [r4, #16]
  UartHandle_x.Init.HwFlowCtl  = UART_HWCONTROL_NONE;
 8000da8:	61a5      	str	r5, [r4, #24]
  UartHandle_x.AdvancedInit.AdvFeatureInit = UART_ADVFEATURE_NO_INIT;
 8000daa:	62a5      	str	r5, [r4, #40]	; 0x28
  UartHandle_x.Init.BaudRate   = 115200;
 8000dac:	e9c4 2300 	strd	r2, r3, [r4]
  UartHandle_x.Init.Mode       = UART_MODE_TX_RX;
 8000db0:	230c      	movs	r3, #12
  UartHandle_x.Init.StopBits   = UART_STOPBITS_1;
 8000db2:	e9c4 5502 	strd	r5, r5, [r4, #8]
  UartHandle_x.Init.Mode       = UART_MODE_TX_RX;
 8000db6:	6163      	str	r3, [r4, #20]
  if(HAL_UART_DeInit(&UartHandle_x) != HAL_OK)
 8000db8:	f002 fefa 	bl	8003bb0 <HAL_UART_DeInit>
 8000dbc:	b118      	cbz	r0, 8000dc6 <main+0x19e>
  BSP_LED_On(LED_RED);
 8000dbe:	4630      	mov	r0, r6
 8000dc0:	f000 fb40 	bl	8001444 <BSP_LED_On>
  while(1)
 8000dc4:	e7fe      	b.n	8000dc4 <main+0x19c>
  if(HAL_UART_Init(&UartHandle_x) != HAL_OK)
 8000dc6:	4620      	mov	r0, r4
 8000dc8:	f003 faf5 	bl	80043b6 <HAL_UART_Init>
 8000dcc:	4607      	mov	r7, r0
 8000dce:	b118      	cbz	r0, 8000dd8 <main+0x1b0>
  BSP_LED_On(LED_RED);
 8000dd0:	4630      	mov	r0, r6
 8000dd2:	f000 fb37 	bl	8001444 <BSP_LED_On>
  while(1)
 8000dd6:	e7fe      	b.n	8000dd6 <main+0x1ae>
  osThreadDef(Start, StartThread, osPriorityNormal, 0, configMINIMAL_STACK_SIZE * 4);
 8000dd8:	4d10      	ldr	r5, [pc, #64]	; (8000e1c <main+0x1f4>)
 8000dda:	ac0b      	add	r4, sp, #44	; 0x2c
 8000ddc:	cd0f      	ldmia	r5!, {r0, r1, r2, r3}
 8000dde:	c40f      	stmia	r4!, {r0, r1, r2, r3}
 8000de0:	682b      	ldr	r3, [r5, #0]
  osThreadCreate (osThread(Start), NULL);
 8000de2:	4639      	mov	r1, r7
 8000de4:	a80b      	add	r0, sp, #44	; 0x2c
  osThreadDef(Start, StartThread, osPriorityNormal, 0, configMINIMAL_STACK_SIZE * 4);
 8000de6:	6023      	str	r3, [r4, #0]
  osThreadCreate (osThread(Start), NULL);
 8000de8:	f004 fc52 	bl	8005690 <osThreadCreate>
  osKernelStart();
 8000dec:	f004 fc44 	bl	8005678 <osKernelStart>
  for( ;; );
 8000df0:	e7fe      	b.n	8000df0 <main+0x1c8>
 8000df2:	bf00      	nop
 8000df4:	30040000 	.word	0x30040000
 8000df8:	30044000 	.word	0x30044000
 8000dfc:	03000007 	.word	0x03000007
 8000e00:	0301000d 	.word	0x0301000d
 8000e04:	e000ed00 	.word	0xe000ed00
 8000e08:	58000400 	.word	0x58000400
 8000e0c:	58024800 	.word	0x58024800
 8000e10:	58024400 	.word	0x58024400
 8000e14:	240069b0 	.word	0x240069b0
 8000e18:	40011400 	.word	0x40011400
 8000e1c:	0800ce9c 	.word	0x0800ce9c

08000e20 <HAL_UART_MspInit>:
{
  GPIO_InitTypeDef  GPIO_InitStruct;

  /*##-1- Enable peripherals and GPIO Clocks #################################*/
  /* Enable GPIO TX/RX clock */
  USARTx_TX_GPIO_CLK_ENABLE();
 8000e20:	4b22      	ldr	r3, [pc, #136]	; (8000eac <HAL_UART_MspInit+0x8c>)
  GPIO_InitStruct.Mode      = GPIO_MODE_AF_PP;
  GPIO_InitStruct.Pull      = GPIO_PULLUP;
  GPIO_InitStruct.Speed     = GPIO_SPEED_FREQ_VERY_HIGH;
  GPIO_InitStruct.Alternate = USARTx_TX_AF;

  HAL_GPIO_Init(USARTx_TX_GPIO_PORT, &GPIO_InitStruct);
 8000e22:	4823      	ldr	r0, [pc, #140]	; (8000eb0 <HAL_UART_MspInit+0x90>)
  USARTx_TX_GPIO_CLK_ENABLE();
 8000e24:	f8d3 20e0 	ldr.w	r2, [r3, #224]	; 0xe0
 8000e28:	f042 0204 	orr.w	r2, r2, #4
{
 8000e2c:	b530      	push	{r4, r5, lr}
  USARTx_TX_GPIO_CLK_ENABLE();
 8000e2e:	f8c3 20e0 	str.w	r2, [r3, #224]	; 0xe0
{
 8000e32:	b089      	sub	sp, #36	; 0x24
  USARTx_TX_GPIO_CLK_ENABLE();
 8000e34:	f8d3 20e0 	ldr.w	r2, [r3, #224]	; 0xe0
  GPIO_InitStruct.Speed     = GPIO_SPEED_FREQ_VERY_HIGH;
 8000e38:	2401      	movs	r4, #1
  GPIO_InitStruct.Alternate = USARTx_TX_AF;
 8000e3a:	2507      	movs	r5, #7
  HAL_GPIO_Init(USARTx_TX_GPIO_PORT, &GPIO_InitStruct);
 8000e3c:	a903      	add	r1, sp, #12
  USARTx_TX_GPIO_CLK_ENABLE();
 8000e3e:	f002 0204 	and.w	r2, r2, #4
 8000e42:	9200      	str	r2, [sp, #0]
 8000e44:	9a00      	ldr	r2, [sp, #0]
  USARTx_RX_GPIO_CLK_ENABLE();
 8000e46:	f8d3 20e0 	ldr.w	r2, [r3, #224]	; 0xe0
 8000e4a:	f042 0204 	orr.w	r2, r2, #4
 8000e4e:	f8c3 20e0 	str.w	r2, [r3, #224]	; 0xe0
 8000e52:	f8d3 20e0 	ldr.w	r2, [r3, #224]	; 0xe0
 8000e56:	f002 0204 	and.w	r2, r2, #4
 8000e5a:	9201      	str	r2, [sp, #4]
 8000e5c:	9a01      	ldr	r2, [sp, #4]
  USARTx_CLK_ENABLE();
 8000e5e:	f8d3 20f0 	ldr.w	r2, [r3, #240]	; 0xf0
 8000e62:	f042 0220 	orr.w	r2, r2, #32
 8000e66:	f8c3 20f0 	str.w	r2, [r3, #240]	; 0xf0
  GPIO_InitStruct.Mode      = GPIO_MODE_AF_PP;
 8000e6a:	2240      	movs	r2, #64	; 0x40
  USARTx_CLK_ENABLE();
 8000e6c:	f8d3 30f0 	ldr.w	r3, [r3, #240]	; 0xf0
  GPIO_InitStruct.Alternate = USARTx_TX_AF;
 8000e70:	9507      	str	r5, [sp, #28]
  USARTx_CLK_ENABLE();
 8000e72:	f003 0320 	and.w	r3, r3, #32
 8000e76:	9302      	str	r3, [sp, #8]
 8000e78:	9b02      	ldr	r3, [sp, #8]
  GPIO_InitStruct.Mode      = GPIO_MODE_AF_PP;
 8000e7a:	2302      	movs	r3, #2
 8000e7c:	e9cd 2303 	strd	r2, r3, [sp, #12]
  GPIO_InitStruct.Speed     = GPIO_SPEED_FREQ_VERY_HIGH;
 8000e80:	2303      	movs	r3, #3
 8000e82:	e9cd 4305 	strd	r4, r3, [sp, #20]
  HAL_GPIO_Init(USARTx_TX_GPIO_PORT, &GPIO_InitStruct);
 8000e86:	f001 fc9d 	bl	80027c4 <HAL_GPIO_Init>

  /* UART RX GPIO pin configuration  */
  GPIO_InitStruct.Pin = USARTx_RX_PIN;
 8000e8a:	2380      	movs	r3, #128	; 0x80
  GPIO_InitStruct.Alternate = USARTx_RX_AF;

  HAL_GPIO_Init(USARTx_RX_GPIO_PORT, &GPIO_InitStruct);
 8000e8c:	a903      	add	r1, sp, #12
 8000e8e:	4808      	ldr	r0, [pc, #32]	; (8000eb0 <HAL_UART_MspInit+0x90>)
  GPIO_InitStruct.Pin = USARTx_RX_PIN;
 8000e90:	9303      	str	r3, [sp, #12]
  GPIO_InitStruct.Alternate = USARTx_RX_AF;
 8000e92:	9507      	str	r5, [sp, #28]
  HAL_GPIO_Init(USARTx_RX_GPIO_PORT, &GPIO_InitStruct);
 8000e94:	f001 fc96 	bl	80027c4 <HAL_GPIO_Init>

  /*##-3- Configure the NVIC for UART ########################################*/
  /* NVIC for USART */
  HAL_NVIC_SetPriority(USARTx_IRQn, 0, 1);
 8000e98:	4622      	mov	r2, r4
 8000e9a:	2100      	movs	r1, #0
 8000e9c:	2047      	movs	r0, #71	; 0x47
 8000e9e:	f000 fb9f 	bl	80015e0 <HAL_NVIC_SetPriority>
  HAL_NVIC_EnableIRQ(USARTx_IRQn);
 8000ea2:	2047      	movs	r0, #71	; 0x47
 8000ea4:	f000 fbce 	bl	8001644 <HAL_NVIC_EnableIRQ>
}
 8000ea8:	b009      	add	sp, #36	; 0x24
 8000eaa:	bd30      	pop	{r4, r5, pc}
 8000eac:	58024400 	.word	0x58024400
 8000eb0:	58020800 	.word	0x58020800

08000eb4 <HAL_UART_MspDeInit>:
  *          - Revert GPIO and NVIC configuration to their default state
  * @param huart: UART handle pointer
  * @retval None
  */
void HAL_UART_MspDeInit(UART_HandleTypeDef *huart)
{
 8000eb4:	b508      	push	{r3, lr}
  /*##-1- Reset peripherals ##################################################*/
  USARTx_FORCE_RESET();
 8000eb6:	4b0d      	ldr	r3, [pc, #52]	; (8000eec <HAL_UART_MspDeInit+0x38>)
  USARTx_RELEASE_RESET();

  /*##-2- Disable peripherals and GPIO Clocks #################################*/
  /* Configure UART Tx as alternate function  */
  HAL_GPIO_DeInit(USARTx_TX_GPIO_PORT, USARTx_TX_PIN);
 8000eb8:	2140      	movs	r1, #64	; 0x40
 8000eba:	480d      	ldr	r0, [pc, #52]	; (8000ef0 <HAL_UART_MspDeInit+0x3c>)
  USARTx_FORCE_RESET();
 8000ebc:	f8d3 2098 	ldr.w	r2, [r3, #152]	; 0x98
 8000ec0:	f042 0220 	orr.w	r2, r2, #32
 8000ec4:	f8c3 2098 	str.w	r2, [r3, #152]	; 0x98
  USARTx_RELEASE_RESET();
 8000ec8:	f8d3 2098 	ldr.w	r2, [r3, #152]	; 0x98
 8000ecc:	f022 0220 	bic.w	r2, r2, #32
 8000ed0:	f8c3 2098 	str.w	r2, [r3, #152]	; 0x98
  HAL_GPIO_DeInit(USARTx_TX_GPIO_PORT, USARTx_TX_PIN);
 8000ed4:	f001 fd5c 	bl	8002990 <HAL_GPIO_DeInit>
  /* Configure UART Rx as alternate function  */
  HAL_GPIO_DeInit(USARTx_RX_GPIO_PORT, USARTx_RX_PIN);
 8000ed8:	4805      	ldr	r0, [pc, #20]	; (8000ef0 <HAL_UART_MspDeInit+0x3c>)
 8000eda:	2180      	movs	r1, #128	; 0x80
 8000edc:	f001 fd58 	bl	8002990 <HAL_GPIO_DeInit>

  /*##-3- Disable the NVIC for UART ##########################################*/
  HAL_NVIC_DisableIRQ(USARTx_IRQn);
 8000ee0:	2047      	movs	r0, #71	; 0x47
}
 8000ee2:	e8bd 4008 	ldmia.w	sp!, {r3, lr}
  HAL_NVIC_DisableIRQ(USARTx_IRQn);
 8000ee6:	f000 bbbb 	b.w	8001660 <HAL_NVIC_DisableIRQ>
 8000eea:	bf00      	nop
 8000eec:	58024400 	.word	0x58024400
 8000ef0:	58020800 	.word	0x58020800

08000ef4 <HAL_InitTick>:
  uint32_t              uwTimclock, uwAPB1Prescaler;
  uint32_t              uwPrescalerValue;
  uint32_t              pFLatency;
  
  /*Configure the TIM6 IRQ priority */
  if (TickPriority < (1UL << __NVIC_PRIO_BITS))
 8000ef4:	280f      	cmp	r0, #15
{
 8000ef6:	b510      	push	{r4, lr}
 8000ef8:	4604      	mov	r4, r0
 8000efa:	b08a      	sub	sp, #40	; 0x28
  if (TickPriority < (1UL << __NVIC_PRIO_BITS))
 8000efc:	d902      	bls.n	8000f04 <HAL_InitTick+0x10>
    HAL_NVIC_EnableIRQ(TIM6_DAC_IRQn);
    uwTickPrio = TickPriority;
  }
  else
  {
    return HAL_ERROR;
 8000efe:	2001      	movs	r0, #1
    return HAL_TIM_Base_Start_IT(&TimHandle);
  }
  
  /* Return function status */
  return HAL_ERROR;
}
 8000f00:	b00a      	add	sp, #40	; 0x28
 8000f02:	bd10      	pop	{r4, pc}
    HAL_NVIC_SetPriority(TIM6_DAC_IRQn, TickPriority ,0U);
 8000f04:	4601      	mov	r1, r0
 8000f06:	2200      	movs	r2, #0
 8000f08:	2036      	movs	r0, #54	; 0x36
 8000f0a:	f000 fb69 	bl	80015e0 <HAL_NVIC_SetPriority>
    HAL_NVIC_EnableIRQ(TIM6_DAC_IRQn);
 8000f0e:	2036      	movs	r0, #54	; 0x36
 8000f10:	f000 fb98 	bl	8001644 <HAL_NVIC_EnableIRQ>
    uwTickPrio = TickPriority;
 8000f14:	4b18      	ldr	r3, [pc, #96]	; (8000f78 <HAL_InitTick+0x84>)
  HAL_RCC_GetClockConfig(&clkconfig, &pFLatency);
 8000f16:	4669      	mov	r1, sp
 8000f18:	a802      	add	r0, sp, #8
    uwTickPrio = TickPriority;
 8000f1a:	601c      	str	r4, [r3, #0]
  __HAL_RCC_TIM6_CLK_ENABLE();
 8000f1c:	4b17      	ldr	r3, [pc, #92]	; (8000f7c <HAL_InitTick+0x88>)
 8000f1e:	f8d3 20e8 	ldr.w	r2, [r3, #232]	; 0xe8
 8000f22:	f042 0210 	orr.w	r2, r2, #16
 8000f26:	f8c3 20e8 	str.w	r2, [r3, #232]	; 0xe8
 8000f2a:	f8d3 30e8 	ldr.w	r3, [r3, #232]	; 0xe8
 8000f2e:	f003 0310 	and.w	r3, r3, #16
 8000f32:	9301      	str	r3, [sp, #4]
 8000f34:	9b01      	ldr	r3, [sp, #4]
  HAL_RCC_GetClockConfig(&clkconfig, &pFLatency);
 8000f36:	f002 faa3 	bl	8003480 <HAL_RCC_GetClockConfig>
  if (uwAPB1Prescaler == RCC_HCLK_DIV1) 
 8000f3a:	9b07      	ldr	r3, [sp, #28]
 8000f3c:	b9c3      	cbnz	r3, 8000f70 <HAL_InitTick+0x7c>
    uwTimclock = HAL_RCC_GetPCLK1Freq();
 8000f3e:	f002 fa7b 	bl	8003438 <HAL_RCC_GetPCLK1Freq>
  TimHandle.Instance = TIM6;
 8000f42:	4c0f      	ldr	r4, [pc, #60]	; (8000f80 <HAL_InitTick+0x8c>)
 8000f44:	4b0f      	ldr	r3, [pc, #60]	; (8000f84 <HAL_InitTick+0x90>)
 8000f46:	6023      	str	r3, [r4, #0]
  TimHandle.Init.Period = (1000000U / 1000U) - 1U;
 8000f48:	f240 33e7 	movw	r3, #999	; 0x3e7
 8000f4c:	60e3      	str	r3, [r4, #12]
  uwPrescalerValue = (uint32_t) ((uwTimclock / 1000000U) - 1U);
 8000f4e:	4b0e      	ldr	r3, [pc, #56]	; (8000f88 <HAL_InitTick+0x94>)
 8000f50:	fbb0 f0f3 	udiv	r0, r0, r3
 8000f54:	3801      	subs	r0, #1
  TimHandle.Init.ClockDivision = 0;
 8000f56:	2300      	movs	r3, #0
  TimHandle.Init.Prescaler = uwPrescalerValue;
 8000f58:	6060      	str	r0, [r4, #4]
  if(HAL_TIM_Base_Init(&TimHandle) == HAL_OK)
 8000f5a:	4620      	mov	r0, r4
  TimHandle.Init.ClockDivision = 0;
 8000f5c:	6123      	str	r3, [r4, #16]
  TimHandle.Init.CounterMode = TIM_COUNTERMODE_UP;
 8000f5e:	60a3      	str	r3, [r4, #8]
  if(HAL_TIM_Base_Init(&TimHandle) == HAL_OK)
 8000f60:	f002 fd54 	bl	8003a0c <HAL_TIM_Base_Init>
 8000f64:	2800      	cmp	r0, #0
 8000f66:	d1ca      	bne.n	8000efe <HAL_InitTick+0xa>
    return HAL_TIM_Base_Start_IT(&TimHandle);
 8000f68:	4620      	mov	r0, r4
 8000f6a:	f002 fc17 	bl	800379c <HAL_TIM_Base_Start_IT>
 8000f6e:	e7c7      	b.n	8000f00 <HAL_InitTick+0xc>
    uwTimclock = 2UL * HAL_RCC_GetPCLK1Freq();
 8000f70:	f002 fa62 	bl	8003438 <HAL_RCC_GetPCLK1Freq>
 8000f74:	0040      	lsls	r0, r0, #1
 8000f76:	e7e4      	b.n	8000f42 <HAL_InitTick+0x4e>
 8000f78:	24000020 	.word	0x24000020
 8000f7c:	58024400 	.word	0x58024400
 8000f80:	240000bc 	.word	0x240000bc
 8000f84:	40001000 	.word	0x40001000
 8000f88:	000f4240 	.word	0x000f4240

08000f8c <HAL_TIM_PeriodElapsedCallback>:
void HAL_TIM_PeriodElapsedCallback(TIM_HandleTypeDef *htim)
{
  /* Prevent unused argument(s) compilation warning */
  UNUSED(htim);

  HAL_IncTick();
 8000f8c:	f000 baf4 	b.w	8001578 <HAL_IncTick>

08000f90 <TIM6_DAC_IRQHandler>:
  * @param  None
  * @retval None
  */
void TIM6_DAC_IRQHandler(void)
{
  HAL_TIM_IRQHandler(&TimHandle);
 8000f90:	4801      	ldr	r0, [pc, #4]	; (8000f98 <TIM6_DAC_IRQHandler+0x8>)
 8000f92:	f002 bc25 	b.w	80037e0 <HAL_TIM_IRQHandler>
 8000f96:	bf00      	nop
 8000f98:	240000bc 	.word	0x240000bc

08000f9c <NMI_Handler>:
  * @param  None
  * @retval None
  */
void NMI_Handler(void)
{
}
 8000f9c:	4770      	bx	lr

08000f9e <HardFault_Handler>:
  * @retval None
  */
void HardFault_Handler(void)
{
  /* Go to infinite loop when Hard Fault exception occurs */
  while (1)
 8000f9e:	e7fe      	b.n	8000f9e <HardFault_Handler>

08000fa0 <MemManage_Handler>:
  * @retval None
  */
void MemManage_Handler(void)
{
  /* Go to infinite loop when Memory Manage exception occurs */
  while (1)
 8000fa0:	e7fe      	b.n	8000fa0 <MemManage_Handler>

08000fa2 <BusFault_Handler>:
  * @retval None
  */
void BusFault_Handler(void)
{
  /* Go to infinite loop when Bus Fault exception occurs */
  while (1)
 8000fa2:	e7fe      	b.n	8000fa2 <BusFault_Handler>

08000fa4 <UsageFault_Handler>:
  * @retval None
  */
void UsageFault_Handler(void)
{
  /* Go to infinite loop when Usage Fault exception occurs */
  while (1)
 8000fa4:	e7fe      	b.n	8000fa4 <UsageFault_Handler>

08000fa6 <DebugMon_Handler>:
 8000fa6:	4770      	bx	lr

08000fa8 <SysTick_Handler>:
  * @param  None
  * @retval None
  */
void SysTick_Handler(void)
{
  osSystickHandler();
 8000fa8:	f004 bc72 	b.w	8005890 <osSystickHandler>

08000fac <USART6_IRQHandler>:
  * @param  None
  * @retval None
  */
void USARTx_IRQHandler(void)
{
  HAL_UART_IRQHandler(&UartHandle_x);
 8000fac:	4801      	ldr	r0, [pc, #4]	; (8000fb4 <USART6_IRQHandler+0x8>)
 8000fae:	f002 be75 	b.w	8003c9c <HAL_UART_IRQHandler>
 8000fb2:	bf00      	nop
 8000fb4:	240069b0 	.word	0x240069b0

08000fb8 <ETH_IRQHandler>:
  * @param  None
  * @retval None
  */
void ETH_IRQHandler(void)
{
  HAL_ETH_IRQHandler(&EthHandle);
 8000fb8:	4801      	ldr	r0, [pc, #4]	; (8000fc0 <ETH_IRQHandler+0x8>)
 8000fba:	f001 b8fb 	b.w	80021b4 <HAL_ETH_IRQHandler>
 8000fbe:	bf00      	nop
 8000fc0:	240067ec 	.word	0x240067ec

08000fc4 <tcp_echoserver_error>:
  struct tcp_echoserver_struct *es;

  LWIP_UNUSED_ARG(err);

  es = (struct tcp_echoserver_struct *)arg;
  if (es != NULL)
 8000fc4:	b108      	cbz	r0, 8000fca <tcp_echoserver_error+0x6>
  {
    /*  free es structure */
    mem_free(es);
 8000fc6:	f006 ba35 	b.w	8007434 <mem_free>
  }
}
 8000fca:	4770      	bx	lr

08000fcc <tcp_echoserver_connection_close>:
  * @param  tcp_pcb: pointer on the tcp connection
  * @param  es: pointer on echo_state structure
  * @retval None
  */
static void tcp_echoserver_connection_close(struct tcp_pcb *tpcb, struct tcp_echoserver_struct *es)
{
 8000fcc:	b538      	push	{r3, r4, r5, lr}
 8000fce:	4604      	mov	r4, r0
 8000fd0:	460d      	mov	r5, r1
  
  /* remove all callbacks */
  tcp_arg(tpcb, NULL);
 8000fd2:	2100      	movs	r1, #0
 8000fd4:	f007 fbc8 	bl	8008768 <tcp_arg>
  tcp_sent(tpcb, NULL);
 8000fd8:	2100      	movs	r1, #0
 8000fda:	4620      	mov	r0, r4
 8000fdc:	f007 fbe0 	bl	80087a0 <tcp_sent>
  tcp_recv(tpcb, NULL);
 8000fe0:	2100      	movs	r1, #0
 8000fe2:	4620      	mov	r0, r4
 8000fe4:	f007 fbc4 	bl	8008770 <tcp_recv>
  tcp_err(tpcb, NULL);
 8000fe8:	2100      	movs	r1, #0
 8000fea:	4620      	mov	r0, r4
 8000fec:	f007 fbee 	bl	80087cc <tcp_err>
  tcp_poll(tpcb, NULL, 0);
 8000ff0:	2200      	movs	r2, #0
 8000ff2:	4620      	mov	r0, r4
 8000ff4:	4611      	mov	r1, r2
 8000ff6:	f007 fc07 	bl	8008808 <tcp_poll>
  
  /* delete es structure */
  if (es != NULL)
 8000ffa:	b115      	cbz	r5, 8001002 <tcp_echoserver_connection_close+0x36>
  {
    mem_free(es);
 8000ffc:	4628      	mov	r0, r5
 8000ffe:	f006 fa19 	bl	8007434 <mem_free>
  }  
  
  /* close tcp connection */
  tcp_close(tpcb);
 8001002:	4620      	mov	r0, r4
}
 8001004:	e8bd 4038 	ldmia.w	sp!, {r3, r4, r5, lr}
  tcp_close(tpcb);
 8001008:	f007 bf68 	b.w	8008edc <tcp_close>

0800100c <tcp_echoserver_accept>:
{
 800100c:	b538      	push	{r3, r4, r5, lr}
 800100e:	460c      	mov	r4, r1
  tcp_setprio(newpcb, TCP_PRIO_MIN);
 8001010:	2101      	movs	r1, #1
 8001012:	4620      	mov	r0, r4
 8001014:	f007 fb98 	bl	8008748 <tcp_setprio>
  es = (struct tcp_echoserver_struct *)mem_malloc(sizeof(struct tcp_echoserver_struct));
 8001018:	200c      	movs	r0, #12
 800101a:	f006 fb8f 	bl	800773c <mem_malloc>
  if (es != NULL)
 800101e:	4601      	mov	r1, r0
 8001020:	b1b0      	cbz	r0, 8001050 <tcp_echoserver_accept+0x44>
    es->state = ES_ACCEPTED;
 8001022:	2301      	movs	r3, #1
    es->p = NULL;
 8001024:	2500      	movs	r5, #0
    es->pcb = newpcb;
 8001026:	6044      	str	r4, [r0, #4]
    es->state = ES_ACCEPTED;
 8001028:	8003      	strh	r3, [r0, #0]
    es->p = NULL;
 800102a:	6085      	str	r5, [r0, #8]
    tcp_arg(newpcb, es);
 800102c:	4620      	mov	r0, r4
 800102e:	f007 fb9b 	bl	8008768 <tcp_arg>
    tcp_recv(newpcb, tcp_echoserver_recv);
 8001032:	490a      	ldr	r1, [pc, #40]	; (800105c <tcp_echoserver_accept+0x50>)
 8001034:	4620      	mov	r0, r4
 8001036:	f007 fb9b 	bl	8008770 <tcp_recv>
    tcp_err(newpcb, tcp_echoserver_error);
 800103a:	4909      	ldr	r1, [pc, #36]	; (8001060 <tcp_echoserver_accept+0x54>)
 800103c:	4620      	mov	r0, r4
 800103e:	f007 fbc5 	bl	80087cc <tcp_err>
    tcp_poll(newpcb, tcp_echoserver_poll, 0);
 8001042:	4620      	mov	r0, r4
 8001044:	462a      	mov	r2, r5
 8001046:	4907      	ldr	r1, [pc, #28]	; (8001064 <tcp_echoserver_accept+0x58>)
 8001048:	f007 fbde 	bl	8008808 <tcp_poll>
    ret_err = ERR_OK;
 800104c:	4628      	mov	r0, r5
}
 800104e:	bd38      	pop	{r3, r4, r5, pc}
    tcp_echoserver_connection_close(newpcb, es);
 8001050:	4620      	mov	r0, r4
 8001052:	f7ff ffbb 	bl	8000fcc <tcp_echoserver_connection_close>
    ret_err = ERR_MEM;
 8001056:	f04f 30ff 	mov.w	r0, #4294967295
 800105a:	e7f8      	b.n	800104e <tcp_echoserver_accept+0x42>
 800105c:	08001145 	.word	0x08001145
 8001060:	08000fc5 	.word	0x08000fc5
 8001064:	080010c9 	.word	0x080010c9

08001068 <tcp_echoserver_send.isra.0>:
static void tcp_echoserver_send(struct tcp_pcb *tpcb, struct tcp_echoserver_struct *es)
 8001068:	e92d 41f0 	stmdb	sp!, {r4, r5, r6, r7, r8, lr}
 800106c:	4605      	mov	r5, r0
 800106e:	460e      	mov	r6, r1
    HAL_UART_Transmit_IT(&UartHandle_x, ptr->payload, ptr->len);
 8001070:	f8df 8050 	ldr.w	r8, [pc, #80]	; 80010c4 <tcp_echoserver_send.isra.0+0x5c>
         (es->p != NULL) && 
 8001074:	6834      	ldr	r4, [r6, #0]
  while ((wr_err == ERR_OK) &&
 8001076:	b31c      	cbz	r4, 80010c0 <tcp_echoserver_send.isra.0+0x58>
         (es->p->len <= tcp_sndbuf(tpcb)))
 8001078:	8962      	ldrh	r2, [r4, #10]
         (es->p != NULL) && 
 800107a:	f8b5 3064 	ldrh.w	r3, [r5, #100]	; 0x64
 800107e:	4293      	cmp	r3, r2
 8001080:	d31e      	bcc.n	80010c0 <tcp_echoserver_send.isra.0+0x58>
    wr_err = tcp_write(tpcb, ptr->payload, ptr->len, 1);
 8001082:	6861      	ldr	r1, [r4, #4]
 8001084:	2301      	movs	r3, #1
 8001086:	4628      	mov	r0, r5
 8001088:	f009 fb66 	bl	800a758 <tcp_write>
 800108c:	4607      	mov	r7, r0
    HAL_UART_Transmit_IT(&UartHandle_x, ptr->payload, ptr->len);
 800108e:	8962      	ldrh	r2, [r4, #10]
 8001090:	4640      	mov	r0, r8
 8001092:	6861      	ldr	r1, [r4, #4]
 8001094:	f002 fdaa 	bl	8003bec <HAL_UART_Transmit_IT>
    if (wr_err == ERR_OK)
 8001098:	b97f      	cbnz	r7, 80010ba <tcp_echoserver_send.isra.0+0x52>
      es->p = ptr->next;
 800109a:	6820      	ldr	r0, [r4, #0]
      plen = ptr->len;
 800109c:	8967      	ldrh	r7, [r4, #10]
      es->p = ptr->next;
 800109e:	6030      	str	r0, [r6, #0]
      if(es->p != NULL)
 80010a0:	b108      	cbz	r0, 80010a6 <tcp_echoserver_send.isra.0+0x3e>
        pbuf_ref(es->p);
 80010a2:	f007 f845 	bl	8008130 <pbuf_ref>
        freed = pbuf_free(ptr);
 80010a6:	4620      	mov	r0, r4
 80010a8:	f006 ff00 	bl	8007eac <pbuf_free>
      while(freed == 0);
 80010ac:	2800      	cmp	r0, #0
 80010ae:	d0fa      	beq.n	80010a6 <tcp_echoserver_send.isra.0+0x3e>
     tcp_recved(tpcb, plen);
 80010b0:	4639      	mov	r1, r7
 80010b2:	4628      	mov	r0, r5
 80010b4:	f007 faf4 	bl	80086a0 <tcp_recved>
  while ((wr_err == ERR_OK) &&
 80010b8:	e7dc      	b.n	8001074 <tcp_echoserver_send.isra.0+0xc>
   else if(wr_err == ERR_MEM)
 80010ba:	3701      	adds	r7, #1
 80010bc:	d100      	bne.n	80010c0 <tcp_echoserver_send.isra.0+0x58>
     es->p = ptr;
 80010be:	6034      	str	r4, [r6, #0]
}
 80010c0:	e8bd 81f0 	ldmia.w	sp!, {r4, r5, r6, r7, r8, pc}
 80010c4:	240069b0 	.word	0x240069b0

080010c8 <tcp_echoserver_poll>:
{
 80010c8:	b537      	push	{r0, r1, r2, r4, r5, lr}
 80010ca:	4605      	mov	r5, r0
 80010cc:	4608      	mov	r0, r1
  if (es != NULL)
 80010ce:	b1a5      	cbz	r5, 80010fa <tcp_echoserver_poll+0x32>
    if (es->p != NULL)
 80010d0:	68ac      	ldr	r4, [r5, #8]
 80010d2:	b15c      	cbz	r4, 80010ec <tcp_echoserver_poll+0x24>
      tcp_sent(tpcb, tcp_echoserver_sent);
 80010d4:	490c      	ldr	r1, [pc, #48]	; (8001108 <tcp_echoserver_poll+0x40>)
 80010d6:	9001      	str	r0, [sp, #4]
 80010d8:	f007 fb62 	bl	80087a0 <tcp_sent>
      tcp_echoserver_send(tpcb, es);
 80010dc:	f105 0108 	add.w	r1, r5, #8
 80010e0:	9801      	ldr	r0, [sp, #4]
 80010e2:	f7ff ffc1 	bl	8001068 <tcp_echoserver_send.isra.0>
    ret_err = ERR_OK;
 80010e6:	2000      	movs	r0, #0
}
 80010e8:	b003      	add	sp, #12
 80010ea:	bd30      	pop	{r4, r5, pc}
      if(es->state == ES_CLOSING)
 80010ec:	782b      	ldrb	r3, [r5, #0]
 80010ee:	2b03      	cmp	r3, #3
 80010f0:	d108      	bne.n	8001104 <tcp_echoserver_poll+0x3c>
        tcp_echoserver_connection_close(tpcb, es);
 80010f2:	4629      	mov	r1, r5
 80010f4:	f7ff ff6a 	bl	8000fcc <tcp_echoserver_connection_close>
 80010f8:	e7f5      	b.n	80010e6 <tcp_echoserver_poll+0x1e>
    tcp_abort(tpcb);
 80010fa:	f008 f847 	bl	800918c <tcp_abort>
    ret_err = ERR_ABRT;
 80010fe:	f06f 000c 	mvn.w	r0, #12
 8001102:	e7f1      	b.n	80010e8 <tcp_echoserver_poll+0x20>
 8001104:	4620      	mov	r0, r4
 8001106:	e7ef      	b.n	80010e8 <tcp_echoserver_poll+0x20>
 8001108:	0800110d 	.word	0x0800110d

0800110c <tcp_echoserver_sent>:
  es->retries = 0;
 800110c:	2300      	movs	r3, #0
{
 800110e:	b513      	push	{r0, r1, r4, lr}
 8001110:	4604      	mov	r4, r0
 8001112:	4608      	mov	r0, r1
  es->retries = 0;
 8001114:	7063      	strb	r3, [r4, #1]
  if(es->p != NULL)
 8001116:	68a3      	ldr	r3, [r4, #8]
 8001118:	b15b      	cbz	r3, 8001132 <tcp_echoserver_sent+0x26>
    tcp_sent(tpcb, tcp_echoserver_sent);
 800111a:	4909      	ldr	r1, [pc, #36]	; (8001140 <tcp_echoserver_sent+0x34>)
 800111c:	9001      	str	r0, [sp, #4]
 800111e:	f007 fb3f 	bl	80087a0 <tcp_sent>
    tcp_echoserver_send(tpcb, es);
 8001122:	f104 0108 	add.w	r1, r4, #8
 8001126:	9801      	ldr	r0, [sp, #4]
 8001128:	f7ff ff9e 	bl	8001068 <tcp_echoserver_send.isra.0>
}
 800112c:	2000      	movs	r0, #0
 800112e:	b002      	add	sp, #8
 8001130:	bd10      	pop	{r4, pc}
    if(es->state == ES_CLOSING)
 8001132:	7823      	ldrb	r3, [r4, #0]
 8001134:	2b03      	cmp	r3, #3
 8001136:	d1f9      	bne.n	800112c <tcp_echoserver_sent+0x20>
      tcp_echoserver_connection_close(tpcb, es);
 8001138:	4621      	mov	r1, r4
 800113a:	f7ff ff47 	bl	8000fcc <tcp_echoserver_connection_close>
 800113e:	e7f5      	b.n	800112c <tcp_echoserver_sent+0x20>
 8001140:	0800110d 	.word	0x0800110d

08001144 <tcp_echoserver_recv>:
{
 8001144:	b5f8      	push	{r3, r4, r5, r6, r7, lr}
 8001146:	460e      	mov	r6, r1
 8001148:	4615      	mov	r5, r2
 800114a:	461f      	mov	r7, r3
  LWIP_ASSERT("arg != NULL",arg != NULL);
 800114c:	4604      	mov	r4, r0
 800114e:	b928      	cbnz	r0, 800115c <tcp_echoserver_recv+0x18>
 8001150:	4b22      	ldr	r3, [pc, #136]	; (80011dc <tcp_echoserver_recv+0x98>)
 8001152:	22d3      	movs	r2, #211	; 0xd3
 8001154:	4922      	ldr	r1, [pc, #136]	; (80011e0 <tcp_echoserver_recv+0x9c>)
 8001156:	4823      	ldr	r0, [pc, #140]	; (80011e4 <tcp_echoserver_recv+0xa0>)
 8001158:	f00a fdfe 	bl	800bd58 <iprintf>
  if (p == NULL)
 800115c:	b9a5      	cbnz	r5, 8001188 <tcp_echoserver_recv+0x44>
    es->state = ES_CLOSING;
 800115e:	2303      	movs	r3, #3
 8001160:	7023      	strb	r3, [r4, #0]
    if(es->p == NULL)
 8001162:	68a3      	ldr	r3, [r4, #8]
 8001164:	b933      	cbnz	r3, 8001174 <tcp_echoserver_recv+0x30>
       tcp_echoserver_connection_close(tpcb, es);
 8001166:	4621      	mov	r1, r4
 8001168:	4630      	mov	r0, r6
 800116a:	f7ff ff2f 	bl	8000fcc <tcp_echoserver_connection_close>
    ret_err = ERR_OK;
 800116e:	462f      	mov	r7, r5
}
 8001170:	4638      	mov	r0, r7
 8001172:	bdf8      	pop	{r3, r4, r5, r6, r7, pc}
      tcp_sent(tpcb, tcp_echoserver_sent);
 8001174:	4630      	mov	r0, r6
 8001176:	491c      	ldr	r1, [pc, #112]	; (80011e8 <tcp_echoserver_recv+0xa4>)
 8001178:	f007 fb12 	bl	80087a0 <tcp_sent>
      tcp_echoserver_send(tpcb, es);
 800117c:	f104 0108 	add.w	r1, r4, #8
 8001180:	4630      	mov	r0, r6
 8001182:	f7ff ff71 	bl	8001068 <tcp_echoserver_send.isra.0>
 8001186:	e7f2      	b.n	800116e <tcp_echoserver_recv+0x2a>
  else if(err != ERR_OK)
 8001188:	b12f      	cbz	r7, 8001196 <tcp_echoserver_recv+0x52>
      es->p = NULL;
 800118a:	2300      	movs	r3, #0
 800118c:	60a3      	str	r3, [r4, #8]
    pbuf_free(p);
 800118e:	4628      	mov	r0, r5
 8001190:	f006 fe8c 	bl	8007eac <pbuf_free>
    ret_err = ERR_OK;
 8001194:	e7ec      	b.n	8001170 <tcp_echoserver_recv+0x2c>
  else if(es->state == ES_ACCEPTED)
 8001196:	7823      	ldrb	r3, [r4, #0]
 8001198:	2b01      	cmp	r3, #1
 800119a:	d10c      	bne.n	80011b6 <tcp_echoserver_recv+0x72>
    es->state = ES_RECEIVED;
 800119c:	2302      	movs	r3, #2
    tcp_sent(tpcb, tcp_echoserver_sent);
 800119e:	4912      	ldr	r1, [pc, #72]	; (80011e8 <tcp_echoserver_recv+0xa4>)
 80011a0:	4630      	mov	r0, r6
    es->state = ES_RECEIVED;
 80011a2:	7023      	strb	r3, [r4, #0]
    es->p = p;
 80011a4:	f844 5f08 	str.w	r5, [r4, #8]!
    tcp_sent(tpcb, tcp_echoserver_sent);
 80011a8:	f007 fafa 	bl	80087a0 <tcp_sent>
    tcp_echoserver_send(tpcb, es);
 80011ac:	4621      	mov	r1, r4
      tcp_echoserver_send(tpcb, es);
 80011ae:	4630      	mov	r0, r6
 80011b0:	f7ff ff5a 	bl	8001068 <tcp_echoserver_send.isra.0>
 80011b4:	e7dc      	b.n	8001170 <tcp_echoserver_recv+0x2c>
  else if (es->state == ES_RECEIVED)
 80011b6:	2b02      	cmp	r3, #2
 80011b8:	d109      	bne.n	80011ce <tcp_echoserver_recv+0x8a>
    if(es->p == NULL)
 80011ba:	68a0      	ldr	r0, [r4, #8]
 80011bc:	b918      	cbnz	r0, 80011c6 <tcp_echoserver_recv+0x82>
      es->p = p;
 80011be:	4621      	mov	r1, r4
 80011c0:	f841 5f08 	str.w	r5, [r1, #8]!
 80011c4:	e7f3      	b.n	80011ae <tcp_echoserver_recv+0x6a>
      pbuf_chain(ptr,p);
 80011c6:	4629      	mov	r1, r5
 80011c8:	f007 f808 	bl	80081dc <pbuf_chain>
 80011cc:	e7d0      	b.n	8001170 <tcp_echoserver_recv+0x2c>
    tcp_recved(tpcb, p->tot_len);
 80011ce:	8929      	ldrh	r1, [r5, #8]
 80011d0:	4630      	mov	r0, r6
 80011d2:	f007 fa65 	bl	80086a0 <tcp_recved>
    es->p = NULL;
 80011d6:	60a7      	str	r7, [r4, #8]
 80011d8:	e7d9      	b.n	800118e <tcp_echoserver_recv+0x4a>
 80011da:	bf00      	nop
 80011dc:	0800d140 	.word	0x0800d140
 80011e0:	0800d1c2 	.word	0x0800d1c2
 80011e4:	0800d10a 	.word	0x0800d10a
 80011e8:	0800110d 	.word	0x0800110d

080011ec <tcp_echoserver_init>:
{
 80011ec:	b510      	push	{r4, lr}
  tcp_echoserver_pcb = tcp_new();
 80011ee:	4c0d      	ldr	r4, [pc, #52]	; (8001224 <tcp_echoserver_init+0x38>)
 80011f0:	f008 f8bc 	bl	800936c <tcp_new>
 80011f4:	6020      	str	r0, [r4, #0]
  if (tcp_echoserver_pcb != NULL)
 80011f6:	b1a0      	cbz	r0, 8001222 <tcp_echoserver_init+0x36>
    err = tcp_bind(tcp_echoserver_pcb, IP_ADDR_ANY, 7);
 80011f8:	2207      	movs	r2, #7
 80011fa:	490b      	ldr	r1, [pc, #44]	; (8001228 <tcp_echoserver_init+0x3c>)
 80011fc:	f007 f95a 	bl	80084b4 <tcp_bind>
    if (err == ERR_OK)
 8001200:	b948      	cbnz	r0, 8001216 <tcp_echoserver_init+0x2a>
      tcp_echoserver_pcb = tcp_listen(tcp_echoserver_pcb);
 8001202:	21ff      	movs	r1, #255	; 0xff
 8001204:	6820      	ldr	r0, [r4, #0]
 8001206:	f007 fa11 	bl	800862c <tcp_listen_with_backlog>
      tcp_accept(tcp_echoserver_pcb, tcp_echoserver_accept);
 800120a:	4908      	ldr	r1, [pc, #32]	; (800122c <tcp_echoserver_init+0x40>)
      tcp_echoserver_pcb = tcp_listen(tcp_echoserver_pcb);
 800120c:	6020      	str	r0, [r4, #0]
}
 800120e:	e8bd 4010 	ldmia.w	sp!, {r4, lr}
      tcp_accept(tcp_echoserver_pcb, tcp_echoserver_accept);
 8001212:	f007 baf3 	b.w	80087fc <tcp_accept>
      memp_free(MEMP_TCP_PCB, tcp_echoserver_pcb);
 8001216:	6821      	ldr	r1, [r4, #0]
 8001218:	2001      	movs	r0, #1
}
 800121a:	e8bd 4010 	ldmia.w	sp!, {r4, lr}
      memp_free(MEMP_TCP_PCB, tcp_echoserver_pcb);
 800121e:	f006 bbdb 	b.w	80079d8 <memp_free>
}
 8001222:	bd10      	pop	{r4, pc}
 8001224:	24000108 	.word	0x24000108
 8001228:	0800cf28 	.word	0x0800cf28
 800122c:	0800100d 	.word	0x0800100d

08001230 <LAN8742_RegisterBusIO>:
  * @param  ioctx: holds device IO functions.  
  * @retval LAN8742_STATUS_OK  if OK
  *         LAN8742_STATUS_ERROR if missing mandatory function
  */
int32_t  LAN8742_RegisterBusIO(lan8742_Object_t *pObj, lan8742_IOCtx_t *ioctx)
{
 8001230:	b530      	push	{r4, r5, lr}
  if(!pObj || !ioctx->ReadReg || !ioctx->WriteReg || !ioctx->GetTick)
 8001232:	b170      	cbz	r0, 8001252 <LAN8742_RegisterBusIO+0x22>
 8001234:	68cc      	ldr	r4, [r1, #12]
 8001236:	b164      	cbz	r4, 8001252 <LAN8742_RegisterBusIO+0x22>
 8001238:	688a      	ldr	r2, [r1, #8]
 800123a:	b152      	cbz	r2, 8001252 <LAN8742_RegisterBusIO+0x22>
 800123c:	690b      	ldr	r3, [r1, #16]
 800123e:	b143      	cbz	r3, 8001252 <LAN8742_RegisterBusIO+0x22>
  {
    return LAN8742_STATUS_ERROR;
  }
  
  pObj->IO.Init = ioctx->Init;
 8001240:	680d      	ldr	r5, [r1, #0]
  pObj->IO.DeInit = ioctx->DeInit;
 8001242:	6849      	ldr	r1, [r1, #4]
  pObj->IO.Init = ioctx->Init;
 8001244:	6085      	str	r5, [r0, #8]
  pObj->IO.DeInit = ioctx->DeInit;
 8001246:	60c1      	str	r1, [r0, #12]
  pObj->IO.ReadReg = ioctx->ReadReg;
  pObj->IO.WriteReg = ioctx->WriteReg;
  pObj->IO.GetTick = ioctx->GetTick;
 8001248:	6183      	str	r3, [r0, #24]
  pObj->IO.WriteReg = ioctx->WriteReg;
 800124a:	e9c0 2404 	strd	r2, r4, [r0, #16]
  
  return LAN8742_STATUS_OK;
 800124e:	2000      	movs	r0, #0
}
 8001250:	bd30      	pop	{r4, r5, pc}
    return LAN8742_STATUS_ERROR;
 8001252:	f04f 30ff 	mov.w	r0, #4294967295
 8001256:	e7fb      	b.n	8001250 <LAN8742_RegisterBusIO+0x20>

08001258 <LAN8742_Init>:
  *         LAN8742_STATUS_READ_ERROR if connot read register
  *         LAN8742_STATUS_WRITE_ERROR if connot write to register
  *         LAN8742_STATUS_RESET_TIMEOUT if cannot perform a software reset
  */
 int32_t LAN8742_Init(lan8742_Object_t *pObj)
 {
 8001258:	b573      	push	{r0, r1, r4, r5, r6, lr}
   uint32_t tickstart = 0, regvalue = 0, addr = 0;
 800125a:	2300      	movs	r3, #0
   int32_t status = LAN8742_STATUS_OK;
   
   if(pObj->Is_Initialized == 0)
 800125c:	6846      	ldr	r6, [r0, #4]
 {
 800125e:	4604      	mov	r4, r0
   uint32_t tickstart = 0, regvalue = 0, addr = 0;
 8001260:	9301      	str	r3, [sp, #4]
   if(pObj->Is_Initialized == 0)
 8001262:	b166      	cbz	r6, 800127e <LAN8742_Init+0x26>
     }
   }
      
   if(status == LAN8742_STATUS_OK)
   {
     tickstart =  pObj->IO.GetTick();
 8001264:	69a3      	ldr	r3, [r4, #24]
 8001266:	4798      	blx	r3
 8001268:	4605      	mov	r5, r0
     
     /* Wait for 2s to perform initialization */
     while((pObj->IO.GetTick() - tickstart) <= LAN8742_INIT_TO)
 800126a:	69a3      	ldr	r3, [r4, #24]
 800126c:	4798      	blx	r3
 800126e:	1b43      	subs	r3, r0, r5
 8001270:	f5b3 6ffa 	cmp.w	r3, #2000	; 0x7d0
 8001274:	d9f9      	bls.n	800126a <LAN8742_Init+0x12>
     {
     }
     pObj->Is_Initialized = 1;
 8001276:	2301      	movs	r3, #1
 8001278:	2500      	movs	r5, #0
 800127a:	6063      	str	r3, [r4, #4]
 800127c:	e027      	b.n	80012ce <LAN8742_Init+0x76>
     if(pObj->IO.Init != 0)
 800127e:	6883      	ldr	r3, [r0, #8]
 8001280:	b103      	cbz	r3, 8001284 <LAN8742_Init+0x2c>
       pObj->IO.Init();
 8001282:	4798      	blx	r3
     pObj->DevAddr = LAN8742_MAX_DEV_ADDR + 1;
 8001284:	2320      	movs	r3, #32
   int32_t status = LAN8742_STATUS_OK;
 8001286:	2500      	movs	r5, #0
     pObj->DevAddr = LAN8742_MAX_DEV_ADDR + 1;
 8001288:	6023      	str	r3, [r4, #0]
       if(pObj->IO.ReadReg(addr, LAN8742_SMR, &regvalue) < 0)
 800128a:	6963      	ldr	r3, [r4, #20]
 800128c:	aa01      	add	r2, sp, #4
 800128e:	2112      	movs	r1, #18
 8001290:	4630      	mov	r0, r6
 8001292:	4798      	blx	r3
 8001294:	2800      	cmp	r0, #0
 8001296:	db1d      	blt.n	80012d4 <LAN8742_Init+0x7c>
       if((regvalue & LAN8742_SMR_PHY_ADDR) == addr)
 8001298:	9b01      	ldr	r3, [sp, #4]
 800129a:	f003 031f 	and.w	r3, r3, #31
 800129e:	42b3      	cmp	r3, r6
 80012a0:	d11a      	bne.n	80012d8 <LAN8742_Init+0x80>
         status = LAN8742_STATUS_OK;
 80012a2:	2500      	movs	r5, #0
         pObj->DevAddr = addr;
 80012a4:	6026      	str	r6, [r4, #0]
     if(pObj->DevAddr > LAN8742_MAX_DEV_ADDR)
 80012a6:	6820      	ldr	r0, [r4, #0]
 80012a8:	281f      	cmp	r0, #31
 80012aa:	d82d      	bhi.n	8001308 <LAN8742_Init+0xb0>
     if(status == LAN8742_STATUS_OK)
 80012ac:	b97d      	cbnz	r5, 80012ce <LAN8742_Init+0x76>
       if(pObj->IO.WriteReg(pObj->DevAddr, LAN8742_BCR, LAN8742_BCR_SOFT_RESET) >= 0)
 80012ae:	6923      	ldr	r3, [r4, #16]
 80012b0:	f44f 4200 	mov.w	r2, #32768	; 0x8000
 80012b4:	4629      	mov	r1, r5
 80012b6:	4798      	blx	r3
 80012b8:	2800      	cmp	r0, #0
 80012ba:	db28      	blt.n	800130e <LAN8742_Init+0xb6>
         if(pObj->IO.ReadReg(pObj->DevAddr, LAN8742_BCR, &regvalue) >= 0)
 80012bc:	6963      	ldr	r3, [r4, #20]
 80012be:	aa01      	add	r2, sp, #4
 80012c0:	4629      	mov	r1, r5
 80012c2:	6820      	ldr	r0, [r4, #0]
 80012c4:	4798      	blx	r3
 80012c6:	2800      	cmp	r0, #0
 80012c8:	da0a      	bge.n	80012e0 <LAN8742_Init+0x88>
           status = LAN8742_STATUS_READ_ERROR;
 80012ca:	f06f 0504 	mvn.w	r5, #4
   }
   
   return status;
 }
 80012ce:	4628      	mov	r0, r5
 80012d0:	b002      	add	sp, #8
 80012d2:	bd70      	pop	{r4, r5, r6, pc}
         status = LAN8742_STATUS_READ_ERROR;
 80012d4:	f06f 0504 	mvn.w	r5, #4
     for(addr = 0; addr <= LAN8742_MAX_DEV_ADDR; addr ++)
 80012d8:	3601      	adds	r6, #1
 80012da:	2e20      	cmp	r6, #32
 80012dc:	d1d5      	bne.n	800128a <LAN8742_Init+0x32>
 80012de:	e7e2      	b.n	80012a6 <LAN8742_Init+0x4e>
           tickstart = pObj->IO.GetTick();
 80012e0:	69a3      	ldr	r3, [r4, #24]
 80012e2:	4798      	blx	r3
 80012e4:	4605      	mov	r5, r0
           while(regvalue & LAN8742_BCR_SOFT_RESET)
 80012e6:	9b01      	ldr	r3, [sp, #4]
 80012e8:	69a2      	ldr	r2, [r4, #24]
 80012ea:	041b      	lsls	r3, r3, #16
 80012ec:	d5ba      	bpl.n	8001264 <LAN8742_Init+0xc>
             if((pObj->IO.GetTick() - tickstart) <= LAN8742_SW_RESET_TO)
 80012ee:	4790      	blx	r2
 80012f0:	1b40      	subs	r0, r0, r5
 80012f2:	f5b0 7ffa 	cmp.w	r0, #500	; 0x1f4
 80012f6:	d80d      	bhi.n	8001314 <LAN8742_Init+0xbc>
               if(pObj->IO.ReadReg(pObj->DevAddr, LAN8742_BCR, &regvalue) < 0)
 80012f8:	6963      	ldr	r3, [r4, #20]
 80012fa:	aa01      	add	r2, sp, #4
 80012fc:	2100      	movs	r1, #0
 80012fe:	6820      	ldr	r0, [r4, #0]
 8001300:	4798      	blx	r3
 8001302:	2800      	cmp	r0, #0
 8001304:	daef      	bge.n	80012e6 <LAN8742_Init+0x8e>
 8001306:	e7e0      	b.n	80012ca <LAN8742_Init+0x72>
       status = LAN8742_STATUS_ADDRESS_ERROR;
 8001308:	f06f 0502 	mvn.w	r5, #2
 800130c:	e7df      	b.n	80012ce <LAN8742_Init+0x76>
         status = LAN8742_STATUS_WRITE_ERROR;
 800130e:	f06f 0503 	mvn.w	r5, #3
 8001312:	e7dc      	b.n	80012ce <LAN8742_Init+0x76>
               status = LAN8742_STATUS_RESET_TIMEOUT;
 8001314:	f06f 0501 	mvn.w	r5, #1
   return status;
 8001318:	e7d9      	b.n	80012ce <LAN8742_Init+0x76>

0800131a <LAN8742_GetLinkState>:
  *         LAN8742_STATUS_10MBITS_HALFDUPLEX  if 10Mb/s HD       
  *         LAN8742_STATUS_READ_ERROR if connot read register
  *         LAN8742_STATUS_WRITE_ERROR if connot write to register
  */
int32_t LAN8742_GetLinkState(lan8742_Object_t *pObj)
{
 800131a:	b537      	push	{r0, r1, r2, r4, r5, lr}
  uint32_t readval = 0;
 800131c:	2500      	movs	r5, #0
  
  /* Read Status register  */
  if(pObj->IO.ReadReg(pObj->DevAddr, LAN8742_BSR, &readval) < 0)
 800131e:	6943      	ldr	r3, [r0, #20]
{
 8001320:	4604      	mov	r4, r0
  if(pObj->IO.ReadReg(pObj->DevAddr, LAN8742_BSR, &readval) < 0)
 8001322:	aa01      	add	r2, sp, #4
 8001324:	2101      	movs	r1, #1
 8001326:	6800      	ldr	r0, [r0, #0]
  uint32_t readval = 0;
 8001328:	9501      	str	r5, [sp, #4]
  if(pObj->IO.ReadReg(pObj->DevAddr, LAN8742_BSR, &readval) < 0)
 800132a:	4798      	blx	r3
 800132c:	42a8      	cmp	r0, r5
 800132e:	da03      	bge.n	8001338 <LAN8742_GetLinkState+0x1e>
  {
    return LAN8742_STATUS_READ_ERROR;
 8001330:	f06f 0004 	mvn.w	r0, #4
    else
    {
      return LAN8742_STATUS_10MBITS_HALFDUPLEX;
    }				
  }
}
 8001334:	b003      	add	sp, #12
 8001336:	bd30      	pop	{r4, r5, pc}
  if(pObj->IO.ReadReg(pObj->DevAddr, LAN8742_BSR, &readval) < 0)
 8001338:	6963      	ldr	r3, [r4, #20]
 800133a:	aa01      	add	r2, sp, #4
 800133c:	2101      	movs	r1, #1
 800133e:	6820      	ldr	r0, [r4, #0]
 8001340:	4798      	blx	r3
 8001342:	2800      	cmp	r0, #0
 8001344:	dbf4      	blt.n	8001330 <LAN8742_GetLinkState+0x16>
  if((readval & LAN8742_BSR_LINK_STATUS) == 0)
 8001346:	9b01      	ldr	r3, [sp, #4]
 8001348:	075b      	lsls	r3, r3, #29
 800134a:	d52c      	bpl.n	80013a6 <LAN8742_GetLinkState+0x8c>
  if(pObj->IO.ReadReg(pObj->DevAddr, LAN8742_BCR, &readval) < 0)
 800134c:	6963      	ldr	r3, [r4, #20]
 800134e:	aa01      	add	r2, sp, #4
 8001350:	4629      	mov	r1, r5
 8001352:	6820      	ldr	r0, [r4, #0]
 8001354:	4798      	blx	r3
 8001356:	2800      	cmp	r0, #0
 8001358:	dbea      	blt.n	8001330 <LAN8742_GetLinkState+0x16>
  if((readval & LAN8742_BCR_AUTONEGO_EN) != LAN8742_BCR_AUTONEGO_EN)
 800135a:	9b01      	ldr	r3, [sp, #4]
 800135c:	04dd      	lsls	r5, r3, #19
 800135e:	d40e      	bmi.n	800137e <LAN8742_GetLinkState+0x64>
    if(((readval & LAN8742_BCR_SPEED_SELECT) == LAN8742_BCR_SPEED_SELECT) && ((readval & LAN8742_BCR_DUPLEX_MODE) == LAN8742_BCR_DUPLEX_MODE)) 
 8001360:	f403 5204 	and.w	r2, r3, #8448	; 0x2100
 8001364:	f5b2 5f04 	cmp.w	r2, #8448	; 0x2100
 8001368:	d101      	bne.n	800136e <LAN8742_GetLinkState+0x54>
      return LAN8742_STATUS_100MBITS_FULLDUPLEX;
 800136a:	2002      	movs	r0, #2
 800136c:	e7e2      	b.n	8001334 <LAN8742_GetLinkState+0x1a>
    else if ((readval & LAN8742_BCR_SPEED_SELECT) == LAN8742_BCR_SPEED_SELECT)
 800136e:	0498      	lsls	r0, r3, #18
 8001370:	d501      	bpl.n	8001376 <LAN8742_GetLinkState+0x5c>
      return LAN8742_STATUS_100MBITS_HALFDUPLEX;
 8001372:	2003      	movs	r0, #3
 8001374:	e7de      	b.n	8001334 <LAN8742_GetLinkState+0x1a>
    else if ((readval & LAN8742_BCR_DUPLEX_MODE) == LAN8742_BCR_DUPLEX_MODE)
 8001376:	05d9      	lsls	r1, r3, #23
 8001378:	d513      	bpl.n	80013a2 <LAN8742_GetLinkState+0x88>
      return LAN8742_STATUS_10MBITS_FULLDUPLEX;
 800137a:	2004      	movs	r0, #4
 800137c:	e7da      	b.n	8001334 <LAN8742_GetLinkState+0x1a>
    if(pObj->IO.ReadReg(pObj->DevAddr, LAN8742_PHYSCSR, &readval) < 0)
 800137e:	6963      	ldr	r3, [r4, #20]
 8001380:	aa01      	add	r2, sp, #4
 8001382:	211f      	movs	r1, #31
 8001384:	6820      	ldr	r0, [r4, #0]
 8001386:	4798      	blx	r3
 8001388:	2800      	cmp	r0, #0
 800138a:	dbd1      	blt.n	8001330 <LAN8742_GetLinkState+0x16>
    if((readval & LAN8742_PHYSCSR_AUTONEGO_DONE) == 0)
 800138c:	9b01      	ldr	r3, [sp, #4]
 800138e:	04da      	lsls	r2, r3, #19
 8001390:	d50b      	bpl.n	80013aa <LAN8742_GetLinkState+0x90>
    if((readval & LAN8742_PHYSCSR_HCDSPEEDMASK) == LAN8742_PHYSCSR_100BTX_FD)
 8001392:	f003 031c 	and.w	r3, r3, #28
 8001396:	2b18      	cmp	r3, #24
 8001398:	d0e7      	beq.n	800136a <LAN8742_GetLinkState+0x50>
    else if ((readval & LAN8742_PHYSCSR_HCDSPEEDMASK) == LAN8742_PHYSCSR_100BTX_HD)
 800139a:	2b08      	cmp	r3, #8
 800139c:	d0e9      	beq.n	8001372 <LAN8742_GetLinkState+0x58>
    else if ((readval & LAN8742_PHYSCSR_HCDSPEEDMASK) == LAN8742_PHYSCSR_10BT_FD)
 800139e:	2b14      	cmp	r3, #20
 80013a0:	d0eb      	beq.n	800137a <LAN8742_GetLinkState+0x60>
      return LAN8742_STATUS_10MBITS_HALFDUPLEX;
 80013a2:	2005      	movs	r0, #5
 80013a4:	e7c6      	b.n	8001334 <LAN8742_GetLinkState+0x1a>
    return LAN8742_STATUS_LINK_DOWN;    
 80013a6:	2001      	movs	r0, #1
 80013a8:	e7c4      	b.n	8001334 <LAN8742_GetLinkState+0x1a>
      return LAN8742_STATUS_AUTONEGO_NOTDONE;
 80013aa:	2006      	movs	r0, #6
 80013ac:	e7c2      	b.n	8001334 <LAN8742_GetLinkState+0x1a>
	...

080013b0 <BSP_LED_Init>:
int32_t BSP_LED_Init(Led_TypeDef Led)
{
  int32_t ret = BSP_ERROR_NONE;
  GPIO_InitTypeDef  gpio_init_structure;

  if((Led != LED1) && (Led != LED2) && (Led != LED3))
 80013b0:	2802      	cmp	r0, #2
{
 80013b2:	b530      	push	{r4, r5, lr}
 80013b4:	b08b      	sub	sp, #44	; 0x2c
  if((Led != LED1) && (Led != LED2) && (Led != LED3))
 80013b6:	d83e      	bhi.n	8001436 <BSP_LED_Init+0x86>
    ret = BSP_ERROR_WRONG_PARAM;
  }
  else
  {
    /* Enable the GPIO LED Clock */
    if(Led == LED1)
 80013b8:	4b20      	ldr	r3, [pc, #128]	; (800143c <BSP_LED_Init+0x8c>)
    {
      LED1_GPIO_CLK_ENABLE();
 80013ba:	f8d3 20e0 	ldr.w	r2, [r3, #224]	; 0xe0
    if(Led == LED1)
 80013be:	bb10      	cbnz	r0, 8001406 <BSP_LED_Init+0x56>
      LED1_GPIO_CLK_ENABLE();
 80013c0:	f042 0202 	orr.w	r2, r2, #2
 80013c4:	f8c3 20e0 	str.w	r2, [r3, #224]	; 0xe0
 80013c8:	f8d3 30e0 	ldr.w	r3, [r3, #224]	; 0xe0
 80013cc:	f003 0302 	and.w	r3, r3, #2
 80013d0:	9302      	str	r3, [sp, #8]
 80013d2:	9b02      	ldr	r3, [sp, #8]
    else
    {
      LED3_GPIO_CLK_ENABLE();
    }
    /* Configure the GPIO_LED pin */
    gpio_init_structure.Pin   = LED_PIN[Led];
 80013d4:	4b1a      	ldr	r3, [pc, #104]	; (8001440 <BSP_LED_Init+0x90>)
    gpio_init_structure.Mode  = GPIO_MODE_OUTPUT_PP;
    gpio_init_structure.Pull  = GPIO_NOPULL;
 80013d6:	2400      	movs	r4, #0
 80013d8:	2201      	movs	r2, #1
    gpio_init_structure.Speed = GPIO_SPEED_FREQ_VERY_HIGH;

    HAL_GPIO_Init(LED_PORT[Led], &gpio_init_structure);
 80013da:	a905      	add	r1, sp, #20
    gpio_init_structure.Pin   = LED_PIN[Led];
 80013dc:	f833 5010 	ldrh.w	r5, [r3, r0, lsl #1]
    HAL_GPIO_Init(LED_PORT[Led], &gpio_init_structure);
 80013e0:	eb03 0080 	add.w	r0, r3, r0, lsl #2
    gpio_init_structure.Pull  = GPIO_NOPULL;
 80013e4:	e9cd 2406 	strd	r2, r4, [sp, #24]
    HAL_GPIO_Init(LED_PORT[Led], &gpio_init_structure);
 80013e8:	6880      	ldr	r0, [r0, #8]
    gpio_init_structure.Speed = GPIO_SPEED_FREQ_VERY_HIGH;
 80013ea:	2203      	movs	r2, #3
    gpio_init_structure.Pin   = LED_PIN[Led];
 80013ec:	9505      	str	r5, [sp, #20]
    gpio_init_structure.Speed = GPIO_SPEED_FREQ_VERY_HIGH;
 80013ee:	9208      	str	r2, [sp, #32]
    HAL_GPIO_Init(LED_PORT[Led], &gpio_init_structure);
 80013f0:	9001      	str	r0, [sp, #4]
 80013f2:	f001 f9e7 	bl	80027c4 <HAL_GPIO_Init>
    HAL_GPIO_WritePin(LED_PORT[Led], LED_PIN[Led], GPIO_PIN_RESET);
 80013f6:	9801      	ldr	r0, [sp, #4]
 80013f8:	4622      	mov	r2, r4
 80013fa:	4629      	mov	r1, r5
 80013fc:	f001 fb6e 	bl	8002adc <HAL_GPIO_WritePin>
  int32_t ret = BSP_ERROR_NONE;
 8001400:	4620      	mov	r0, r4
  }

  return ret;
}
 8001402:	b00b      	add	sp, #44	; 0x2c
 8001404:	bd30      	pop	{r4, r5, pc}
    else if(Led == LED2)
 8001406:	2801      	cmp	r0, #1
 8001408:	d10a      	bne.n	8001420 <BSP_LED_Init+0x70>
      LED2_GPIO_CLK_ENABLE();
 800140a:	f042 0210 	orr.w	r2, r2, #16
 800140e:	f8c3 20e0 	str.w	r2, [r3, #224]	; 0xe0
 8001412:	f8d3 30e0 	ldr.w	r3, [r3, #224]	; 0xe0
 8001416:	f003 0310 	and.w	r3, r3, #16
 800141a:	9303      	str	r3, [sp, #12]
 800141c:	9b03      	ldr	r3, [sp, #12]
 800141e:	e7d9      	b.n	80013d4 <BSP_LED_Init+0x24>
      LED3_GPIO_CLK_ENABLE();
 8001420:	f042 0202 	orr.w	r2, r2, #2
 8001424:	f8c3 20e0 	str.w	r2, [r3, #224]	; 0xe0
 8001428:	f8d3 30e0 	ldr.w	r3, [r3, #224]	; 0xe0
 800142c:	f003 0302 	and.w	r3, r3, #2
 8001430:	9304      	str	r3, [sp, #16]
 8001432:	9b04      	ldr	r3, [sp, #16]
 8001434:	e7ce      	b.n	80013d4 <BSP_LED_Init+0x24>
    ret = BSP_ERROR_WRONG_PARAM;
 8001436:	f06f 0001 	mvn.w	r0, #1
  return ret;
 800143a:	e7e2      	b.n	8001402 <BSP_LED_Init+0x52>
 800143c:	58024400 	.word	0x58024400
 8001440:	0800ceb0 	.word	0x0800ceb0

08001444 <BSP_LED_On>:
  */
int32_t BSP_LED_On(Led_TypeDef Led)
{
  int32_t ret = BSP_ERROR_NONE;

  if((Led != LED1) && (Led != LED2) && (Led != LED3))
 8001444:	2802      	cmp	r0, #2
{
 8001446:	b510      	push	{r4, lr}
  if((Led != LED1) && (Led != LED2) && (Led != LED3))
 8001448:	d80a      	bhi.n	8001460 <BSP_LED_On+0x1c>
  {
    ret = BSP_ERROR_WRONG_PARAM;
  }
  else
  {
    HAL_GPIO_WritePin(LED_PORT[Led], LED_PIN[Led], GPIO_PIN_SET);
 800144a:	4b07      	ldr	r3, [pc, #28]	; (8001468 <BSP_LED_On+0x24>)
 800144c:	2201      	movs	r2, #1
 800144e:	eb03 0480 	add.w	r4, r3, r0, lsl #2
 8001452:	f833 1010 	ldrh.w	r1, [r3, r0, lsl #1]
 8001456:	68a0      	ldr	r0, [r4, #8]
 8001458:	f001 fb40 	bl	8002adc <HAL_GPIO_WritePin>
  int32_t ret = BSP_ERROR_NONE;
 800145c:	2000      	movs	r0, #0
  }

  return ret;
}
 800145e:	bd10      	pop	{r4, pc}
    ret = BSP_ERROR_WRONG_PARAM;
 8001460:	f06f 0001 	mvn.w	r0, #1
  return ret;
 8001464:	e7fb      	b.n	800145e <BSP_LED_On+0x1a>
 8001466:	bf00      	nop
 8001468:	0800ceb0 	.word	0x0800ceb0

0800146c <BSP_LED_Off>:
  */
int32_t BSP_LED_Off(Led_TypeDef Led)
{
  int32_t ret = BSP_ERROR_NONE;

  if((Led != LED1) && (Led != LED2) && (Led != LED3))
 800146c:	2802      	cmp	r0, #2
{
 800146e:	b510      	push	{r4, lr}
  if((Led != LED1) && (Led != LED2) && (Led != LED3))
 8001470:	d80a      	bhi.n	8001488 <BSP_LED_Off+0x1c>
  {
    ret = BSP_ERROR_WRONG_PARAM;
  }
  else
  {
    HAL_GPIO_WritePin(LED_PORT[Led], LED_PIN[Led], GPIO_PIN_RESET);
 8001472:	4b07      	ldr	r3, [pc, #28]	; (8001490 <BSP_LED_Off+0x24>)
 8001474:	2200      	movs	r2, #0
 8001476:	eb03 0480 	add.w	r4, r3, r0, lsl #2
 800147a:	f833 1010 	ldrh.w	r1, [r3, r0, lsl #1]
 800147e:	68a0      	ldr	r0, [r4, #8]
 8001480:	f001 fb2c 	bl	8002adc <HAL_GPIO_WritePin>
  int32_t ret = BSP_ERROR_NONE;
 8001484:	2000      	movs	r0, #0
  }

  return ret;
}
 8001486:	bd10      	pop	{r4, pc}
    ret = BSP_ERROR_WRONG_PARAM;
 8001488:	f06f 0001 	mvn.w	r0, #1
  return ret;
 800148c:	e7fb      	b.n	8001486 <BSP_LED_Off+0x1a>
 800148e:	bf00      	nop
 8001490:	0800ceb0 	.word	0x0800ceb0

08001494 <SystemInit>:
 __IO uint32_t tmpreg;
#endif /* DATA_IN_D2_SRAM */
    
  /* FPU settings ------------------------------------------------------------*/
  #if (__FPU_PRESENT == 1) && (__FPU_USED == 1)
    SCB->CPACR |= ((3UL << (10*2))|(3UL << (11*2)));  /* set CP10 and CP11 Full Access */
 8001494:	491a      	ldr	r1, [pc, #104]	; (8001500 <SystemInit+0x6c>)
  
  /* Reset CFGR register */
  RCC->CFGR = 0x00000000;

  /* Reset HSEON, CSSON , CSION,RC48ON, CSIKERON PLL1ON, PLL2ON and PLL3ON bits */
  RCC->CR &= 0xEAF6ED7FU;
 8001496:	481b      	ldr	r0, [pc, #108]	; (8001504 <SystemInit+0x70>)
    SCB->CPACR |= ((3UL << (10*2))|(3UL << (11*2)));  /* set CP10 and CP11 Full Access */
 8001498:	f8d1 3088 	ldr.w	r3, [r1, #136]	; 0x88
 800149c:	f443 0370 	orr.w	r3, r3, #15728640	; 0xf00000
{
 80014a0:	b510      	push	{r4, lr}
    SCB->CPACR |= ((3UL << (10*2))|(3UL << (11*2)));  /* set CP10 and CP11 Full Access */
 80014a2:	f8c1 3088 	str.w	r3, [r1, #136]	; 0x88
  RCC->CR |= RCC_CR_HSION;
 80014a6:	4b18      	ldr	r3, [pc, #96]	; (8001508 <SystemInit+0x74>)
 80014a8:	681a      	ldr	r2, [r3, #0]
 80014aa:	f042 0201 	orr.w	r2, r2, #1
 80014ae:	601a      	str	r2, [r3, #0]
  RCC->CFGR = 0x00000000;
 80014b0:	2200      	movs	r2, #0
 80014b2:	611a      	str	r2, [r3, #16]
  RCC->CR &= 0xEAF6ED7FU;
 80014b4:	681c      	ldr	r4, [r3, #0]
 80014b6:	4020      	ands	r0, r4
 80014b8:	6018      	str	r0, [r3, #0]

  /* Reset D1CFGR register */
  RCC->D1CFGR = 0x00000000;
 80014ba:	619a      	str	r2, [r3, #24]

  /* Reset D2CFGR register */
  RCC->D2CFGR = 0x00000000;
 80014bc:	61da      	str	r2, [r3, #28]
  
  /* Reset D3CFGR register */
  RCC->D3CFGR = 0x00000000;
 80014be:	621a      	str	r2, [r3, #32]

  /* Reset PLLCKSELR register */
  RCC->PLLCKSELR = 0x00000000;
 80014c0:	629a      	str	r2, [r3, #40]	; 0x28

  /* Reset PLLCFGR register */
  RCC->PLLCFGR = 0x00000000;
 80014c2:	62da      	str	r2, [r3, #44]	; 0x2c
  /* Reset PLL1DIVR register */
  RCC->PLL1DIVR = 0x00000000;
 80014c4:	631a      	str	r2, [r3, #48]	; 0x30
  /* Reset PLL1FRACR register */
  RCC->PLL1FRACR = 0x00000000;
 80014c6:	635a      	str	r2, [r3, #52]	; 0x34

  /* Reset PLL2DIVR register */
  RCC->PLL2DIVR = 0x00000000;
 80014c8:	639a      	str	r2, [r3, #56]	; 0x38

  /* Reset PLL2FRACR register */
  
  RCC->PLL2FRACR = 0x00000000;
 80014ca:	63da      	str	r2, [r3, #60]	; 0x3c
  /* Reset PLL3DIVR register */
  RCC->PLL3DIVR = 0x00000000;
 80014cc:	641a      	str	r2, [r3, #64]	; 0x40

  /* Reset PLL3FRACR register */
  RCC->PLL3FRACR = 0x00000000;
 80014ce:	645a      	str	r2, [r3, #68]	; 0x44
  
  /* Reset HSEBYP bit */
  RCC->CR &= 0xFFFBFFFFU;
 80014d0:	6818      	ldr	r0, [r3, #0]
 80014d2:	f420 2080 	bic.w	r0, r0, #262144	; 0x40000
 80014d6:	6018      	str	r0, [r3, #0]

  /* Disable all interrupts */
  RCC->CIER = 0x00000000;
 80014d8:	661a      	str	r2, [r3, #96]	; 0x60

  /* Change  the switch matrix read issuing capability to 1 for the AXI SRAM target (Target 7) */
  if((DBGMCU->IDCODE & 0xFFFF0000U) < 0x20000000U)
 80014da:	4b0c      	ldr	r3, [pc, #48]	; (800150c <SystemInit+0x78>)
 80014dc:	681b      	ldr	r3, [r3, #0]
 80014de:	0c1b      	lsrs	r3, r3, #16
 80014e0:	041b      	lsls	r3, r3, #16
 80014e2:	f1b3 5f00 	cmp.w	r3, #536870912	; 0x20000000
 80014e6:	d202      	bcs.n	80014ee <SystemInit+0x5a>
  {
    /* if stm32h7 revY*/
    /* Change  the switch matrix read issuing capability to 1 for the AXI SRAM target (Target 7) */
    *((__IO uint32_t*)0x51008108) = 0x000000001U;
 80014e8:	4b09      	ldr	r3, [pc, #36]	; (8001510 <SystemInit+0x7c>)
 80014ea:	2201      	movs	r2, #1
 80014ec:	601a      	str	r2, [r3, #0]
/*
   * Disable the FMC bank1 (enabled after reset).
   * This, prevents CPU speculation access on this bank which blocks the use of FMC during
   * 24us. During this time the others FMC master (such as LTDC) cannot use it!
   */
  FMC_Bank1_R->BTCR[0] = 0x000030D2;
 80014ee:	4b09      	ldr	r3, [pc, #36]	; (8001514 <SystemInit+0x80>)
 80014f0:	f243 02d2 	movw	r2, #12498	; 0x30d2
 80014f4:	601a      	str	r2, [r3, #0]

  /* Configure the Vector Table location add offset address ------------------*/
#ifdef VECT_TAB_SRAM
  SCB->VTOR = D1_AXISRAM_BASE  | VECT_TAB_OFFSET;       /* Vector Table Relocation in Internal SRAM */
#else
  SCB->VTOR = FLASH_BANK1_BASE | VECT_TAB_OFFSET;       /* Vector Table Relocation in Internal FLASH */
 80014f6:	f04f 6300 	mov.w	r3, #134217728	; 0x8000000
 80014fa:	608b      	str	r3, [r1, #8]
#endif  


}
 80014fc:	bd10      	pop	{r4, pc}
 80014fe:	bf00      	nop
 8001500:	e000ed00 	.word	0xe000ed00
 8001504:	eaf6ed7f 	.word	0xeaf6ed7f
 8001508:	58024400 	.word	0x58024400
 800150c:	5c001000 	.word	0x5c001000
 8001510:	51008108 	.word	0x51008108
 8001514:	52004000 	.word	0x52004000

08001518 <HAL_MspInit>:
__weak void HAL_MspInit(void)
{
  /* NOTE : This function Should not be modified, when the callback is needed,
            the HAL_MspInit could be implemented in the user file
   */
}
 8001518:	4770      	bx	lr
	...

0800151c <HAL_Init>:
{
 800151c:	b510      	push	{r4, lr}
  HAL_NVIC_SetPriorityGrouping(NVIC_PRIORITYGROUP_4);
 800151e:	2003      	movs	r0, #3
 8001520:	f000 f84c 	bl	80015bc <HAL_NVIC_SetPriorityGrouping>
  common_system_clock = HAL_RCC_GetSysClockFreq() >> ((D1CorePrescTable[(RCC->D1CFGR & RCC_D1CFGR_D1CPRE)>> RCC_D1CFGR_D1CPRE_Pos]) & 0x1FU);
 8001524:	f001 fda0 	bl	8003068 <HAL_RCC_GetSysClockFreq>
 8001528:	490f      	ldr	r1, [pc, #60]	; (8001568 <HAL_Init+0x4c>)
 800152a:	4a10      	ldr	r2, [pc, #64]	; (800156c <HAL_Init+0x50>)
 800152c:	698b      	ldr	r3, [r1, #24]
 800152e:	f3c3 2303 	ubfx	r3, r3, #8, #4
 8001532:	5cd3      	ldrb	r3, [r2, r3]
 8001534:	f003 031f 	and.w	r3, r3, #31
 8001538:	40d8      	lsrs	r0, r3
  SystemD2Clock = (common_system_clock >> ((D1CorePrescTable[(RCC->D1CFGR & RCC_D1CFGR_HPRE)>> RCC_D1CFGR_HPRE_Pos]) & 0x1FU));
 800153a:	698b      	ldr	r3, [r1, #24]
 800153c:	f003 030f 	and.w	r3, r3, #15
 8001540:	5cd3      	ldrb	r3, [r2, r3]
 8001542:	4a0b      	ldr	r2, [pc, #44]	; (8001570 <HAL_Init+0x54>)
 8001544:	f003 031f 	and.w	r3, r3, #31
 8001548:	fa20 f303 	lsr.w	r3, r0, r3
 800154c:	6013      	str	r3, [r2, #0]
  SystemCoreClock = common_system_clock;
 800154e:	4b09      	ldr	r3, [pc, #36]	; (8001574 <HAL_Init+0x58>)
 8001550:	6018      	str	r0, [r3, #0]
  if(HAL_InitTick(TICK_INT_PRIORITY) != HAL_OK)
 8001552:	200f      	movs	r0, #15
 8001554:	f7ff fcce 	bl	8000ef4 <HAL_InitTick>
 8001558:	4604      	mov	r4, r0
 800155a:	b918      	cbnz	r0, 8001564 <HAL_Init+0x48>
  HAL_MspInit();
 800155c:	f7ff ffdc 	bl	8001518 <HAL_MspInit>
}
 8001560:	4620      	mov	r0, r4
 8001562:	bd10      	pop	{r4, pc}
    return HAL_ERROR;
 8001564:	2401      	movs	r4, #1
 8001566:	e7fb      	b.n	8001560 <HAL_Init+0x44>
 8001568:	58024400 	.word	0x58024400
 800156c:	0800cec4 	.word	0x0800cec4
 8001570:	24000018 	.word	0x24000018
 8001574:	24000014 	.word	0x24000014

08001578 <HAL_IncTick>:
  *      implementations in user file.
  * @retval None
  */
__weak void HAL_IncTick(void)
{
  uwTick += (uint32_t)uwTickFreq;
 8001578:	4a03      	ldr	r2, [pc, #12]	; (8001588 <HAL_IncTick+0x10>)
 800157a:	4b04      	ldr	r3, [pc, #16]	; (800158c <HAL_IncTick+0x14>)
 800157c:	6811      	ldr	r1, [r2, #0]
 800157e:	781b      	ldrb	r3, [r3, #0]
 8001580:	440b      	add	r3, r1
 8001582:	6013      	str	r3, [r2, #0]
}
 8001584:	4770      	bx	lr
 8001586:	bf00      	nop
 8001588:	24006a3c 	.word	0x24006a3c
 800158c:	2400001c 	.word	0x2400001c

08001590 <HAL_GetTick>:
  *       implementations in user file.
  * @retval tick value
  */
__weak uint32_t HAL_GetTick(void)
{
  return uwTick;
 8001590:	4b01      	ldr	r3, [pc, #4]	; (8001598 <HAL_GetTick+0x8>)
 8001592:	6818      	ldr	r0, [r3, #0]
}
 8001594:	4770      	bx	lr
 8001596:	bf00      	nop
 8001598:	24006a3c 	.word	0x24006a3c

0800159c <HAL_GetREVID>:
  * @brief  Returns the device revision identifier.
  * @retval Device revision identifier
  */
uint32_t HAL_GetREVID(void)
{
   return((DBGMCU->IDCODE) >> 16);
 800159c:	4b01      	ldr	r3, [pc, #4]	; (80015a4 <HAL_GetREVID+0x8>)
 800159e:	6818      	ldr	r0, [r3, #0]
}
 80015a0:	0c00      	lsrs	r0, r0, #16
 80015a2:	4770      	bx	lr
 80015a4:	5c001000 	.word	0x5c001000

080015a8 <HAL_SYSCFG_ETHInterfaceSelect>:
void HAL_SYSCFG_ETHInterfaceSelect(uint32_t SYSCFG_ETHInterface)
{
  /* Check the parameter */
  assert_param(IS_SYSCFG_ETHERNET_CONFIG(SYSCFG_ETHInterface));

  MODIFY_REG(SYSCFG->PMCR, SYSCFG_PMCR_EPIS_SEL, (uint32_t)(SYSCFG_ETHInterface));
 80015a8:	4a03      	ldr	r2, [pc, #12]	; (80015b8 <HAL_SYSCFG_ETHInterfaceSelect+0x10>)
 80015aa:	6853      	ldr	r3, [r2, #4]
 80015ac:	f423 0360 	bic.w	r3, r3, #14680064	; 0xe00000
 80015b0:	4318      	orrs	r0, r3
 80015b2:	6050      	str	r0, [r2, #4]
}
 80015b4:	4770      	bx	lr
 80015b6:	bf00      	nop
 80015b8:	58000400 	.word	0x58000400

080015bc <HAL_NVIC_SetPriorityGrouping>:
  reg_value  =  SCB->AIRCR;                                                   /* read old register configuration    */
 80015bc:	4907      	ldr	r1, [pc, #28]	; (80015dc <HAL_NVIC_SetPriorityGrouping+0x20>)
                (PriorityGroupTmp << SCB_AIRCR_PRIGROUP_Pos)  );              /* Insert write key and priority group */
 80015be:	0203      	lsls	r3, r0, #8
  reg_value  =  SCB->AIRCR;                                                   /* read old register configuration    */
 80015c0:	68ca      	ldr	r2, [r1, #12]
                (PriorityGroupTmp << SCB_AIRCR_PRIGROUP_Pos)  );              /* Insert write key and priority group */
 80015c2:	f403 63e0 	and.w	r3, r3, #1792	; 0x700
  reg_value &= ~((uint32_t)(SCB_AIRCR_VECTKEY_Msk | SCB_AIRCR_PRIGROUP_Msk)); /* clear bits to change               */
 80015c6:	f422 62e0 	bic.w	r2, r2, #1792	; 0x700
 80015ca:	0412      	lsls	r2, r2, #16
 80015cc:	0c12      	lsrs	r2, r2, #16
                ((uint32_t)0x5FAUL << SCB_AIRCR_VECTKEY_Pos) |
 80015ce:	4313      	orrs	r3, r2
  reg_value  =  (reg_value                                   |
 80015d0:	f043 63bf 	orr.w	r3, r3, #100139008	; 0x5f80000
 80015d4:	f443 3300 	orr.w	r3, r3, #131072	; 0x20000
  SCB->AIRCR =  reg_value;
 80015d8:	60cb      	str	r3, [r1, #12]
  /* Check the parameters */
  assert_param(IS_NVIC_PRIORITY_GROUP(PriorityGroup));

  /* Set the PRIGROUP[10:8] bits according to the PriorityGroup parameter value */
  NVIC_SetPriorityGrouping(PriorityGroup);
}
 80015da:	4770      	bx	lr
 80015dc:	e000ed00 	.word	0xe000ed00

080015e0 <HAL_NVIC_SetPriority>:
  return ((uint32_t)((SCB->AIRCR & SCB_AIRCR_PRIGROUP_Msk) >> SCB_AIRCR_PRIGROUP_Pos));
 80015e0:	4b16      	ldr	r3, [pc, #88]	; (800163c <HAL_NVIC_SetPriority+0x5c>)
  *         This parameter can be a value between 0 and 15
  *         A lower priority value indicates a higher priority.
  * @retval None
  */
void HAL_NVIC_SetPriority(IRQn_Type IRQn, uint32_t PreemptPriority, uint32_t SubPriority)
{
 80015e2:	b530      	push	{r4, r5, lr}
 80015e4:	68dc      	ldr	r4, [r3, #12]
 80015e6:	f3c4 2402 	ubfx	r4, r4, #8, #3
  PreemptPriorityBits = ((7UL - PriorityGroupTmp) > (uint32_t)(__NVIC_PRIO_BITS)) ? (uint32_t)(__NVIC_PRIO_BITS) : (uint32_t)(7UL - PriorityGroupTmp);
 80015ea:	f1c4 0507 	rsb	r5, r4, #7
  SubPriorityBits     = ((PriorityGroupTmp + (uint32_t)(__NVIC_PRIO_BITS)) < (uint32_t)7UL) ? (uint32_t)0UL : (uint32_t)((PriorityGroupTmp - 7UL) + (uint32_t)(__NVIC_PRIO_BITS));
 80015ee:	1d23      	adds	r3, r4, #4
  PreemptPriorityBits = ((7UL - PriorityGroupTmp) > (uint32_t)(__NVIC_PRIO_BITS)) ? (uint32_t)(__NVIC_PRIO_BITS) : (uint32_t)(7UL - PriorityGroupTmp);
 80015f0:	2d04      	cmp	r5, #4
 80015f2:	bf28      	it	cs
 80015f4:	2504      	movcs	r5, #4
  SubPriorityBits     = ((PriorityGroupTmp + (uint32_t)(__NVIC_PRIO_BITS)) < (uint32_t)7UL) ? (uint32_t)0UL : (uint32_t)((PriorityGroupTmp - 7UL) + (uint32_t)(__NVIC_PRIO_BITS));
 80015f6:	2b06      	cmp	r3, #6
           ((PreemptPriority & (uint32_t)((1UL << (PreemptPriorityBits)) - 1UL)) << SubPriorityBits) |
 80015f8:	f04f 33ff 	mov.w	r3, #4294967295
  SubPriorityBits     = ((PriorityGroupTmp + (uint32_t)(__NVIC_PRIO_BITS)) < (uint32_t)7UL) ? (uint32_t)0UL : (uint32_t)((PriorityGroupTmp - 7UL) + (uint32_t)(__NVIC_PRIO_BITS));
 80015fc:	bf8c      	ite	hi
 80015fe:	3c03      	subhi	r4, #3
 8001600:	2400      	movls	r4, #0
           ((PreemptPriority & (uint32_t)((1UL << (PreemptPriorityBits)) - 1UL)) << SubPriorityBits) |
 8001602:	fa03 f505 	lsl.w	r5, r3, r5
  if ((int32_t)(IRQn) >= 0)
 8001606:	2800      	cmp	r0, #0
           ((SubPriority     & (uint32_t)((1UL << (SubPriorityBits    )) - 1UL)))
 8001608:	fa03 f304 	lsl.w	r3, r3, r4
           ((PreemptPriority & (uint32_t)((1UL << (PreemptPriorityBits)) - 1UL)) << SubPriorityBits) |
 800160c:	ea21 0105 	bic.w	r1, r1, r5
           ((SubPriority     & (uint32_t)((1UL << (SubPriorityBits    )) - 1UL)))
 8001610:	ea22 0203 	bic.w	r2, r2, r3
           ((PreemptPriority & (uint32_t)((1UL << (PreemptPriorityBits)) - 1UL)) << SubPriorityBits) |
 8001614:	fa01 f104 	lsl.w	r1, r1, r4
 8001618:	ea41 0302 	orr.w	r3, r1, r2
 800161c:	ea4f 1303 	mov.w	r3, r3, lsl #4
 8001620:	b2db      	uxtb	r3, r3
  if ((int32_t)(IRQn) >= 0)
 8001622:	db06      	blt.n	8001632 <HAL_NVIC_SetPriority+0x52>
    NVIC->IP[((uint32_t)IRQn)]                = (uint8_t)((priority << (8U - __NVIC_PRIO_BITS)) & (uint32_t)0xFFUL);
 8001624:	f100 4060 	add.w	r0, r0, #3758096384	; 0xe0000000
 8001628:	f500 4061 	add.w	r0, r0, #57600	; 0xe100
 800162c:	f880 3300 	strb.w	r3, [r0, #768]	; 0x300
  assert_param(IS_NVIC_PREEMPTION_PRIORITY(PreemptPriority));

  prioritygroup = NVIC_GetPriorityGrouping();

  NVIC_SetPriority(IRQn, NVIC_EncodePriority(prioritygroup, PreemptPriority, SubPriority));
}
 8001630:	bd30      	pop	{r4, r5, pc}
    SCB->SHPR[(((uint32_t)IRQn) & 0xFUL)-4UL] = (uint8_t)((priority << (8U - __NVIC_PRIO_BITS)) & (uint32_t)0xFFUL);
 8001632:	f000 000f 	and.w	r0, r0, #15
 8001636:	4a02      	ldr	r2, [pc, #8]	; (8001640 <HAL_NVIC_SetPriority+0x60>)
 8001638:	5413      	strb	r3, [r2, r0]
 800163a:	e7f9      	b.n	8001630 <HAL_NVIC_SetPriority+0x50>
 800163c:	e000ed00 	.word	0xe000ed00
 8001640:	e000ed14 	.word	0xe000ed14

08001644 <HAL_NVIC_EnableIRQ>:
  if ((int32_t)(IRQn) >= 0)
 8001644:	2800      	cmp	r0, #0
 8001646:	db08      	blt.n	800165a <HAL_NVIC_EnableIRQ+0x16>
    NVIC->ISER[(((uint32_t)IRQn) >> 5UL)] = (uint32_t)(1UL << (((uint32_t)IRQn) & 0x1FUL));
 8001648:	0942      	lsrs	r2, r0, #5
 800164a:	2301      	movs	r3, #1
 800164c:	f000 001f 	and.w	r0, r0, #31
 8001650:	fa03 f000 	lsl.w	r0, r3, r0
 8001654:	4b01      	ldr	r3, [pc, #4]	; (800165c <HAL_NVIC_EnableIRQ+0x18>)
 8001656:	f843 0022 	str.w	r0, [r3, r2, lsl #2]
  /* Check the parameters */
  assert_param(IS_NVIC_DEVICE_IRQ(IRQn));

  /* Enable interrupt */
  NVIC_EnableIRQ(IRQn);
}
 800165a:	4770      	bx	lr
 800165c:	e000e100 	.word	0xe000e100

08001660 <HAL_NVIC_DisableIRQ>:
  if ((int32_t)(IRQn) >= 0)
 8001660:	2800      	cmp	r0, #0
 8001662:	db0d      	blt.n	8001680 <HAL_NVIC_DisableIRQ+0x20>
    NVIC->ICER[(((uint32_t)IRQn) >> 5UL)] = (uint32_t)(1UL << (((uint32_t)IRQn) & 0x1FUL));
 8001664:	0943      	lsrs	r3, r0, #5
 8001666:	2201      	movs	r2, #1
 8001668:	f000 001f 	and.w	r0, r0, #31
 800166c:	3320      	adds	r3, #32
 800166e:	fa02 f000 	lsl.w	r0, r2, r0
 8001672:	4a04      	ldr	r2, [pc, #16]	; (8001684 <HAL_NVIC_DisableIRQ+0x24>)
 8001674:	f842 0023 	str.w	r0, [r2, r3, lsl #2]
  __ASM volatile ("dsb 0xF":::"memory");
 8001678:	f3bf 8f4f 	dsb	sy
  __ASM volatile ("isb 0xF":::"memory");
 800167c:	f3bf 8f6f 	isb	sy
  /* Check the parameters */
  assert_param(IS_NVIC_DEVICE_IRQ(IRQn));

  /* Disable interrupt */
  NVIC_DisableIRQ(IRQn);
}
 8001680:	4770      	bx	lr
 8001682:	bf00      	nop
 8001684:	e000e100 	.word	0xe000e100

08001688 <HAL_MPU_Disable>:
  \details Ensures the apparent order of the explicit memory operations before
           and after the instruction, without ensuring their completion.
 */
__STATIC_FORCEINLINE void __DMB(void)
{
  __ASM volatile ("dmb 0xF":::"memory");
 8001688:	f3bf 8f5f 	dmb	sy
{
  /* Make sure outstanding transfers are done */
  __DMB();

  /* Disable fault exceptions */
  SCB->SHCSR &= ~SCB_SHCSR_MEMFAULTENA_Msk;
 800168c:	4a04      	ldr	r2, [pc, #16]	; (80016a0 <HAL_MPU_Disable+0x18>)
 800168e:	6a53      	ldr	r3, [r2, #36]	; 0x24
 8001690:	f423 3380 	bic.w	r3, r3, #65536	; 0x10000
 8001694:	6253      	str	r3, [r2, #36]	; 0x24

  /* Disable the MPU and clear the control register*/
  MPU->CTRL = 0;
 8001696:	2200      	movs	r2, #0
 8001698:	4b02      	ldr	r3, [pc, #8]	; (80016a4 <HAL_MPU_Disable+0x1c>)
 800169a:	605a      	str	r2, [r3, #4]
}
 800169c:	4770      	bx	lr
 800169e:	bf00      	nop
 80016a0:	e000ed00 	.word	0xe000ed00
 80016a4:	e000ed90 	.word	0xe000ed90

080016a8 <HAL_MPU_Enable>:
{
  /* Enable the MPU */
  MPU->CTRL = MPU_Control | MPU_CTRL_ENABLE_Msk;

  /* Enable fault exceptions */
  SCB->SHCSR |= SCB_SHCSR_MEMFAULTENA_Msk;
 80016a8:	4a06      	ldr	r2, [pc, #24]	; (80016c4 <HAL_MPU_Enable+0x1c>)
  MPU->CTRL = MPU_Control | MPU_CTRL_ENABLE_Msk;
 80016aa:	f040 0001 	orr.w	r0, r0, #1
 80016ae:	4b06      	ldr	r3, [pc, #24]	; (80016c8 <HAL_MPU_Enable+0x20>)
 80016b0:	6058      	str	r0, [r3, #4]
  SCB->SHCSR |= SCB_SHCSR_MEMFAULTENA_Msk;
 80016b2:	6a53      	ldr	r3, [r2, #36]	; 0x24
 80016b4:	f443 3380 	orr.w	r3, r3, #65536	; 0x10000
 80016b8:	6253      	str	r3, [r2, #36]	; 0x24
  __ASM volatile ("dsb 0xF":::"memory");
 80016ba:	f3bf 8f4f 	dsb	sy
  __ASM volatile ("isb 0xF":::"memory");
 80016be:	f3bf 8f6f 	isb	sy

  /* Ensure MPU setting take effects */
  __DSB();
  __ISB();
}
 80016c2:	4770      	bx	lr
 80016c4:	e000ed00 	.word	0xe000ed00
 80016c8:	e000ed90 	.word	0xe000ed90

080016cc <HAL_MPU_ConfigRegion>:
  /* Check the parameters */
  assert_param(IS_MPU_REGION_NUMBER(MPU_Init->Number));
  assert_param(IS_MPU_REGION_ENABLE(MPU_Init->Enable));

  /* Set the Region number */
  MPU->RNR = MPU_Init->Number;
 80016cc:	7843      	ldrb	r3, [r0, #1]
 80016ce:	4a12      	ldr	r2, [pc, #72]	; (8001718 <HAL_MPU_ConfigRegion+0x4c>)
{
 80016d0:	b510      	push	{r4, lr}
  MPU->RNR = MPU_Init->Number;
 80016d2:	6093      	str	r3, [r2, #8]

  if ((MPU_Init->Enable) != 0UL)
 80016d4:	7801      	ldrb	r1, [r0, #0]
 80016d6:	b1d9      	cbz	r1, 8001710 <HAL_MPU_ConfigRegion+0x44>
    assert_param(IS_MPU_ACCESS_CACHEABLE(MPU_Init->IsCacheable));
    assert_param(IS_MPU_ACCESS_BUFFERABLE(MPU_Init->IsBufferable));
    assert_param(IS_MPU_SUB_REGION_DISABLE(MPU_Init->SubRegionDisable));
    assert_param(IS_MPU_REGION_SIZE(MPU_Init->Size));

    MPU->RBAR = MPU_Init->BaseAddress;
 80016d8:	6843      	ldr	r3, [r0, #4]
 80016da:	60d3      	str	r3, [r2, #12]
    MPU->RASR = ((uint32_t)MPU_Init->DisableExec             << MPU_RASR_XN_Pos)   |
                ((uint32_t)MPU_Init->AccessPermission        << MPU_RASR_AP_Pos)   |
 80016dc:	7ac3      	ldrb	r3, [r0, #11]
    MPU->RASR = ((uint32_t)MPU_Init->DisableExec             << MPU_RASR_XN_Pos)   |
 80016de:	7b04      	ldrb	r4, [r0, #12]
                ((uint32_t)MPU_Init->AccessPermission        << MPU_RASR_AP_Pos)   |
 80016e0:	061b      	lsls	r3, r3, #24
    MPU->RASR = ((uint32_t)MPU_Init->DisableExec             << MPU_RASR_XN_Pos)   |
 80016e2:	ea43 7304 	orr.w	r3, r3, r4, lsl #28
                ((uint32_t)MPU_Init->TypeExtField            << MPU_RASR_TEX_Pos)  |
                ((uint32_t)MPU_Init->IsShareable             << MPU_RASR_S_Pos)    |
                ((uint32_t)MPU_Init->IsCacheable             << MPU_RASR_C_Pos)    |
                ((uint32_t)MPU_Init->IsBufferable            << MPU_RASR_B_Pos)    |
                ((uint32_t)MPU_Init->SubRegionDisable        << MPU_RASR_SRD_Pos)  |
                ((uint32_t)MPU_Init->Size                    << MPU_RASR_SIZE_Pos) |
 80016e6:	430b      	orrs	r3, r1
                ((uint32_t)MPU_Init->TypeExtField            << MPU_RASR_TEX_Pos)  |
 80016e8:	7a81      	ldrb	r1, [r0, #10]
                ((uint32_t)MPU_Init->Size                    << MPU_RASR_SIZE_Pos) |
 80016ea:	ea43 43c1 	orr.w	r3, r3, r1, lsl #19
                ((uint32_t)MPU_Init->IsShareable             << MPU_RASR_S_Pos)    |
 80016ee:	7b41      	ldrb	r1, [r0, #13]
                ((uint32_t)MPU_Init->Size                    << MPU_RASR_SIZE_Pos) |
 80016f0:	ea43 4381 	orr.w	r3, r3, r1, lsl #18
                ((uint32_t)MPU_Init->IsCacheable             << MPU_RASR_C_Pos)    |
 80016f4:	7b81      	ldrb	r1, [r0, #14]
                ((uint32_t)MPU_Init->Size                    << MPU_RASR_SIZE_Pos) |
 80016f6:	ea43 4341 	orr.w	r3, r3, r1, lsl #17
                ((uint32_t)MPU_Init->IsBufferable            << MPU_RASR_B_Pos)    |
 80016fa:	7bc1      	ldrb	r1, [r0, #15]
                ((uint32_t)MPU_Init->Size                    << MPU_RASR_SIZE_Pos) |
 80016fc:	ea43 4301 	orr.w	r3, r3, r1, lsl #16
                ((uint32_t)MPU_Init->SubRegionDisable        << MPU_RASR_SRD_Pos)  |
 8001700:	7a41      	ldrb	r1, [r0, #9]
                ((uint32_t)MPU_Init->Size                    << MPU_RASR_SIZE_Pos) |
 8001702:	ea43 2301 	orr.w	r3, r3, r1, lsl #8
 8001706:	7a01      	ldrb	r1, [r0, #8]
 8001708:	ea43 0341 	orr.w	r3, r3, r1, lsl #1
    MPU->RASR = ((uint32_t)MPU_Init->DisableExec             << MPU_RASR_XN_Pos)   |
 800170c:	6113      	str	r3, [r2, #16]
  else
  {
    MPU->RBAR = 0x00;
    MPU->RASR = 0x00;
  }
}
 800170e:	bd10      	pop	{r4, pc}
    MPU->RBAR = 0x00;
 8001710:	60d1      	str	r1, [r2, #12]
    MPU->RASR = 0x00;
 8001712:	6111      	str	r1, [r2, #16]
}
 8001714:	e7fb      	b.n	800170e <HAL_MPU_ConfigRegion+0x42>
 8001716:	bf00      	nop
 8001718:	e000ed90 	.word	0xe000ed90

0800171c <HAL_DMA_Abort_IT>:
  * @param  hdma  : pointer to a DMA_HandleTypeDef structure that contains
  *                 the configuration information for the specified DMA Stream.
  * @retval HAL status
  */
HAL_StatusTypeDef HAL_DMA_Abort_IT(DMA_HandleTypeDef *hdma)
{
 800171c:	b510      	push	{r4, lr}
  BDMA_Base_Registers *regs_bdma;

  /* Check the DMA peripheral handle */
  if(hdma == NULL)
 800171e:	b128      	cbz	r0, 800172c <HAL_DMA_Abort_IT+0x10>
  {
    return HAL_ERROR;
  }

  if(hdma->State != HAL_DMA_STATE_BUSY)
 8001720:	f890 3035 	ldrb.w	r3, [r0, #53]	; 0x35
 8001724:	2b02      	cmp	r3, #2
 8001726:	d003      	beq.n	8001730 <HAL_DMA_Abort_IT+0x14>
  {
    hdma->ErrorCode = HAL_DMA_ERROR_NO_XFER;
 8001728:	2380      	movs	r3, #128	; 0x80
 800172a:	6543      	str	r3, [r0, #84]	; 0x54
    return HAL_ERROR;
 800172c:	2001      	movs	r0, #1
 800172e:	e07f      	b.n	8001830 <HAL_DMA_Abort_IT+0x114>
    return HAL_ERROR;
  }
  else
  {
    if(IS_DMA_STREAM_INSTANCE(hdma->Instance) != 0U) /* DMA1 or DMA2 instance */
 8001730:	6803      	ldr	r3, [r0, #0]
 8001732:	4a50      	ldr	r2, [pc, #320]	; (8001874 <HAL_DMA_Abort_IT+0x158>)
 8001734:	4293      	cmp	r3, r2
 8001736:	d052      	beq.n	80017de <HAL_DMA_Abort_IT+0xc2>
 8001738:	494f      	ldr	r1, [pc, #316]	; (8001878 <HAL_DMA_Abort_IT+0x15c>)
 800173a:	428b      	cmp	r3, r1
 800173c:	d04f      	beq.n	80017de <HAL_DMA_Abort_IT+0xc2>
 800173e:	3118      	adds	r1, #24
 8001740:	428b      	cmp	r3, r1
 8001742:	d04c      	beq.n	80017de <HAL_DMA_Abort_IT+0xc2>
 8001744:	3118      	adds	r1, #24
 8001746:	428b      	cmp	r3, r1
 8001748:	d049      	beq.n	80017de <HAL_DMA_Abort_IT+0xc2>
 800174a:	3118      	adds	r1, #24
 800174c:	428b      	cmp	r3, r1
 800174e:	d046      	beq.n	80017de <HAL_DMA_Abort_IT+0xc2>
 8001750:	3118      	adds	r1, #24
 8001752:	428b      	cmp	r3, r1
 8001754:	d043      	beq.n	80017de <HAL_DMA_Abort_IT+0xc2>
 8001756:	3118      	adds	r1, #24
 8001758:	428b      	cmp	r3, r1
 800175a:	d040      	beq.n	80017de <HAL_DMA_Abort_IT+0xc2>
 800175c:	3118      	adds	r1, #24
 800175e:	428b      	cmp	r3, r1
 8001760:	d03d      	beq.n	80017de <HAL_DMA_Abort_IT+0xc2>
 8001762:	f501 7156 	add.w	r1, r1, #856	; 0x358
 8001766:	428b      	cmp	r3, r1
 8001768:	d039      	beq.n	80017de <HAL_DMA_Abort_IT+0xc2>
 800176a:	3118      	adds	r1, #24
 800176c:	428b      	cmp	r3, r1
 800176e:	d036      	beq.n	80017de <HAL_DMA_Abort_IT+0xc2>
 8001770:	3118      	adds	r1, #24
 8001772:	428b      	cmp	r3, r1
 8001774:	d033      	beq.n	80017de <HAL_DMA_Abort_IT+0xc2>
 8001776:	3118      	adds	r1, #24
 8001778:	428b      	cmp	r3, r1
 800177a:	d030      	beq.n	80017de <HAL_DMA_Abort_IT+0xc2>
 800177c:	3118      	adds	r1, #24
 800177e:	428b      	cmp	r3, r1
 8001780:	d02d      	beq.n	80017de <HAL_DMA_Abort_IT+0xc2>
 8001782:	3118      	adds	r1, #24
 8001784:	428b      	cmp	r3, r1
 8001786:	d02a      	beq.n	80017de <HAL_DMA_Abort_IT+0xc2>
 8001788:	3118      	adds	r1, #24
 800178a:	428b      	cmp	r3, r1
 800178c:	d027      	beq.n	80017de <HAL_DMA_Abort_IT+0xc2>
 800178e:	3118      	adds	r1, #24
 8001790:	428b      	cmp	r3, r1
 8001792:	d024      	beq.n	80017de <HAL_DMA_Abort_IT+0xc2>
      __HAL_DMA_DISABLE(hdma);
    }
    else /* BDMA channel */
    {
      /* Disable DMA All Interrupts  */
      ((BDMA_Channel_TypeDef   *)hdma->Instance)->CCR  &= ~(BDMA_CCR_TCIE | BDMA_CCR_HTIE | BDMA_CCR_TEIE);
 8001794:	681a      	ldr	r2, [r3, #0]
 8001796:	f022 020e 	bic.w	r2, r2, #14
 800179a:	601a      	str	r2, [r3, #0]

      /* Disable the channel */
      __HAL_DMA_DISABLE(hdma);
 800179c:	681a      	ldr	r2, [r3, #0]
 800179e:	f022 0201 	bic.w	r2, r2, #1
 80017a2:	601a      	str	r2, [r3, #0]

      if(IS_DMA_DMAMUX_ALL_INSTANCE(hdma->Instance) != 0U) /* No DMAMUX available for BDMA1 */
 80017a4:	4a35      	ldr	r2, [pc, #212]	; (800187c <HAL_DMA_Abort_IT+0x160>)
 80017a6:	4293      	cmp	r3, r2
 80017a8:	d143      	bne.n	8001832 <HAL_DMA_Abort_IT+0x116>
      {
        /* disable the DMAMUX sync overrun IT */
        hdma->DMAmuxChannel->CCR &= ~DMAMUX_CxCR_SOIE;
 80017aa:	6e02      	ldr	r2, [r0, #96]	; 0x60
 80017ac:	6813      	ldr	r3, [r2, #0]
 80017ae:	f423 7380 	bic.w	r3, r3, #256	; 0x100
 80017b2:	6013      	str	r3, [r2, #0]

        /* Clear all flags */
        regs_bdma = (BDMA_Base_Registers *)hdma->StreamBaseAddress;
        regs_bdma->IFCR = ((BDMA_IFCR_CGIF0) << (hdma->StreamIndex & 0x1FU));
 80017b4:	e9d0 1316 	ldrd	r1, r3, [r0, #88]	; 0x58
 80017b8:	f003 021f 	and.w	r2, r3, #31
 80017bc:	2301      	movs	r3, #1
 80017be:	4093      	lsls	r3, r2
 80017c0:	604b      	str	r3, [r1, #4]

        /* Clear the DMAMUX synchro overrun flag */
        hdma->DMAmuxChannelStatus->CFR = hdma->DMAmuxChannelStatusMask;
 80017c2:	e9d0 3219 	ldrd	r3, r2, [r0, #100]	; 0x64
 80017c6:	605a      	str	r2, [r3, #4]

        if(hdma->DMAmuxRequestGen != 0U)
 80017c8:	6ec3      	ldr	r3, [r0, #108]	; 0x6c
 80017ca:	2b00      	cmp	r3, #0
 80017cc:	d046      	beq.n	800185c <HAL_DMA_Abort_IT+0x140>
        {
          /* if using DMAMUX request generator, disable the DMAMUX request generator overrun IT*/
          /* disable the request gen overrun IT */
          hdma->DMAmuxRequestGen->RGCR &= ~DMAMUX_RGxCR_OIE;
 80017ce:	681a      	ldr	r2, [r3, #0]
 80017d0:	f422 7280 	bic.w	r2, r2, #256	; 0x100
 80017d4:	601a      	str	r2, [r3, #0]

          /* Clear the DMAMUX request generator overrun flag */
          hdma->DMAmuxRequestGenStatus->RGCFR = hdma->DMAmuxRequestGenStatusMask;
 80017d6:	e9d0 321c 	ldrd	r3, r2, [r0, #112]	; 0x70
 80017da:	605a      	str	r2, [r3, #4]
 80017dc:	e03e      	b.n	800185c <HAL_DMA_Abort_IT+0x140>
      hdma->State = HAL_DMA_STATE_ABORT;
 80017de:	2104      	movs	r1, #4
      __HAL_DMA_DISABLE(hdma);
 80017e0:	4293      	cmp	r3, r2
      hdma->State = HAL_DMA_STATE_ABORT;
 80017e2:	f880 1035 	strb.w	r1, [r0, #53]	; 0x35
      __HAL_DMA_DISABLE(hdma);
 80017e6:	d01e      	beq.n	8001826 <HAL_DMA_Abort_IT+0x10a>
 80017e8:	4a23      	ldr	r2, [pc, #140]	; (8001878 <HAL_DMA_Abort_IT+0x15c>)
 80017ea:	4293      	cmp	r3, r2
 80017ec:	d01b      	beq.n	8001826 <HAL_DMA_Abort_IT+0x10a>
 80017ee:	3218      	adds	r2, #24
 80017f0:	4293      	cmp	r3, r2
 80017f2:	d018      	beq.n	8001826 <HAL_DMA_Abort_IT+0x10a>
 80017f4:	3218      	adds	r2, #24
 80017f6:	4293      	cmp	r3, r2
 80017f8:	d015      	beq.n	8001826 <HAL_DMA_Abort_IT+0x10a>
 80017fa:	3218      	adds	r2, #24
 80017fc:	4293      	cmp	r3, r2
 80017fe:	d012      	beq.n	8001826 <HAL_DMA_Abort_IT+0x10a>
 8001800:	3218      	adds	r2, #24
 8001802:	4293      	cmp	r3, r2
 8001804:	d00f      	beq.n	8001826 <HAL_DMA_Abort_IT+0x10a>
 8001806:	3218      	adds	r2, #24
 8001808:	4293      	cmp	r3, r2
 800180a:	d00c      	beq.n	8001826 <HAL_DMA_Abort_IT+0x10a>
 800180c:	3218      	adds	r2, #24
 800180e:	4293      	cmp	r3, r2
 8001810:	d009      	beq.n	8001826 <HAL_DMA_Abort_IT+0x10a>
 8001812:	f502 7256 	add.w	r2, r2, #856	; 0x358
 8001816:	4293      	cmp	r3, r2
 8001818:	d005      	beq.n	8001826 <HAL_DMA_Abort_IT+0x10a>
 800181a:	3218      	adds	r2, #24
 800181c:	4293      	cmp	r3, r2
 800181e:	d002      	beq.n	8001826 <HAL_DMA_Abort_IT+0x10a>
 8001820:	3218      	adds	r2, #24
 8001822:	4293      	cmp	r3, r2
 8001824:	d0ff      	beq.n	8001826 <HAL_DMA_Abort_IT+0x10a>
 8001826:	681a      	ldr	r2, [r3, #0]
 8001828:	f022 0201 	bic.w	r2, r2, #1
 800182c:	601a      	str	r2, [r3, #0]
        hdma->XferAbortCallback(hdma);
      }
    }
  }

  return HAL_OK;
 800182e:	2000      	movs	r0, #0
}
 8001830:	bd10      	pop	{r4, pc}
      if(IS_DMA_DMAMUX_ALL_INSTANCE(hdma->Instance) != 0U) /* No DMAMUX available for BDMA1 */
 8001832:	4a13      	ldr	r2, [pc, #76]	; (8001880 <HAL_DMA_Abort_IT+0x164>)
 8001834:	4293      	cmp	r3, r2
 8001836:	d0b8      	beq.n	80017aa <HAL_DMA_Abort_IT+0x8e>
 8001838:	3214      	adds	r2, #20
 800183a:	4293      	cmp	r3, r2
 800183c:	d0b5      	beq.n	80017aa <HAL_DMA_Abort_IT+0x8e>
 800183e:	3214      	adds	r2, #20
 8001840:	4293      	cmp	r3, r2
 8001842:	d0b2      	beq.n	80017aa <HAL_DMA_Abort_IT+0x8e>
 8001844:	3214      	adds	r2, #20
 8001846:	4293      	cmp	r3, r2
 8001848:	d0af      	beq.n	80017aa <HAL_DMA_Abort_IT+0x8e>
 800184a:	3214      	adds	r2, #20
 800184c:	4293      	cmp	r3, r2
 800184e:	d0ac      	beq.n	80017aa <HAL_DMA_Abort_IT+0x8e>
 8001850:	3214      	adds	r2, #20
 8001852:	4293      	cmp	r3, r2
 8001854:	d0a9      	beq.n	80017aa <HAL_DMA_Abort_IT+0x8e>
 8001856:	3214      	adds	r2, #20
 8001858:	4293      	cmp	r3, r2
 800185a:	d0a6      	beq.n	80017aa <HAL_DMA_Abort_IT+0x8e>
      hdma->State = HAL_DMA_STATE_READY;
 800185c:	2301      	movs	r3, #1
      __HAL_UNLOCK(hdma);
 800185e:	2400      	movs	r4, #0
      hdma->State = HAL_DMA_STATE_READY;
 8001860:	f880 3035 	strb.w	r3, [r0, #53]	; 0x35
      if(hdma->XferAbortCallback != NULL)
 8001864:	6d03      	ldr	r3, [r0, #80]	; 0x50
      __HAL_UNLOCK(hdma);
 8001866:	f880 4034 	strb.w	r4, [r0, #52]	; 0x34
      if(hdma->XferAbortCallback != NULL)
 800186a:	b10b      	cbz	r3, 8001870 <HAL_DMA_Abort_IT+0x154>
        hdma->XferAbortCallback(hdma);
 800186c:	4798      	blx	r3
 800186e:	e7de      	b.n	800182e <HAL_DMA_Abort_IT+0x112>
  return HAL_OK;
 8001870:	4618      	mov	r0, r3
 8001872:	e7dd      	b.n	8001830 <HAL_DMA_Abort_IT+0x114>
 8001874:	40020010 	.word	0x40020010
 8001878:	40020028 	.word	0x40020028
 800187c:	58025408 	.word	0x58025408
 8001880:	5802541c 	.word	0x5802541c

08001884 <ETH_SetMACConfig>:
static void ETH_SetMACConfig(ETH_HandleTypeDef *heth,  ETH_MACConfigTypeDef *macconf)
{
  uint32_t macregval;

  /*------------------------ MACCR Configuration --------------------*/
  macregval =(macconf->InterPacketGapVal |
 8001884:	688b      	ldr	r3, [r1, #8]
 8001886:	680a      	ldr	r2, [r1, #0]
{
 8001888:	e92d 4ff0 	stmdb	sp!, {r4, r5, r6, r7, r8, r9, sl, fp, lr}
 800188c:	431a      	orrs	r2, r3
                ((uint32_t)macconf->ChecksumOffload<< 27) |
                  ((uint32_t)macconf->GiantPacketSizeLimitControl << 23) |
                    ((uint32_t)macconf->Support2KPacket  << 22) |
                      ((uint32_t)macconf->CRCStripTypePacket << 21) |
                        ((uint32_t)macconf->AutomaticPadCRCStrip << 20) |
                          ((uint32_t)((macconf->Watchdog == DISABLE) ? 1U : 0U) << 19) |
 800188e:	7c0b      	ldrb	r3, [r1, #16]
{
 8001890:	b085      	sub	sp, #20
                ((uint32_t)macconf->ChecksumOffload<< 27) |
 8001892:	f891 a004 	ldrb.w	sl, [r1, #4]
                          ((uint32_t)((macconf->Watchdog == DISABLE) ? 1U : 0U) << 19) |
 8001896:	2b00      	cmp	r3, #0
                  ((uint32_t)macconf->GiantPacketSizeLimitControl << 23) |
 8001898:	f891 900c 	ldrb.w	r9, [r1, #12]
                    ((uint32_t)macconf->Support2KPacket  << 22) |
 800189c:	f891 800d 	ldrb.w	r8, [r1, #13]
                          ((uint32_t)((macconf->Watchdog == DISABLE) ? 1U : 0U) << 19) |
 80018a0:	bf0c      	ite	eq
 80018a2:	f44f 2300 	moveq.w	r3, #524288	; 0x80000
 80018a6:	2300      	movne	r3, #0
                      ((uint32_t)macconf->CRCStripTypePacket << 21) |
 80018a8:	f891 e00e 	ldrb.w	lr, [r1, #14]
                          ((uint32_t)((macconf->Watchdog == DISABLE) ? 1U : 0U) << 19) |
 80018ac:	9301      	str	r3, [sp, #4]
                            ((uint32_t)((macconf->Jabber == DISABLE) ? 1U : 0U) << 17) |
 80018ae:	7c4b      	ldrb	r3, [r1, #17]
                        ((uint32_t)macconf->AutomaticPadCRCStrip << 20) |
 80018b0:	f891 c00f 	ldrb.w	ip, [r1, #15]
                            ((uint32_t)((macconf->Jabber == DISABLE) ? 1U : 0U) << 17) |
 80018b4:	2b00      	cmp	r3, #0
                              ((uint32_t)macconf->JumboPacket << 16) |
 80018b6:	7c8e      	ldrb	r6, [r1, #18]
                                macconf->Speed |
                                  macconf->DuplexMode |
                                    ((uint32_t)macconf->LoopbackMode << 12) |
 80018b8:	7f0d      	ldrb	r5, [r1, #28]
                            ((uint32_t)((macconf->Jabber == DISABLE) ? 1U : 0U) << 17) |
 80018ba:	bf0c      	ite	eq
 80018bc:	f44f 3300 	moveq.w	r3, #131072	; 0x20000
 80018c0:	2300      	movne	r3, #0
                                      ((uint32_t)macconf->CarrierSenseBeforeTransmit << 11)|
 80018c2:	f891 b01d 	ldrb.w	fp, [r1, #29]
                            ((uint32_t)((macconf->Jabber == DISABLE) ? 1U : 0U) << 17) |
 80018c6:	9302      	str	r3, [sp, #8]
 80018c8:	694b      	ldr	r3, [r1, #20]
 80018ca:	431a      	orrs	r2, r3
 80018cc:	698b      	ldr	r3, [r1, #24]
 80018ce:	4313      	orrs	r3, r2
                                        ((uint32_t)((macconf->ReceiveOwn == DISABLE) ? 1U : 0U) << 10)|
 80018d0:	7f8a      	ldrb	r2, [r1, #30]
 80018d2:	2a00      	cmp	r2, #0
                                          ((uint32_t)macconf->CarrierSenseDuringTransmit << 9)|
 80018d4:	7fca      	ldrb	r2, [r1, #31]
 80018d6:	9203      	str	r2, [sp, #12]
                                        ((uint32_t)((macconf->ReceiveOwn == DISABLE) ? 1U : 0U) << 10)|
 80018d8:	bf08      	it	eq
 80018da:	f44f 6780 	moveq.w	r7, #1024	; 0x400
                                            ((uint32_t)((macconf->RetryTransmission == DISABLE) ? 1U : 0U) << 8)|
 80018de:	f891 2020 	ldrb.w	r2, [r1, #32]
                                        ((uint32_t)((macconf->ReceiveOwn == DISABLE) ? 1U : 0U) << 10)|
 80018e2:	bf18      	it	ne
 80018e4:	2700      	movne	r7, #0
                                            ((uint32_t)((macconf->RetryTransmission == DISABLE) ? 1U : 0U) << 8)|
 80018e6:	2a00      	cmp	r2, #0
                                              macconf->BackOffLimit |
                                                ((uint32_t)macconf->DeferralCheck << 4)|
                                                  macconf->PreambleLength);

  /* Write to MACCR */
  MODIFY_REG(heth->Instance->MACCR, ETH_MACCR_MASK, macregval);
 80018e8:	6802      	ldr	r2, [r0, #0]
 80018ea:	6810      	ldr	r0, [r2, #0]
                                            ((uint32_t)((macconf->RetryTransmission == DISABLE) ? 1U : 0U) << 8)|
 80018ec:	bf0c      	ite	eq
 80018ee:	f44f 7480 	moveq.w	r4, #256	; 0x100
 80018f2:	2400      	movne	r4, #0
  MODIFY_REG(heth->Instance->MACCR, ETH_MACCR_MASK, macregval);
 80018f4:	9000      	str	r0, [sp, #0]
 80018f6:	6a48      	ldr	r0, [r1, #36]	; 0x24
 80018f8:	4303      	orrs	r3, r0
 80018fa:	6ac8      	ldr	r0, [r1, #44]	; 0x2c
 80018fc:	4303      	orrs	r3, r0
 80018fe:	9800      	ldr	r0, [sp, #0]
 8001900:	f020 407f 	bic.w	r0, r0, #4278190080	; 0xff000000
 8001904:	f420 007b 	bic.w	r0, r0, #16449536	; 0xfb0000
 8001908:	f420 40fe 	bic.w	r0, r0, #32512	; 0x7f00
 800190c:	f020 007c 	bic.w	r0, r0, #124	; 0x7c
 8001910:	4303      	orrs	r3, r0
 8001912:	9803      	ldr	r0, [sp, #12]
 8001914:	ea43 63ca 	orr.w	r3, r3, sl, lsl #27
 8001918:	ea43 53c9 	orr.w	r3, r3, r9, lsl #23
 800191c:	ea43 5388 	orr.w	r3, r3, r8, lsl #22
 8001920:	ea43 534e 	orr.w	r3, r3, lr, lsl #21
 8001924:	ea43 530c 	orr.w	r3, r3, ip, lsl #20
 8001928:	ea43 4306 	orr.w	r3, r3, r6, lsl #16
 800192c:	ea43 3305 	orr.w	r3, r3, r5, lsl #12
 8001930:	ea43 23cb 	orr.w	r3, r3, fp, lsl #11
                                                ((uint32_t)macconf->DeferralCheck << 4)|
 8001934:	f891 b028 	ldrb.w	fp, [r1, #40]	; 0x28
  MODIFY_REG(heth->Instance->MACCR, ETH_MACCR_MASK, macregval);
 8001938:	ea43 2340 	orr.w	r3, r3, r0, lsl #9
 800193c:	9801      	ldr	r0, [sp, #4]
 800193e:	ea43 130b 	orr.w	r3, r3, fp, lsl #4
 8001942:	4303      	orrs	r3, r0
 8001944:	9802      	ldr	r0, [sp, #8]
 8001946:	4303      	orrs	r3, r0
 8001948:	433b      	orrs	r3, r7
 800194a:	431c      	orrs	r4, r3
 800194c:	6014      	str	r4, [r2, #0]

  /*------------------------ MACECR Configuration --------------------*/
  macregval = ((macconf->ExtendedInterPacketGapVal << 25)|
 800194e:	6bce      	ldr	r6, [r1, #60]	; 0x3c
               ((uint32_t)macconf->ExtendedInterPacketGap << 24)|
                 ((uint32_t)macconf->UnicastSlowProtocolPacketDetect << 18)|
                   ((uint32_t)macconf->SlowProtocolDetect << 17)|
                     ((uint32_t)((macconf->CRCCheckingRxPackets == DISABLE) ? 1U : 0U)<< 16) |
 8001950:	f891 3032 	ldrb.w	r3, [r1, #50]	; 0x32
               ((uint32_t)macconf->ExtendedInterPacketGap << 24)|
 8001954:	f891 7038 	ldrb.w	r7, [r1, #56]	; 0x38
                     ((uint32_t)((macconf->CRCCheckingRxPackets == DISABLE) ? 1U : 0U)<< 16) |
 8001958:	2b00      	cmp	r3, #0
                       macconf->GiantPacketSizeLimit);

  /* Write to MACECR */
  MODIFY_REG(heth->Instance->MACECR, ETH_MACECR_MASK, macregval);
 800195a:	6853      	ldr	r3, [r2, #4]
                 ((uint32_t)macconf->UnicastSlowProtocolPacketDetect << 18)|
 800195c:	f891 5030 	ldrb.w	r5, [r1, #48]	; 0x30
  MODIFY_REG(heth->Instance->MACECR, ETH_MACECR_MASK, macregval);
 8001960:	f023 537c 	bic.w	r3, r3, #1056964608	; 0x3f000000
                   ((uint32_t)macconf->SlowProtocolDetect << 17)|
 8001964:	f891 4031 	ldrb.w	r4, [r1, #49]	; 0x31
                     ((uint32_t)((macconf->CRCCheckingRxPackets == DISABLE) ? 1U : 0U)<< 16) |
 8001968:	bf0c      	ite	eq
 800196a:	f44f 3080 	moveq.w	r0, #65536	; 0x10000
 800196e:	2000      	movne	r0, #0
  MODIFY_REG(heth->Instance->MACECR, ETH_MACECR_MASK, macregval);
 8001970:	f423 23ef 	bic.w	r3, r3, #489472	; 0x77800
 8001974:	f423 63ff 	bic.w	r3, r3, #2040	; 0x7f8
 8001978:	f023 0307 	bic.w	r3, r3, #7
 800197c:	ea43 6346 	orr.w	r3, r3, r6, lsl #25
 8001980:	6b4e      	ldr	r6, [r1, #52]	; 0x34
 8001982:	4333      	orrs	r3, r6

  /*------------------------ MACTFCR Configuration --------------------*/
  macregval = (((uint32_t)macconf->TransmitFlowControl << 1) |
               macconf->PauseLowThreshold |
                 ((uint32_t)((macconf->ZeroQuantaPause == DISABLE) ? 1U : 0U)<< 7) |
                   (macconf->PauseTime << 16));
 8001984:	6c8e      	ldr	r6, [r1, #72]	; 0x48
  MODIFY_REG(heth->Instance->MACECR, ETH_MACECR_MASK, macregval);
 8001986:	ea43 6307 	orr.w	r3, r3, r7, lsl #24
 800198a:	ea43 4385 	orr.w	r3, r3, r5, lsl #18
               macconf->PauseLowThreshold |
 800198e:	6d0d      	ldr	r5, [r1, #80]	; 0x50
  MODIFY_REG(heth->Instance->MACECR, ETH_MACECR_MASK, macregval);
 8001990:	ea43 4344 	orr.w	r3, r3, r4, lsl #17
 8001994:	4303      	orrs	r3, r0
  MODIFY_REG(heth->Instance->MACWTR, ETH_MACWTR_MASK, macregval);
 8001996:	6c48      	ldr	r0, [r1, #68]	; 0x44
  MODIFY_REG(heth->Instance->MACECR, ETH_MACECR_MASK, macregval);
 8001998:	6053      	str	r3, [r2, #4]
  MODIFY_REG(heth->Instance->MACWTR, ETH_MACWTR_MASK, macregval);
 800199a:	68d3      	ldr	r3, [r2, #12]
 800199c:	f423 7387 	bic.w	r3, r3, #270	; 0x10e
 80019a0:	f023 0301 	bic.w	r3, r3, #1
 80019a4:	4303      	orrs	r3, r0
  macregval = (((uint32_t)macconf->ProgrammableWatchdog << 8) |
 80019a6:	f891 0040 	ldrb.w	r0, [r1, #64]	; 0x40
  MODIFY_REG(heth->Instance->MACWTR, ETH_MACWTR_MASK, macregval);
 80019aa:	ea43 2300 	orr.w	r3, r3, r0, lsl #8
 80019ae:	60d3      	str	r3, [r2, #12]
                 ((uint32_t)((macconf->ZeroQuantaPause == DISABLE) ? 1U : 0U)<< 7) |
 80019b0:	f891 304c 	ldrb.w	r3, [r1, #76]	; 0x4c
  macregval = (((uint32_t)macconf->TransmitFlowControl << 1) |
 80019b4:	f891 4054 	ldrb.w	r4, [r1, #84]	; 0x54
                 ((uint32_t)((macconf->ZeroQuantaPause == DISABLE) ? 1U : 0U)<< 7) |
 80019b8:	2b00      	cmp	r3, #0

  /* Write to MACTFCR */
  MODIFY_REG(heth->Instance->MACTFCR, ETH_MACTFCR_MASK, macregval);
 80019ba:	6f13      	ldr	r3, [r2, #112]	; 0x70
 80019bc:	f023 03f2 	bic.w	r3, r3, #242	; 0xf2
                 ((uint32_t)((macconf->ZeroQuantaPause == DISABLE) ? 1U : 0U)<< 7) |
 80019c0:	bf0c      	ite	eq
 80019c2:	2080      	moveq	r0, #128	; 0x80
 80019c4:	2000      	movne	r0, #0
  MODIFY_REG(heth->Instance->MACTFCR, ETH_MACTFCR_MASK, macregval);
 80019c6:	041b      	lsls	r3, r3, #16
 80019c8:	0c1b      	lsrs	r3, r3, #16
 80019ca:	ea43 4306 	orr.w	r3, r3, r6, lsl #16
 80019ce:	432b      	orrs	r3, r5
  /*------------------------ MTLTQOMR Configuration --------------------*/
  /* Write to MTLTQOMR */
  MODIFY_REG(heth->Instance->MTLTQOMR, ETH_MTLTQOMR_MASK, macconf->TransmitQueueMode);

  /*------------------------ MTLRQOMR Configuration --------------------*/
  macregval = (macconf->ReceiveQueueMode |
 80019d0:	6dcd      	ldr	r5, [r1, #92]	; 0x5c
  MODIFY_REG(heth->Instance->MACTFCR, ETH_MACTFCR_MASK, macregval);
 80019d2:	ea43 0344 	orr.w	r3, r3, r4, lsl #1
 80019d6:	4303      	orrs	r3, r0
 80019d8:	6713      	str	r3, [r2, #112]	; 0x70
  MODIFY_REG(heth->Instance->MACRFCR, ETH_MACRFCR_MASK, macregval);
 80019da:	f8d2 0090 	ldr.w	r0, [r2, #144]	; 0x90
  macregval = ((uint32_t)macconf->ReceiveFlowControl |
 80019de:	f891 3056 	ldrb.w	r3, [r1, #86]	; 0x56
  MODIFY_REG(heth->Instance->MACRFCR, ETH_MACRFCR_MASK, macregval);
 80019e2:	f020 0003 	bic.w	r0, r0, #3
 80019e6:	4303      	orrs	r3, r0
               ((uint32_t)macconf->UnicastPausePacketDetect << 1));
 80019e8:	f891 0055 	ldrb.w	r0, [r1, #85]	; 0x55
  MODIFY_REG(heth->Instance->MACRFCR, ETH_MACRFCR_MASK, macregval);
 80019ec:	ea43 0340 	orr.w	r3, r3, r0, lsl #1
  MODIFY_REG(heth->Instance->MTLTQOMR, ETH_MTLTQOMR_MASK, macconf->TransmitQueueMode);
 80019f0:	6d88      	ldr	r0, [r1, #88]	; 0x58
  MODIFY_REG(heth->Instance->MACRFCR, ETH_MACRFCR_MASK, macregval);
 80019f2:	f8c2 3090 	str.w	r3, [r2, #144]	; 0x90
  MODIFY_REG(heth->Instance->MTLTQOMR, ETH_MTLTQOMR_MASK, macconf->TransmitQueueMode);
 80019f6:	f8d2 3d00 	ldr.w	r3, [r2, #3328]	; 0xd00
 80019fa:	f023 0372 	bic.w	r3, r3, #114	; 0x72
 80019fe:	4303      	orrs	r3, r0
 8001a00:	f8c2 3d00 	str.w	r3, [r2, #3328]	; 0xd00
               ((uint32_t)((macconf->DropTCPIPChecksumErrorPacket == DISABLE) ? 1U : 0U) << 6) |
 8001a04:	f891 3060 	ldrb.w	r3, [r1, #96]	; 0x60
                 ((uint32_t)macconf->ForwardRxErrorPacket << 4) |
 8001a08:	f891 4061 	ldrb.w	r4, [r1, #97]	; 0x61
               ((uint32_t)((macconf->DropTCPIPChecksumErrorPacket == DISABLE) ? 1U : 0U) << 6) |
 8001a0c:	2b00      	cmp	r3, #0
                   ((uint32_t)macconf->ForwardRxUndersizedGoodPacket << 3));

  /* Write to MTLRQOMR */
  MODIFY_REG(heth->Instance->MTLRQOMR, ETH_MTLRQOMR_MASK, macregval);
 8001a0e:	f8d2 3d30 	ldr.w	r3, [r2, #3376]	; 0xd30
                   ((uint32_t)macconf->ForwardRxUndersizedGoodPacket << 3));
 8001a12:	f891 1062 	ldrb.w	r1, [r1, #98]	; 0x62
  MODIFY_REG(heth->Instance->MTLRQOMR, ETH_MTLRQOMR_MASK, macregval);
 8001a16:	f023 037b 	bic.w	r3, r3, #123	; 0x7b
               ((uint32_t)((macconf->DropTCPIPChecksumErrorPacket == DISABLE) ? 1U : 0U) << 6) |
 8001a1a:	bf0c      	ite	eq
 8001a1c:	2040      	moveq	r0, #64	; 0x40
 8001a1e:	2000      	movne	r0, #0
  MODIFY_REG(heth->Instance->MTLRQOMR, ETH_MTLRQOMR_MASK, macregval);
 8001a20:	432b      	orrs	r3, r5
 8001a22:	ea43 1304 	orr.w	r3, r3, r4, lsl #4
 8001a26:	ea43 03c1 	orr.w	r3, r3, r1, lsl #3
 8001a2a:	4303      	orrs	r3, r0
 8001a2c:	f8c2 3d30 	str.w	r3, [r2, #3376]	; 0xd30
}
 8001a30:	b005      	add	sp, #20
 8001a32:	e8bd 8ff0 	ldmia.w	sp!, {r4, r5, r6, r7, r8, r9, sl, fp, pc}
	...

08001a38 <ETH_SetDMAConfig>:
static void ETH_SetDMAConfig(ETH_HandleTypeDef *heth,  ETH_DMAConfigTypeDef *dmaconf)
{
  uint32_t dmaregval;

  /*------------------------ DMAMR Configuration --------------------*/
  MODIFY_REG(heth->Instance->DMAMR, ETH_DMAMR_MASK, dmaconf->DMAArbitration);
 8001a38:	6802      	ldr	r2, [r0, #0]
 8001a3a:	f502 5080 	add.w	r0, r2, #4096	; 0x1000
 8001a3e:	6803      	ldr	r3, [r0, #0]
 8001a40:	f423 43f0 	bic.w	r3, r3, #30720	; 0x7800
{
 8001a44:	b530      	push	{r4, r5, lr}
  MODIFY_REG(heth->Instance->DMAMR, ETH_DMAMR_MASK, dmaconf->DMAArbitration);
 8001a46:	f023 0302 	bic.w	r3, r3, #2
 8001a4a:	680c      	ldr	r4, [r1, #0]
 8001a4c:	4323      	orrs	r3, r4
  /*------------------------ DMASBMR Configuration --------------------*/
  dmaregval = (((uint32_t)dmaconf->AddressAlignedBeats << 12) |
               dmaconf->BurstMode |
                 ((uint32_t)dmaconf->RebuildINCRxBurst << 15));

  MODIFY_REG(heth->Instance->DMASBMR, ETH_DMASBMR_MASK, dmaregval);
 8001a4e:	f241 0404 	movw	r4, #4100	; 0x1004
  MODIFY_REG(heth->Instance->DMAMR, ETH_DMAMR_MASK, dmaconf->DMAArbitration);
 8001a52:	6003      	str	r3, [r0, #0]
                 ((uint32_t)dmaconf->RebuildINCRxBurst << 15));
 8001a54:	7b0b      	ldrb	r3, [r1, #12]
  MODIFY_REG(heth->Instance->DMASBMR, ETH_DMASBMR_MASK, dmaregval);
 8001a56:	5910      	ldr	r0, [r2, r4]
  dmaregval = (((uint32_t)dmaconf->AddressAlignedBeats << 12) |
 8001a58:	790d      	ldrb	r5, [r1, #4]
                 ((uint32_t)dmaconf->RebuildINCRxBurst << 15));
 8001a5a:	03db      	lsls	r3, r3, #15
  MODIFY_REG(heth->Instance->DMASBMR, ETH_DMASBMR_MASK, dmaregval);
 8001a5c:	f420 4050 	bic.w	r0, r0, #53248	; 0xd000
  dmaregval = (((uint32_t)dmaconf->AddressAlignedBeats << 12) |
 8001a60:	ea43 3305 	orr.w	r3, r3, r5, lsl #12
 8001a64:	688d      	ldr	r5, [r1, #8]
  MODIFY_REG(heth->Instance->DMASBMR, ETH_DMASBMR_MASK, dmaregval);
 8001a66:	f020 0001 	bic.w	r0, r0, #1
  dmaregval = (((uint32_t)dmaconf->AddressAlignedBeats << 12) |
 8001a6a:	432b      	orrs	r3, r5
  MODIFY_REG(heth->Instance->DMASBMR, ETH_DMASBMR_MASK, dmaregval);
 8001a6c:	4303      	orrs	r3, r0
 8001a6e:	5113      	str	r3, [r2, r4]

  /*------------------------ DMACCR Configuration --------------------*/
  dmaregval = (((uint32_t)dmaconf->PBLx8Mode << 16) |
               dmaconf->MaximumSegmentSize);

  MODIFY_REG(heth->Instance->DMACCR, ETH_DMACCR_MASK, dmaregval);
 8001a70:	f502 5488 	add.w	r4, r2, #4352	; 0x1100
  dmaregval = (((uint32_t)dmaconf->PBLx8Mode << 16) |
 8001a74:	7b48      	ldrb	r0, [r1, #13]
 8001a76:	6a0b      	ldr	r3, [r1, #32]
  MODIFY_REG(heth->Instance->DMACCR, ETH_DMACCR_MASK, dmaregval);
 8001a78:	6825      	ldr	r5, [r4, #0]
  dmaregval = (((uint32_t)dmaconf->PBLx8Mode << 16) |
 8001a7a:	ea43 4300 	orr.w	r3, r3, r0, lsl #16
  MODIFY_REG(heth->Instance->DMACCR, ETH_DMACCR_MASK, dmaregval);
 8001a7e:	4810      	ldr	r0, [pc, #64]	; (8001ac0 <ETH_SetDMAConfig+0x88>)
 8001a80:	4028      	ands	r0, r5
 8001a82:	4303      	orrs	r3, r0
 8001a84:	6023      	str	r3, [r4, #0]
  /*------------------------ DMACTCR Configuration --------------------*/
  dmaregval = (dmaconf->TxDMABurstLength |
               ((uint32_t)dmaconf->SecondPacketOperate << 4)|
                 ((uint32_t)dmaconf->TCPSegmentation << 12));

  MODIFY_REG(heth->Instance->DMACTCR, ETH_DMACTCR_MASK, dmaregval);
 8001a86:	f241 1404 	movw	r4, #4356	; 0x1104
                 ((uint32_t)dmaconf->TCPSegmentation << 12));
 8001a8a:	7f4b      	ldrb	r3, [r1, #29]
               ((uint32_t)dmaconf->SecondPacketOperate << 4)|
 8001a8c:	7d08      	ldrb	r0, [r1, #20]
                 ((uint32_t)dmaconf->TCPSegmentation << 12));
 8001a8e:	031b      	lsls	r3, r3, #12
  MODIFY_REG(heth->Instance->DMACTCR, ETH_DMACTCR_MASK, dmaregval);
 8001a90:	5915      	ldr	r5, [r2, r4]
  dmaregval = (dmaconf->TxDMABurstLength |
 8001a92:	ea43 1300 	orr.w	r3, r3, r0, lsl #4
 8001a96:	6908      	ldr	r0, [r1, #16]
 8001a98:	4303      	orrs	r3, r0
  MODIFY_REG(heth->Instance->DMACTCR, ETH_DMACTCR_MASK, dmaregval);
 8001a9a:	480a      	ldr	r0, [pc, #40]	; (8001ac4 <ETH_SetDMAConfig+0x8c>)
 8001a9c:	4028      	ands	r0, r5
 8001a9e:	4303      	orrs	r3, r0
 8001aa0:	5113      	str	r3, [r2, r4]
  /*------------------------ DMACRCR Configuration --------------------*/
  dmaregval = (((uint32_t)dmaconf->FlushRxPacket  << 31) |
               dmaconf->RxDMABurstLength);

  /* Write to DMACRCR */
  MODIFY_REG(heth->Instance->DMACRCR, ETH_DMACRCR_MASK, dmaregval);
 8001aa2:	f241 1408 	movw	r4, #4360	; 0x1108
  dmaregval = (((uint32_t)dmaconf->FlushRxPacket  << 31) |
 8001aa6:	7f0d      	ldrb	r5, [r1, #28]
  MODIFY_REG(heth->Instance->DMACRCR, ETH_DMACRCR_MASK, dmaregval);
 8001aa8:	5910      	ldr	r0, [r2, r4]
  dmaregval = (((uint32_t)dmaconf->FlushRxPacket  << 31) |
 8001aaa:	698b      	ldr	r3, [r1, #24]
  MODIFY_REG(heth->Instance->DMACRCR, ETH_DMACRCR_MASK, dmaregval);
 8001aac:	f020 4100 	bic.w	r1, r0, #2147483648	; 0x80000000
  dmaregval = (((uint32_t)dmaconf->FlushRxPacket  << 31) |
 8001ab0:	ea43 73c5 	orr.w	r3, r3, r5, lsl #31
  MODIFY_REG(heth->Instance->DMACRCR, ETH_DMACRCR_MASK, dmaregval);
 8001ab4:	f421 117c 	bic.w	r1, r1, #4128768	; 0x3f0000
 8001ab8:	430b      	orrs	r3, r1
 8001aba:	5113      	str	r3, [r2, r4]
}
 8001abc:	bd30      	pop	{r4, r5, pc}
 8001abe:	bf00      	nop
 8001ac0:	fffec000 	.word	0xfffec000
 8001ac4:	ffc0efef 	.word	0xffc0efef

08001ac8 <ETH_Prepare_Tx_Descriptors>:
  * @param  pTxConfig: Tx packet configuration
  * @param  ItMode: Enable or disable Tx EOT interrept
  * @retval Status
  */
static uint32_t ETH_Prepare_Tx_Descriptors(ETH_HandleTypeDef *heth, ETH_TxPacketConfig *pTxConfig, uint32_t ItMode)
{
 8001ac8:	e92d 4ff7 	stmdb	sp!, {r0, r1, r2, r4, r5, r6, r7, r8, r9, sl, fp, lr}
  ETH_TxDescListTypeDef *dmatxdesclist = &heth->TxDescList;
  uint32_t descidx = dmatxdesclist->CurTxDesc;
 8001acc:	6a86      	ldr	r6, [r0, #40]	; 0x28
{
 8001ace:	4686      	mov	lr, r0
 8001ad0:	9201      	str	r2, [sp, #4]
  uint32_t firstdescidx = dmatxdesclist->CurTxDesc;
  uint32_t descnbr = 0, idx;
  ETH_DMADescTypeDef *dmatxdesc = (ETH_DMADescTypeDef *)dmatxdesclist->TxDesc[descidx];
 8001ad2:	eb00 0386 	add.w	r3, r0, r6, lsl #2

  ETH_BufferTypeDef  *txbuffer = pTxConfig->TxBuffer;
 8001ad6:	688f      	ldr	r7, [r1, #8]
  ETH_DMADescTypeDef *dmatxdesc = (ETH_DMADescTypeDef *)dmatxdesclist->TxDesc[descidx];
 8001ad8:	699a      	ldr	r2, [r3, #24]

  /* Current Tx Descriptor Owned by DMA: cannot be used by the application  */
  if(READ_BIT(dmatxdesc->DESC3, ETH_DMATXNDESCWBF_OWN) == ETH_DMATXNDESCWBF_OWN)
 8001ada:	68d3      	ldr	r3, [r2, #12]
 8001adc:	2b00      	cmp	r3, #0
 8001ade:	da03      	bge.n	8001ae8 <ETH_Prepare_Tx_Descriptors+0x20>
    {
      dmatxdesc = (ETH_DMADescTypeDef *)dmatxdesclist->TxDesc[firstdescidx];
      /* Clear own bit */
      CLEAR_BIT(dmatxdesc->DESC3, ETH_DMATXCDESC_OWN);

      return HAL_ETH_ERROR_BUSY;
 8001ae0:	2002      	movs	r0, #2

  dmatxdesclist->CurTxDesc = descidx;

  /* Return function status */
  return HAL_ETH_ERROR_NONE;
}
 8001ae2:	b003      	add	sp, #12
 8001ae4:	e8bd 8ff0 	ldmia.w	sp!, {r4, r5, r6, r7, r8, r9, sl, fp, pc}
  if(READ_BIT(pTxConfig->Attributes, ETH_TX_PACKETS_FEATURES_VLANTAG) != 0U)
 8001ae8:	680c      	ldr	r4, [r1, #0]
 8001aea:	f014 0c04 	ands.w	ip, r4, #4
 8001aee:	d029      	beq.n	8001b44 <ETH_Prepare_Tx_Descriptors+0x7c>
    MODIFY_REG(dmatxdesc->DESC3, ETH_DMATXCDESC_VT, pTxConfig->VlanTag);
 8001af0:	68d0      	ldr	r0, [r2, #12]
 8001af2:	6a4b      	ldr	r3, [r1, #36]	; 0x24
 8001af4:	0c00      	lsrs	r0, r0, #16
 8001af6:	0400      	lsls	r0, r0, #16
 8001af8:	4303      	orrs	r3, r0
    SET_BIT(heth->Instance->MACVIR, ETH_MACVIR_VLTI);
 8001afa:	f8de 0000 	ldr.w	r0, [lr]
    MODIFY_REG(dmatxdesc->DESC3, ETH_DMATXCDESC_VT, pTxConfig->VlanTag);
 8001afe:	60d3      	str	r3, [r2, #12]
    SET_BIT(dmatxdesc->DESC3, ETH_DMATXCDESC_VLTV);
 8001b00:	68d3      	ldr	r3, [r2, #12]
 8001b02:	f443 3380 	orr.w	r3, r3, #65536	; 0x10000
 8001b06:	60d3      	str	r3, [r2, #12]
    SET_BIT(heth->Instance->MACVIR, ETH_MACVIR_VLTI);
 8001b08:	6e03      	ldr	r3, [r0, #96]	; 0x60
 8001b0a:	f443 1380 	orr.w	r3, r3, #1048576	; 0x100000
 8001b0e:	6603      	str	r3, [r0, #96]	; 0x60
    if(READ_BIT(pTxConfig->Attributes, ETH_TX_PACKETS_FEATURES_INNERVLANTAG) != 0U)
 8001b10:	0723      	lsls	r3, r4, #28
 8001b12:	d517      	bpl.n	8001b44 <ETH_Prepare_Tx_Descriptors+0x7c>
      MODIFY_REG(dmatxdesc->DESC2, ETH_DMATXCDESC_IVT, (pTxConfig->InnerVlanTag << 16));
 8001b14:	6895      	ldr	r5, [r2, #8]
 8001b16:	6acb      	ldr	r3, [r1, #44]	; 0x2c
 8001b18:	b2ad      	uxth	r5, r5
 8001b1a:	ea45 4303 	orr.w	r3, r5, r3, lsl #16
 8001b1e:	6093      	str	r3, [r2, #8]
      SET_BIT(dmatxdesc->DESC3, ETH_DMATXCDESC_IVLTV);
 8001b20:	68d3      	ldr	r3, [r2, #12]
 8001b22:	f443 3300 	orr.w	r3, r3, #131072	; 0x20000
 8001b26:	60d3      	str	r3, [r2, #12]
      MODIFY_REG(dmatxdesc->DESC3, ETH_DMATXCDESC_IVTIR, pTxConfig->InnerVlanCtrl);
 8001b28:	68d5      	ldr	r5, [r2, #12]
 8001b2a:	6b0b      	ldr	r3, [r1, #48]	; 0x30
 8001b2c:	f425 2540 	bic.w	r5, r5, #786432	; 0xc0000
 8001b30:	432b      	orrs	r3, r5
 8001b32:	60d3      	str	r3, [r2, #12]
      SET_BIT(heth->Instance->MACIVIR, ETH_MACIVIR_VLTI);
 8001b34:	6e43      	ldr	r3, [r0, #100]	; 0x64
 8001b36:	f443 1380 	orr.w	r3, r3, #1048576	; 0x100000
 8001b3a:	6643      	str	r3, [r0, #100]	; 0x64
      SET_BIT(heth->Instance->MACVTR, ETH_MACVTR_EDVLP);
 8001b3c:	6d03      	ldr	r3, [r0, #80]	; 0x50
 8001b3e:	f043 6380 	orr.w	r3, r3, #67108864	; 0x4000000
 8001b42:	6503      	str	r3, [r0, #80]	; 0x50
  if(READ_BIT(pTxConfig->Attributes, ETH_TX_PACKETS_FEATURES_TSO) != 0U)
 8001b44:	f014 0910 	ands.w	r9, r4, #16
 8001b48:	d00b      	beq.n	8001b62 <ETH_Prepare_Tx_Descriptors+0x9a>
    MODIFY_REG(dmatxdesc->DESC2, ETH_DMATXCDESC_MSS, pTxConfig->MaxSegmentSize);
 8001b4a:	6890      	ldr	r0, [r2, #8]
 8001b4c:	698b      	ldr	r3, [r1, #24]
 8001b4e:	f420 507f 	bic.w	r0, r0, #16320	; 0x3fc0
 8001b52:	f020 003f 	bic.w	r0, r0, #63	; 0x3f
 8001b56:	4303      	orrs	r3, r0
 8001b58:	6093      	str	r3, [r2, #8]
    SET_BIT(dmatxdesc->DESC3, ETH_DMATXCDESC_TCMSSV);
 8001b5a:	68d3      	ldr	r3, [r2, #12]
 8001b5c:	f043 6380 	orr.w	r3, r3, #67108864	; 0x4000000
 8001b60:	60d3      	str	r3, [r2, #12]
  if((READ_BIT(pTxConfig->Attributes, ETH_TX_PACKETS_FEATURES_VLANTAG) != 0U)|| (READ_BIT(pTxConfig->Attributes, ETH_TX_PACKETS_FEATURES_TSO) != 0U))
 8001b62:	f014 0814 	ands.w	r8, r4, #20
 8001b66:	d016      	beq.n	8001b96 <ETH_Prepare_Tx_Descriptors+0xce>
    SET_BIT(dmatxdesc->DESC3, ETH_DMATXCDESC_CTXT);
 8001b68:	68d3      	ldr	r3, [r2, #12]
    INCR_TX_DESC_INDEX(descidx, 1U);
 8001b6a:	1c75      	adds	r5, r6, #1
    SET_BIT(dmatxdesc->DESC3, ETH_DMATXCDESC_CTXT);
 8001b6c:	f043 4380 	orr.w	r3, r3, #1073741824	; 0x40000000
    INCR_TX_DESC_INDEX(descidx, 1U);
 8001b70:	2d03      	cmp	r5, #3
    SET_BIT(dmatxdesc->DESC3, ETH_DMATXCDESC_CTXT);
 8001b72:	60d3      	str	r3, [r2, #12]
    INCR_TX_DESC_INDEX(descidx, 1U);
 8001b74:	bf88      	it	hi
 8001b76:	1ef5      	subhi	r5, r6, #3
    SET_BIT(dmatxdesc->DESC3, ETH_DMATXCDESC_OWN);
 8001b78:	68d3      	ldr	r3, [r2, #12]
 8001b7a:	f043 4300 	orr.w	r3, r3, #2147483648	; 0x80000000
 8001b7e:	60d3      	str	r3, [r2, #12]
    dmatxdesc = (ETH_DMADescTypeDef *)dmatxdesclist->TxDesc[descidx];
 8001b80:	eb0e 0385 	add.w	r3, lr, r5, lsl #2
 8001b84:	699b      	ldr	r3, [r3, #24]
    if(READ_BIT(dmatxdesc->DESC3, ETH_DMATXNDESCWBF_OWN) == ETH_DMATXNDESCWBF_OWN)
 8001b86:	68d8      	ldr	r0, [r3, #12]
 8001b88:	2800      	cmp	r0, #0
 8001b8a:	da70      	bge.n	8001c6e <ETH_Prepare_Tx_Descriptors+0x1a6>
      CLEAR_BIT(dmatxdesc->DESC3, ETH_DMATXCDESC_OWN);
 8001b8c:	68d3      	ldr	r3, [r2, #12]
 8001b8e:	f023 4300 	bic.w	r3, r3, #2147483648	; 0x80000000
 8001b92:	60d3      	str	r3, [r2, #12]
 8001b94:	e7a4      	b.n	8001ae0 <ETH_Prepare_Tx_Descriptors+0x18>
 8001b96:	4613      	mov	r3, r2
  uint32_t descidx = dmatxdesclist->CurTxDesc;
 8001b98:	4635      	mov	r5, r6
  WRITE_REG(dmatxdesc->DESC0, (uint32_t)txbuffer->buffer);
 8001b9a:	6838      	ldr	r0, [r7, #0]
  descnbr += 1U;
 8001b9c:	f108 0801 	add.w	r8, r8, #1
  WRITE_REG(dmatxdesc->DESC0, (uint32_t)txbuffer->buffer);
 8001ba0:	6018      	str	r0, [r3, #0]
  MODIFY_REG(dmatxdesc->DESC2, ETH_DMATXNDESCRF_B1L, txbuffer->len);
 8001ba2:	6898      	ldr	r0, [r3, #8]
 8001ba4:	f420 5a7f 	bic.w	sl, r0, #16320	; 0x3fc0
 8001ba8:	6878      	ldr	r0, [r7, #4]
 8001baa:	f02a 0a3f 	bic.w	sl, sl, #63	; 0x3f
 8001bae:	ea4a 0000 	orr.w	r0, sl, r0
 8001bb2:	f8df a1dc 	ldr.w	sl, [pc, #476]	; 8001d90 <ETH_Prepare_Tx_Descriptors+0x2c8>
 8001bb6:	6098      	str	r0, [r3, #8]
  if(txbuffer->next != NULL)
 8001bb8:	68b8      	ldr	r0, [r7, #8]
 8001bba:	2800      	cmp	r0, #0
 8001bbc:	d05a      	beq.n	8001c74 <ETH_Prepare_Tx_Descriptors+0x1ac>
    WRITE_REG(dmatxdesc->DESC1, (uint32_t)txbuffer->buffer);
 8001bbe:	6807      	ldr	r7, [r0, #0]
 8001bc0:	605f      	str	r7, [r3, #4]
    MODIFY_REG(dmatxdesc->DESC2, ETH_DMATXNDESCRF_B2L, (txbuffer->len << 16));
 8001bc2:	689f      	ldr	r7, [r3, #8]
 8001bc4:	ea07 0a0a 	and.w	sl, r7, sl
 8001bc8:	6847      	ldr	r7, [r0, #4]
 8001bca:	ea4a 4707 	orr.w	r7, sl, r7, lsl #16
 8001bce:	609f      	str	r7, [r3, #8]
    MODIFY_REG(dmatxdesc->DESC3, ETH_DMATXNDESCRF_THL, (pTxConfig->TCPHeaderLen << 19));
 8001bd0:	68df      	ldr	r7, [r3, #12]
  if(READ_BIT(pTxConfig->Attributes, ETH_TX_PACKETS_FEATURES_TSO) != 0U)
 8001bd2:	f1b9 0f00 	cmp.w	r9, #0
 8001bd6:	d054      	beq.n	8001c82 <ETH_Prepare_Tx_Descriptors+0x1ba>
    MODIFY_REG(dmatxdesc->DESC3, ETH_DMATXNDESCRF_THL, (pTxConfig->TCPHeaderLen << 19));
 8001bd8:	f427 0af0 	bic.w	sl, r7, #7864320	; 0x780000
 8001bdc:	6a0f      	ldr	r7, [r1, #32]
 8001bde:	ea4a 47c7 	orr.w	r7, sl, r7, lsl #19
 8001be2:	60df      	str	r7, [r3, #12]
    MODIFY_REG(dmatxdesc->DESC3, ETH_DMATXNDESCRF_TPL, pTxConfig->PayloadLen);
 8001be4:	68df      	ldr	r7, [r3, #12]
 8001be6:	ea4f 4a97 	mov.w	sl, r7, lsr #18
 8001bea:	69cf      	ldr	r7, [r1, #28]
 8001bec:	ea4f 4a8a 	mov.w	sl, sl, lsl #18
 8001bf0:	ea4a 0707 	orr.w	r7, sl, r7
 8001bf4:	60df      	str	r7, [r3, #12]
    SET_BIT(dmatxdesc->DESC3, ETH_DMATXNDESCRF_TSE);
 8001bf6:	68df      	ldr	r7, [r3, #12]
 8001bf8:	f447 2780 	orr.w	r7, r7, #262144	; 0x40000
      MODIFY_REG(dmatxdesc->DESC3, ETH_DMATXNDESCRF_CPC, pTxConfig->CRCPadCtrl);
 8001bfc:	60df      	str	r7, [r3, #12]
  if(READ_BIT(pTxConfig->Attributes, ETH_TX_PACKETS_FEATURES_VLANTAG) != 0U)
 8001bfe:	f1bc 0f00 	cmp.w	ip, #0
 8001c02:	d006      	beq.n	8001c12 <ETH_Prepare_Tx_Descriptors+0x14a>
    MODIFY_REG(dmatxdesc->DESC2, ETH_DMATXNDESCRF_VTIR, pTxConfig->VlanCtrl);
 8001c04:	689f      	ldr	r7, [r3, #8]
 8001c06:	f427 4c40 	bic.w	ip, r7, #49152	; 0xc000
 8001c0a:	6a8f      	ldr	r7, [r1, #40]	; 0x28
 8001c0c:	ea4c 0707 	orr.w	r7, ip, r7
 8001c10:	609f      	str	r7, [r3, #8]
  SET_BIT(dmatxdesc->DESC3, ETH_DMATXNDESCRF_FD);
 8001c12:	68df      	ldr	r7, [r3, #12]
 8001c14:	f047 5700 	orr.w	r7, r7, #536870912	; 0x20000000
 8001c18:	60df      	str	r7, [r3, #12]
  CLEAR_BIT(dmatxdesc->DESC3, ETH_DMATXNDESCRF_CTXT);
 8001c1a:	68df      	ldr	r7, [r3, #12]
 8001c1c:	f027 4780 	bic.w	r7, r7, #1073741824	; 0x40000000
 8001c20:	60df      	str	r7, [r3, #12]
  SET_BIT(dmatxdesc->DESC3, ETH_DMATXNDESCRF_OWN);
 8001c22:	68df      	ldr	r7, [r3, #12]
 8001c24:	f047 4700 	orr.w	r7, r7, #2147483648	; 0x80000000
 8001c28:	60df      	str	r7, [r3, #12]
  if(READ_BIT(pTxConfig->Attributes, ETH_TX_PACKETS_FEATURES_SAIC) != 0U)
 8001c2a:	07a7      	lsls	r7, r4, #30
 8001c2c:	d506      	bpl.n	8001c3c <ETH_Prepare_Tx_Descriptors+0x174>
    MODIFY_REG(dmatxdesc->DESC3, ETH_DMATXNDESCRF_SAIC, pTxConfig->SrcAddrCtrl);
 8001c2e:	68df      	ldr	r7, [r3, #12]
 8001c30:	f027 7c60 	bic.w	ip, r7, #58720256	; 0x3800000
 8001c34:	68cf      	ldr	r7, [r1, #12]
 8001c36:	ea4c 0707 	orr.w	r7, ip, r7
 8001c3a:	60df      	str	r7, [r3, #12]
 8001c3c:	f8df c150 	ldr.w	ip, [pc, #336]	; 8001d90 <ETH_Prepare_Tx_Descriptors+0x2c8>
      if(READ_BIT(pTxConfig->Attributes, ETH_TX_PACKETS_FEATURES_CSUM) != 0U)
 8001c40:	f004 0b01 	and.w	fp, r4, #1
      MODIFY_REG(dmatxdesc->DESC3, ETH_DMATXNDESCRF_TPL, pTxConfig->PayloadLen);
 8001c44:	f8df a14c 	ldr.w	sl, [pc, #332]	; 8001d94 <ETH_Prepare_Tx_Descriptors+0x2cc>
  while (txbuffer->next != NULL)
 8001c48:	6884      	ldr	r4, [r0, #8]
 8001c4a:	2c00      	cmp	r4, #0
 8001c4c:	d133      	bne.n	8001cb6 <ETH_Prepare_Tx_Descriptors+0x1ee>
  if(ItMode != ((uint32_t)RESET))
 8001c4e:	9a01      	ldr	r2, [sp, #4]
 8001c50:	2a00      	cmp	r2, #0
 8001c52:	f000 8099 	beq.w	8001d88 <ETH_Prepare_Tx_Descriptors+0x2c0>
    SET_BIT(dmatxdesc->DESC2, ETH_DMATXNDESCRF_IOC);
 8001c56:	689a      	ldr	r2, [r3, #8]
 8001c58:	f042 4200 	orr.w	r2, r2, #2147483648	; 0x80000000
    CLEAR_BIT(dmatxdesc->DESC2, ETH_DMATXNDESCRF_IOC);
 8001c5c:	609a      	str	r2, [r3, #8]
  return HAL_ETH_ERROR_NONE;
 8001c5e:	2000      	movs	r0, #0
  SET_BIT(dmatxdesc->DESC3, ETH_DMATXNDESCRF_LD);
 8001c60:	68da      	ldr	r2, [r3, #12]
 8001c62:	f042 5280 	orr.w	r2, r2, #268435456	; 0x10000000
 8001c66:	60da      	str	r2, [r3, #12]
  dmatxdesclist->CurTxDesc = descidx;
 8001c68:	f8ce 5028 	str.w	r5, [lr, #40]	; 0x28
  return HAL_ETH_ERROR_NONE;
 8001c6c:	e739      	b.n	8001ae2 <ETH_Prepare_Tx_Descriptors+0x1a>
    descnbr += 1U;
 8001c6e:	f04f 0801 	mov.w	r8, #1
 8001c72:	e792      	b.n	8001b9a <ETH_Prepare_Tx_Descriptors+0xd2>
    WRITE_REG(dmatxdesc->DESC1, 0x0);
 8001c74:	6058      	str	r0, [r3, #4]
    MODIFY_REG(dmatxdesc->DESC2, ETH_DMATXNDESCRF_B2L, 0x0U);
 8001c76:	6898      	ldr	r0, [r3, #8]
 8001c78:	ea00 000a 	and.w	r0, r0, sl
 8001c7c:	6098      	str	r0, [r3, #8]
 8001c7e:	4638      	mov	r0, r7
 8001c80:	e7a6      	b.n	8001bd0 <ETH_Prepare_Tx_Descriptors+0x108>
    MODIFY_REG(dmatxdesc->DESC3, ETH_DMATXNDESCRF_FL, pTxConfig->Length);
 8001c82:	f427 4aff 	bic.w	sl, r7, #32640	; 0x7f80
 8001c86:	684f      	ldr	r7, [r1, #4]
 8001c88:	f02a 0a7f 	bic.w	sl, sl, #127	; 0x7f
 8001c8c:	ea4a 0707 	orr.w	r7, sl, r7
 8001c90:	60df      	str	r7, [r3, #12]
    if(READ_BIT(pTxConfig->Attributes, ETH_TX_PACKETS_FEATURES_CSUM) != 0U)
 8001c92:	07e7      	lsls	r7, r4, #31
 8001c94:	d506      	bpl.n	8001ca4 <ETH_Prepare_Tx_Descriptors+0x1dc>
      MODIFY_REG(dmatxdesc->DESC3, ETH_DMATXNDESCRF_CIC, pTxConfig->ChecksumCtrl);
 8001c96:	68df      	ldr	r7, [r3, #12]
 8001c98:	f427 3a40 	bic.w	sl, r7, #196608	; 0x30000
 8001c9c:	694f      	ldr	r7, [r1, #20]
 8001c9e:	ea4a 0707 	orr.w	r7, sl, r7
 8001ca2:	60df      	str	r7, [r3, #12]
    if(READ_BIT(pTxConfig->Attributes, ETH_TX_PACKETS_FEATURES_CRCPAD) != 0U)
 8001ca4:	06a7      	lsls	r7, r4, #26
 8001ca6:	d5aa      	bpl.n	8001bfe <ETH_Prepare_Tx_Descriptors+0x136>
      MODIFY_REG(dmatxdesc->DESC3, ETH_DMATXNDESCRF_CPC, pTxConfig->CRCPadCtrl);
 8001ca8:	68df      	ldr	r7, [r3, #12]
 8001caa:	f027 6a40 	bic.w	sl, r7, #201326592	; 0xc000000
 8001cae:	690f      	ldr	r7, [r1, #16]
 8001cb0:	ea4a 0707 	orr.w	r7, sl, r7
 8001cb4:	e7a2      	b.n	8001bfc <ETH_Prepare_Tx_Descriptors+0x134>
    INCR_TX_DESC_INDEX(descidx, 1U);
 8001cb6:	1c6f      	adds	r7, r5, #1
    CLEAR_BIT(dmatxdesc->DESC3, ETH_DMATXNDESCRF_LD);
 8001cb8:	68d8      	ldr	r0, [r3, #12]
    INCR_TX_DESC_INDEX(descidx, 1U);
 8001cba:	2f03      	cmp	r7, #3
    CLEAR_BIT(dmatxdesc->DESC3, ETH_DMATXNDESCRF_LD);
 8001cbc:	f020 5080 	bic.w	r0, r0, #268435456	; 0x10000000
    INCR_TX_DESC_INDEX(descidx, 1U);
 8001cc0:	bf88      	it	hi
 8001cc2:	1eef      	subhi	r7, r5, #3
    CLEAR_BIT(dmatxdesc->DESC3, ETH_DMATXNDESCRF_LD);
 8001cc4:	60d8      	str	r0, [r3, #12]
    dmatxdesc = (ETH_DMADescTypeDef *)dmatxdesclist->TxDesc[descidx];
 8001cc6:	eb0e 0387 	add.w	r3, lr, r7, lsl #2
 8001cca:	699b      	ldr	r3, [r3, #24]
    CLEAR_BIT(dmatxdesc->DESC3, ETH_DMATXNDESCRF_FD);
 8001ccc:	68d8      	ldr	r0, [r3, #12]
 8001cce:	f020 5000 	bic.w	r0, r0, #536870912	; 0x20000000
 8001cd2:	60d8      	str	r0, [r3, #12]
    if(READ_BIT(dmatxdesc->DESC3, ETH_DMATXNDESCRF_OWN) == ETH_DMATXNDESCRF_OWN)
 8001cd4:	68d8      	ldr	r0, [r3, #12]
 8001cd6:	2800      	cmp	r0, #0
 8001cd8:	da11      	bge.n	8001cfe <ETH_Prepare_Tx_Descriptors+0x236>
      for(idx = 0; idx < descnbr; idx ++)
 8001cda:	2100      	movs	r1, #0
 8001cdc:	e00c      	b.n	8001cf8 <ETH_Prepare_Tx_Descriptors+0x230>
        CLEAR_BIT(dmatxdesc->DESC3, ETH_DMATXNDESCRF_OWN);
 8001cde:	68d3      	ldr	r3, [r2, #12]
      for(idx = 0; idx < descnbr; idx ++)
 8001ce0:	3101      	adds	r1, #1
        CLEAR_BIT(dmatxdesc->DESC3, ETH_DMATXNDESCRF_OWN);
 8001ce2:	f023 4300 	bic.w	r3, r3, #2147483648	; 0x80000000
 8001ce6:	60d3      	str	r3, [r2, #12]
        INCR_TX_DESC_INDEX(descidx, 1U);
 8001ce8:	1c73      	adds	r3, r6, #1
 8001cea:	2b03      	cmp	r3, #3
 8001cec:	bf88      	it	hi
 8001cee:	1ef3      	subhi	r3, r6, #3
        dmatxdesc = (ETH_DMADescTypeDef *)dmatxdesclist->TxDesc[descidx];
 8001cf0:	eb0e 0283 	add.w	r2, lr, r3, lsl #2
      for(idx = 0; idx < descnbr; idx ++)
 8001cf4:	461e      	mov	r6, r3
        dmatxdesc = (ETH_DMADescTypeDef *)dmatxdesclist->TxDesc[descidx];
 8001cf6:	6992      	ldr	r2, [r2, #24]
      for(idx = 0; idx < descnbr; idx ++)
 8001cf8:	4588      	cmp	r8, r1
 8001cfa:	d1f0      	bne.n	8001cde <ETH_Prepare_Tx_Descriptors+0x216>
 8001cfc:	e6f0      	b.n	8001ae0 <ETH_Prepare_Tx_Descriptors+0x18>
    WRITE_REG(dmatxdesc->DESC0, (uint32_t)txbuffer->buffer);
 8001cfe:	6820      	ldr	r0, [r4, #0]
    descnbr += 1U;
 8001d00:	f108 0801 	add.w	r8, r8, #1
    WRITE_REG(dmatxdesc->DESC0, (uint32_t)txbuffer->buffer);
 8001d04:	6018      	str	r0, [r3, #0]
    MODIFY_REG(dmatxdesc->DESC2, ETH_DMATXNDESCRF_B1L, txbuffer->len);
 8001d06:	689d      	ldr	r5, [r3, #8]
 8001d08:	6860      	ldr	r0, [r4, #4]
 8001d0a:	f425 557f 	bic.w	r5, r5, #16320	; 0x3fc0
 8001d0e:	f025 053f 	bic.w	r5, r5, #63	; 0x3f
 8001d12:	4328      	orrs	r0, r5
 8001d14:	6098      	str	r0, [r3, #8]
    if (txbuffer->next != NULL)
 8001d16:	68a0      	ldr	r0, [r4, #8]
 8001d18:	b1f8      	cbz	r0, 8001d5a <ETH_Prepare_Tx_Descriptors+0x292>
      WRITE_REG(dmatxdesc->DESC1, (uint32_t)txbuffer->buffer);
 8001d1a:	6804      	ldr	r4, [r0, #0]
 8001d1c:	605c      	str	r4, [r3, #4]
      MODIFY_REG(dmatxdesc->DESC2, ETH_DMATXNDESCRF_B2L, (txbuffer->len << 16));
 8001d1e:	689d      	ldr	r5, [r3, #8]
 8001d20:	6844      	ldr	r4, [r0, #4]
 8001d22:	ea05 050c 	and.w	r5, r5, ip
 8001d26:	ea45 4404 	orr.w	r4, r5, r4, lsl #16
 8001d2a:	609c      	str	r4, [r3, #8]
      MODIFY_REG(dmatxdesc->DESC3, ETH_DMATXNDESCRF_TPL, pTxConfig->PayloadLen);
 8001d2c:	68dd      	ldr	r5, [r3, #12]
    if(READ_BIT(pTxConfig->Attributes, ETH_TX_PACKETS_FEATURES_TSO) != 0U)
 8001d2e:	f1b9 0f00 	cmp.w	r9, #0
 8001d32:	d019      	beq.n	8001d68 <ETH_Prepare_Tx_Descriptors+0x2a0>
      MODIFY_REG(dmatxdesc->DESC3, ETH_DMATXNDESCRF_TPL, pTxConfig->PayloadLen);
 8001d34:	69cc      	ldr	r4, [r1, #28]
 8001d36:	ea05 050a 	and.w	r5, r5, sl
 8001d3a:	432c      	orrs	r4, r5
 8001d3c:	60dc      	str	r4, [r3, #12]
      SET_BIT(dmatxdesc->DESC3, ETH_DMATXNDESCRF_TSE);
 8001d3e:	68dc      	ldr	r4, [r3, #12]
 8001d40:	f444 2480 	orr.w	r4, r4, #262144	; 0x40000
        MODIFY_REG(dmatxdesc->DESC3, ETH_DMATXNDESCRF_CIC, pTxConfig->ChecksumCtrl);
 8001d44:	60dc      	str	r4, [r3, #12]
    SET_BIT(dmatxdesc->DESC3, ETH_DMATXNDESCRF_OWN);
 8001d46:	68dc      	ldr	r4, [r3, #12]
    CLEAR_BIT(dmatxdesc->DESC3, ETH_DMATXNDESCRF_CTXT);
 8001d48:	463d      	mov	r5, r7
    SET_BIT(dmatxdesc->DESC3, ETH_DMATXNDESCRF_OWN);
 8001d4a:	f044 4400 	orr.w	r4, r4, #2147483648	; 0x80000000
 8001d4e:	60dc      	str	r4, [r3, #12]
    CLEAR_BIT(dmatxdesc->DESC3, ETH_DMATXNDESCRF_CTXT);
 8001d50:	68dc      	ldr	r4, [r3, #12]
 8001d52:	f024 4480 	bic.w	r4, r4, #1073741824	; 0x40000000
 8001d56:	60dc      	str	r4, [r3, #12]
 8001d58:	e776      	b.n	8001c48 <ETH_Prepare_Tx_Descriptors+0x180>
      WRITE_REG(dmatxdesc->DESC1, 0x0);
 8001d5a:	6058      	str	r0, [r3, #4]
      MODIFY_REG(dmatxdesc->DESC2, ETH_DMATXNDESCRF_B2L, 0x0U);
 8001d5c:	6898      	ldr	r0, [r3, #8]
 8001d5e:	ea00 000c 	and.w	r0, r0, ip
 8001d62:	6098      	str	r0, [r3, #8]
 8001d64:	4620      	mov	r0, r4
 8001d66:	e7e1      	b.n	8001d2c <ETH_Prepare_Tx_Descriptors+0x264>
      MODIFY_REG(dmatxdesc->DESC3, ETH_DMATXNDESCRF_FL, pTxConfig->Length);
 8001d68:	f425 45ff 	bic.w	r5, r5, #32640	; 0x7f80
 8001d6c:	684c      	ldr	r4, [r1, #4]
 8001d6e:	f025 057f 	bic.w	r5, r5, #127	; 0x7f
 8001d72:	432c      	orrs	r4, r5
 8001d74:	60dc      	str	r4, [r3, #12]
      if(READ_BIT(pTxConfig->Attributes, ETH_TX_PACKETS_FEATURES_CSUM) != 0U)
 8001d76:	f1bb 0f00 	cmp.w	fp, #0
 8001d7a:	d0e4      	beq.n	8001d46 <ETH_Prepare_Tx_Descriptors+0x27e>
        MODIFY_REG(dmatxdesc->DESC3, ETH_DMATXNDESCRF_CIC, pTxConfig->ChecksumCtrl);
 8001d7c:	68dd      	ldr	r5, [r3, #12]
 8001d7e:	694c      	ldr	r4, [r1, #20]
 8001d80:	f425 3540 	bic.w	r5, r5, #196608	; 0x30000
 8001d84:	432c      	orrs	r4, r5
 8001d86:	e7dd      	b.n	8001d44 <ETH_Prepare_Tx_Descriptors+0x27c>
    CLEAR_BIT(dmatxdesc->DESC2, ETH_DMATXNDESCRF_IOC);
 8001d88:	689a      	ldr	r2, [r3, #8]
 8001d8a:	f022 4200 	bic.w	r2, r2, #2147483648	; 0x80000000
 8001d8e:	e765      	b.n	8001c5c <ETH_Prepare_Tx_Descriptors+0x194>
 8001d90:	c000ffff 	.word	0xc000ffff
 8001d94:	fffc0000 	.word	0xfffc0000

08001d98 <HAL_ETH_DescAssignMemory>:
  if((pBuffer1 == NULL) || (Index >= (uint32_t)ETH_RX_DESC_CNT))
 8001d98:	b10a      	cbz	r2, 8001d9e <HAL_ETH_DescAssignMemory+0x6>
 8001d9a:	2903      	cmp	r1, #3
 8001d9c:	d903      	bls.n	8001da6 <HAL_ETH_DescAssignMemory+0xe>
    heth->ErrorCode = HAL_ETH_ERROR_PARAM;
 8001d9e:	2301      	movs	r3, #1
 8001da0:	65c3      	str	r3, [r0, #92]	; 0x5c
    return HAL_ERROR;
 8001da2:	4618      	mov	r0, r3
 8001da4:	4770      	bx	lr
  ETH_DMADescTypeDef *dmarxdesc = (ETH_DMADescTypeDef *)heth->RxDescList.RxDesc[Index];
 8001da6:	eb00 0181 	add.w	r1, r0, r1, lsl #2
 8001daa:	6ac9      	ldr	r1, [r1, #44]	; 0x2c
  WRITE_REG(dmarxdesc->DESC0, (uint32_t)pBuffer1);
 8001dac:	600a      	str	r2, [r1, #0]
  WRITE_REG(dmarxdesc->BackupAddr0, (uint32_t)pBuffer1);
 8001dae:	610a      	str	r2, [r1, #16]
  SET_BIT(dmarxdesc->DESC3, ETH_DMARXNDESCRF_BUF1V);
 8001db0:	68ca      	ldr	r2, [r1, #12]
 8001db2:	f042 7280 	orr.w	r2, r2, #16777216	; 0x1000000
 8001db6:	60ca      	str	r2, [r1, #12]
  if(pBuffer2 != NULL)
 8001db8:	b12b      	cbz	r3, 8001dc6 <HAL_ETH_DescAssignMemory+0x2e>
    WRITE_REG(dmarxdesc->DESC2, (uint32_t)pBuffer2);
 8001dba:	608b      	str	r3, [r1, #8]
    WRITE_REG(dmarxdesc->BackupAddr1, (uint32_t)pBuffer2);
 8001dbc:	614b      	str	r3, [r1, #20]
    SET_BIT(dmarxdesc->DESC3, ETH_DMARXNDESCRF_BUF2V);
 8001dbe:	68cb      	ldr	r3, [r1, #12]
 8001dc0:	f043 7300 	orr.w	r3, r3, #33554432	; 0x2000000
 8001dc4:	60cb      	str	r3, [r1, #12]
  SET_BIT(dmarxdesc->DESC3, ETH_DMARXNDESCRF_OWN);
 8001dc6:	68cb      	ldr	r3, [r1, #12]
  return HAL_OK;
 8001dc8:	2000      	movs	r0, #0
  SET_BIT(dmarxdesc->DESC3, ETH_DMARXNDESCRF_OWN);
 8001dca:	f043 4300 	orr.w	r3, r3, #2147483648	; 0x80000000
 8001dce:	60cb      	str	r3, [r1, #12]
}
 8001dd0:	4770      	bx	lr

08001dd2 <HAL_ETH_Start_IT>:
  if(heth->gState == HAL_ETH_STATE_READY)
 8001dd2:	6d43      	ldr	r3, [r0, #84]	; 0x54
 8001dd4:	2b10      	cmp	r3, #16
{
 8001dd6:	b510      	push	{r4, lr}
  if(heth->gState == HAL_ETH_STATE_READY)
 8001dd8:	d13e      	bne.n	8001e58 <HAL_ETH_Start_IT+0x86>
    heth->gState = HAL_ETH_STATE_BUSY;
 8001dda:	2323      	movs	r3, #35	; 0x23
 8001ddc:	f100 043c 	add.w	r4, r0, #60	; 0x3c
 8001de0:	6543      	str	r3, [r0, #84]	; 0x54
    for(descindex = 0; descindex < (uint32_t)ETH_RX_DESC_CNT; descindex++)
 8001de2:	f100 032c 	add.w	r3, r0, #44	; 0x2c
      dmarxdesc = (ETH_DMADescTypeDef *)heth->RxDescList.RxDesc[descindex];
 8001de6:	f853 1b04 	ldr.w	r1, [r3], #4
      SET_BIT(dmarxdesc->DESC3, ETH_DMARXNDESCRF_IOC);
 8001dea:	68ca      	ldr	r2, [r1, #12]
    for(descindex = 0; descindex < (uint32_t)ETH_RX_DESC_CNT; descindex++)
 8001dec:	42a3      	cmp	r3, r4
      SET_BIT(dmarxdesc->DESC3, ETH_DMARXNDESCRF_IOC);
 8001dee:	f042 4280 	orr.w	r2, r2, #1073741824	; 0x40000000
 8001df2:	60ca      	str	r2, [r1, #12]
    for(descindex = 0; descindex < (uint32_t)ETH_RX_DESC_CNT; descindex++)
 8001df4:	d1f7      	bne.n	8001de6 <HAL_ETH_Start_IT+0x14>
    heth->RxDescList.ItMode = 1U;
 8001df6:	2301      	movs	r3, #1
    SET_BIT(heth->Instance->DMACTCR, ETH_DMACTCR_ST);
 8001df8:	f241 1104 	movw	r1, #4356	; 0x1104
    heth->RxDescList.ItMode = 1U;
 8001dfc:	64c3      	str	r3, [r0, #76]	; 0x4c
    SET_BIT(heth->Instance->MACCR, ETH_MACCR_TE);
 8001dfe:	6803      	ldr	r3, [r0, #0]
 8001e00:	681a      	ldr	r2, [r3, #0]
 8001e02:	f042 0202 	orr.w	r2, r2, #2
 8001e06:	601a      	str	r2, [r3, #0]
    SET_BIT(heth->Instance->MACCR, ETH_MACCR_RE);
 8001e08:	681a      	ldr	r2, [r3, #0]
 8001e0a:	f042 0201 	orr.w	r2, r2, #1
 8001e0e:	601a      	str	r2, [r3, #0]
    SET_BIT(heth->Instance->MTLTQOMR, ETH_MTLTQOMR_FTQ);
 8001e10:	f8d3 2d00 	ldr.w	r2, [r3, #3328]	; 0xd00
 8001e14:	f042 0201 	orr.w	r2, r2, #1
 8001e18:	f8c3 2d00 	str.w	r2, [r3, #3328]	; 0xd00
    SET_BIT(heth->Instance->DMACTCR, ETH_DMACTCR_ST);
 8001e1c:	585a      	ldr	r2, [r3, r1]
 8001e1e:	f042 0201 	orr.w	r2, r2, #1
 8001e22:	505a      	str	r2, [r3, r1]
    SET_BIT(heth->Instance->DMACRCR, ETH_DMACRCR_SR);
 8001e24:	f241 1108 	movw	r1, #4360	; 0x1108
 8001e28:	585a      	ldr	r2, [r3, r1]
 8001e2a:	f042 0201 	orr.w	r2, r2, #1
 8001e2e:	505a      	str	r2, [r3, r1]
    heth->Instance->DMACSR |= (ETH_DMACSR_TPS | ETH_DMACSR_RPS);
 8001e30:	f503 518b 	add.w	r1, r3, #4448	; 0x1160
 8001e34:	680a      	ldr	r2, [r1, #0]
 8001e36:	f442 7281 	orr.w	r2, r2, #258	; 0x102
 8001e3a:	600a      	str	r2, [r1, #0]
    __HAL_ETH_DMA_ENABLE_IT(heth, (ETH_DMACIER_NIE | ETH_DMACIER_RIE | ETH_DMACIER_TIE  |
 8001e3c:	f241 1134 	movw	r1, #4404	; 0x1134
 8001e40:	585a      	ldr	r2, [r3, r1]
 8001e42:	f442 4250 	orr.w	r2, r2, #53248	; 0xd000
 8001e46:	f042 0241 	orr.w	r2, r2, #65	; 0x41
 8001e4a:	505a      	str	r2, [r3, r1]
    heth->gState = HAL_ETH_STATE_READY;
 8001e4c:	2310      	movs	r3, #16
 8001e4e:	6543      	str	r3, [r0, #84]	; 0x54
    heth->RxState = HAL_ETH_STATE_BUSY_RX;
 8001e50:	2322      	movs	r3, #34	; 0x22
 8001e52:	6583      	str	r3, [r0, #88]	; 0x58
    return HAL_OK;
 8001e54:	2000      	movs	r0, #0
}
 8001e56:	bd10      	pop	{r4, pc}
    return HAL_ERROR;
 8001e58:	2001      	movs	r0, #1
 8001e5a:	e7fc      	b.n	8001e56 <HAL_ETH_Start_IT+0x84>

08001e5c <HAL_ETH_Stop_IT>:
  if(heth->gState != HAL_ETH_STATE_RESET)
 8001e5c:	6d43      	ldr	r3, [r0, #84]	; 0x54
{
 8001e5e:	b510      	push	{r4, lr}
  if(heth->gState != HAL_ETH_STATE_RESET)
 8001e60:	2b00      	cmp	r3, #0
 8001e62:	d037      	beq.n	8001ed4 <HAL_ETH_Stop_IT+0x78>
    heth->gState = HAL_ETH_STATE_BUSY;
 8001e64:	2323      	movs	r3, #35	; 0x23
    __HAL_ETH_DMA_DISABLE_IT(heth, (ETH_DMACIER_NIE | ETH_DMACIER_RIE | ETH_DMACIER_TIE  |
 8001e66:	4602      	mov	r2, r0
 8001e68:	f241 1434 	movw	r4, #4404	; 0x1134
    heth->gState = HAL_ETH_STATE_BUSY;
 8001e6c:	6543      	str	r3, [r0, #84]	; 0x54
    __HAL_ETH_DMA_DISABLE_IT(heth, (ETH_DMACIER_NIE | ETH_DMACIER_RIE | ETH_DMACIER_TIE  |
 8001e6e:	f852 3b2c 	ldr.w	r3, [r2], #44
 8001e72:	5919      	ldr	r1, [r3, r4]
 8001e74:	f421 4150 	bic.w	r1, r1, #53248	; 0xd000
 8001e78:	f021 0141 	bic.w	r1, r1, #65	; 0x41
 8001e7c:	5119      	str	r1, [r3, r4]
    CLEAR_BIT(heth->Instance->DMACTCR, ETH_DMACTCR_ST);
 8001e7e:	f241 1404 	movw	r4, #4356	; 0x1104
 8001e82:	5919      	ldr	r1, [r3, r4]
 8001e84:	f021 0101 	bic.w	r1, r1, #1
 8001e88:	5119      	str	r1, [r3, r4]
    CLEAR_BIT(heth->Instance->DMACRCR, ETH_DMACRCR_SR);
 8001e8a:	f241 1408 	movw	r4, #4360	; 0x1108
 8001e8e:	5919      	ldr	r1, [r3, r4]
 8001e90:	f021 0101 	bic.w	r1, r1, #1
 8001e94:	5119      	str	r1, [r3, r4]
    CLEAR_BIT( heth->Instance->MACCR, ETH_MACCR_RE);
 8001e96:	f100 043c 	add.w	r4, r0, #60	; 0x3c
 8001e9a:	6819      	ldr	r1, [r3, #0]
 8001e9c:	f021 0101 	bic.w	r1, r1, #1
 8001ea0:	6019      	str	r1, [r3, #0]
    SET_BIT(heth->Instance->MTLTQOMR, ETH_MTLTQOMR_FTQ);
 8001ea2:	f8d3 1d00 	ldr.w	r1, [r3, #3328]	; 0xd00
 8001ea6:	f041 0101 	orr.w	r1, r1, #1
 8001eaa:	f8c3 1d00 	str.w	r1, [r3, #3328]	; 0xd00
    CLEAR_BIT(heth->Instance->MACCR, ETH_MACCR_TE);
 8001eae:	6819      	ldr	r1, [r3, #0]
 8001eb0:	f021 0102 	bic.w	r1, r1, #2
 8001eb4:	6019      	str	r1, [r3, #0]
      dmarxdesc = (ETH_DMADescTypeDef *)heth->RxDescList.RxDesc[descindex];
 8001eb6:	f852 1b04 	ldr.w	r1, [r2], #4
      CLEAR_BIT(dmarxdesc->DESC3, ETH_DMARXNDESCRF_IOC);
 8001eba:	68cb      	ldr	r3, [r1, #12]
    for(descindex = 0; descindex < (uint32_t)ETH_RX_DESC_CNT; descindex++)
 8001ebc:	42a2      	cmp	r2, r4
      CLEAR_BIT(dmarxdesc->DESC3, ETH_DMARXNDESCRF_IOC);
 8001ebe:	f023 4380 	bic.w	r3, r3, #1073741824	; 0x40000000
 8001ec2:	60cb      	str	r3, [r1, #12]
    for(descindex = 0; descindex < (uint32_t)ETH_RX_DESC_CNT; descindex++)
 8001ec4:	d1f7      	bne.n	8001eb6 <HAL_ETH_Stop_IT+0x5a>
    heth->RxDescList.ItMode = 0U;
 8001ec6:	2300      	movs	r3, #0
    heth->gState = HAL_ETH_STATE_READY;
 8001ec8:	2210      	movs	r2, #16
    heth->RxDescList.ItMode = 0U;
 8001eca:	64c3      	str	r3, [r0, #76]	; 0x4c
    heth->gState = HAL_ETH_STATE_READY;
 8001ecc:	6542      	str	r2, [r0, #84]	; 0x54
    heth->RxState = HAL_ETH_STATE_READY;
 8001ece:	6582      	str	r2, [r0, #88]	; 0x58
    return HAL_OK;
 8001ed0:	4618      	mov	r0, r3
}
 8001ed2:	bd10      	pop	{r4, pc}
    return HAL_ERROR;
 8001ed4:	2001      	movs	r0, #1
 8001ed6:	e7fc      	b.n	8001ed2 <HAL_ETH_Stop_IT+0x76>

08001ed8 <HAL_ETH_Transmit>:
{
 8001ed8:	b5f8      	push	{r3, r4, r5, r6, r7, lr}
 8001eda:	4604      	mov	r4, r0
 8001edc:	4615      	mov	r5, r2
  if(pTxConfig == NULL)
 8001ede:	b929      	cbnz	r1, 8001eec <HAL_ETH_Transmit+0x14>
    heth->ErrorCode |= HAL_ETH_ERROR_PARAM;
 8001ee0:	6dc3      	ldr	r3, [r0, #92]	; 0x5c
 8001ee2:	f043 0301 	orr.w	r3, r3, #1
      heth->ErrorCode |= HAL_ETH_ERROR_BUSY;
 8001ee6:	65e3      	str	r3, [r4, #92]	; 0x5c
    return HAL_ERROR;
 8001ee8:	2001      	movs	r0, #1
 8001eea:	e023      	b.n	8001f34 <HAL_ETH_Transmit+0x5c>
  if(heth->gState == HAL_ETH_STATE_READY)
 8001eec:	6d43      	ldr	r3, [r0, #84]	; 0x54
 8001eee:	2b10      	cmp	r3, #16
 8001ef0:	d1fa      	bne.n	8001ee8 <HAL_ETH_Transmit+0x10>
    if (ETH_Prepare_Tx_Descriptors(heth, pTxConfig, 0) != HAL_ETH_ERROR_NONE)
 8001ef2:	2200      	movs	r2, #0
 8001ef4:	f7ff fde8 	bl	8001ac8 <ETH_Prepare_Tx_Descriptors>
 8001ef8:	b118      	cbz	r0, 8001f02 <HAL_ETH_Transmit+0x2a>
      heth->ErrorCode |= HAL_ETH_ERROR_BUSY;
 8001efa:	6de3      	ldr	r3, [r4, #92]	; 0x5c
 8001efc:	f043 0302 	orr.w	r3, r3, #2
 8001f00:	e7f1      	b.n	8001ee6 <HAL_ETH_Transmit+0xe>
    dmatxdesc = (ETH_DMADescTypeDef *)(&heth->TxDescList)->TxDesc[heth->TxDescList.CurTxDesc];
 8001f02:	6aa3      	ldr	r3, [r4, #40]	; 0x28
 8001f04:	1d9a      	adds	r2, r3, #6
 8001f06:	f854 7022 	ldr.w	r7, [r4, r2, lsl #2]
    INCR_TX_DESC_INDEX(heth->TxDescList.CurTxDesc, 1U);
 8001f0a:	1c5a      	adds	r2, r3, #1
 8001f0c:	2a03      	cmp	r2, #3
 8001f0e:	bf8a      	itet	hi
 8001f10:	3b03      	subhi	r3, #3
 8001f12:	62a2      	strls	r2, [r4, #40]	; 0x28
 8001f14:	62a3      	strhi	r3, [r4, #40]	; 0x28
    WRITE_REG(heth->Instance->DMACTDTPR, (uint32_t)(heth->TxDescList.TxDesc[heth->TxDescList.CurTxDesc]));
 8001f16:	6aa2      	ldr	r2, [r4, #40]	; 0x28
 8001f18:	6823      	ldr	r3, [r4, #0]
 8001f1a:	3206      	adds	r2, #6
 8001f1c:	f503 5389 	add.w	r3, r3, #4384	; 0x1120
 8001f20:	f854 2022 	ldr.w	r2, [r4, r2, lsl #2]
 8001f24:	601a      	str	r2, [r3, #0]
    tickstart = HAL_GetTick();
 8001f26:	f7ff fb33 	bl	8001590 <HAL_GetTick>
 8001f2a:	4606      	mov	r6, r0
    while((dmatxdesc->DESC3 & ETH_DMATXNDESCWBF_OWN) != (uint32_t)RESET)
 8001f2c:	68fb      	ldr	r3, [r7, #12]
 8001f2e:	2b00      	cmp	r3, #0
 8001f30:	db01      	blt.n	8001f36 <HAL_ETH_Transmit+0x5e>
    return HAL_OK;
 8001f32:	2000      	movs	r0, #0
}
 8001f34:	bdf8      	pop	{r3, r4, r5, r6, r7, pc}
      if((heth->Instance->DMACSR & ETH_DMACSR_FBE) != (uint32_t)RESET)
 8001f36:	6823      	ldr	r3, [r4, #0]
 8001f38:	f503 538b 	add.w	r3, r3, #4448	; 0x1160
 8001f3c:	681a      	ldr	r2, [r3, #0]
 8001f3e:	04d2      	lsls	r2, r2, #19
 8001f40:	d508      	bpl.n	8001f54 <HAL_ETH_Transmit+0x7c>
        heth->ErrorCode |= HAL_ETH_ERROR_DMA;
 8001f42:	6de2      	ldr	r2, [r4, #92]	; 0x5c
 8001f44:	f042 0208 	orr.w	r2, r2, #8
 8001f48:	65e2      	str	r2, [r4, #92]	; 0x5c
        heth->DMAErrorCode = heth->Instance->DMACSR;
 8001f4a:	681b      	ldr	r3, [r3, #0]
 8001f4c:	6623      	str	r3, [r4, #96]	; 0x60
          heth->gState = HAL_ETH_STATE_ERROR;
 8001f4e:	23e0      	movs	r3, #224	; 0xe0
 8001f50:	6563      	str	r3, [r4, #84]	; 0x54
          return HAL_ERROR;
 8001f52:	e7c9      	b.n	8001ee8 <HAL_ETH_Transmit+0x10>
      if(Timeout != HAL_MAX_DELAY)
 8001f54:	1c6b      	adds	r3, r5, #1
 8001f56:	d0e9      	beq.n	8001f2c <HAL_ETH_Transmit+0x54>
        if(((HAL_GetTick() - tickstart ) > Timeout) || (Timeout == 0U))
 8001f58:	f7ff fb1a 	bl	8001590 <HAL_GetTick>
 8001f5c:	1b80      	subs	r0, r0, r6
 8001f5e:	42a8      	cmp	r0, r5
 8001f60:	d801      	bhi.n	8001f66 <HAL_ETH_Transmit+0x8e>
 8001f62:	2d00      	cmp	r5, #0
 8001f64:	d1e2      	bne.n	8001f2c <HAL_ETH_Transmit+0x54>
          heth->ErrorCode |= HAL_ETH_ERROR_TIMEOUT;
 8001f66:	6de3      	ldr	r3, [r4, #92]	; 0x5c
 8001f68:	f043 0304 	orr.w	r3, r3, #4
 8001f6c:	65e3      	str	r3, [r4, #92]	; 0x5c
 8001f6e:	e7ee      	b.n	8001f4e <HAL_ETH_Transmit+0x76>

08001f70 <HAL_ETH_IsRxDataAvailable>:
{
 8001f70:	b5f0      	push	{r4, r5, r6, r7, lr}
  if(dmarxdesclist->AppDescNbr != 0U)
 8001f72:	6c45      	ldr	r5, [r0, #68]	; 0x44
 8001f74:	2d00      	cmp	r5, #0
 8001f76:	d13b      	bne.n	8001ff0 <HAL_ETH_IsRxDataAvailable+0x80>
  uint32_t descidx = dmarxdesclist->CurRxDesc;
 8001f78:	6bc1      	ldr	r1, [r0, #60]	; 0x3c
  uint32_t appdesccnt = 0, firstappdescidx = 0;
 8001f7a:	462a      	mov	r2, r5
 8001f7c:	462c      	mov	r4, r5
  ETH_DMADescTypeDef *dmarxdesc = (ETH_DMADescTypeDef *)dmarxdesclist->RxDesc[descidx];
 8001f7e:	2705      	movs	r7, #5
 8001f80:	eb00 0381 	add.w	r3, r0, r1, lsl #2
 8001f84:	6ade      	ldr	r6, [r3, #44]	; 0x2c
  while((READ_BIT(dmarxdesc->DESC3, ETH_DMARXNDESCWBF_OWN) == (uint32_t)RESET) && (descscancnt < (uint32_t)ETH_RX_DESC_CNT))
 8001f86:	68f3      	ldr	r3, [r6, #12]
 8001f88:	2b00      	cmp	r3, #0
 8001f8a:	db01      	blt.n	8001f90 <HAL_ETH_IsRxDataAvailable+0x20>
 8001f8c:	3f01      	subs	r7, #1
 8001f8e:	d131      	bne.n	8001ff4 <HAL_ETH_IsRxDataAvailable+0x84>
  if(appdesccnt > 0U)
 8001f90:	b364      	cbz	r4, 8001fec <HAL_ETH_IsRxDataAvailable+0x7c>
    dmarxdesc = (ETH_DMADescTypeDef *)dmarxdesclist->RxDesc[descidx];
 8001f92:	eb00 0382 	add.w	r3, r0, r2, lsl #2
      WRITE_REG(dmarxdesc->DESC3, ETH_DMARXNDESCRF_BUF1V);
 8001f96:	f04f 7680 	mov.w	r6, #16777216	; 0x1000000
      if(descscancnt < (appdesccnt - 1U))
 8001f9a:	1e67      	subs	r7, r4, #1
    dmarxdesc = (ETH_DMADescTypeDef *)dmarxdesclist->RxDesc[descidx];
 8001f9c:	6adb      	ldr	r3, [r3, #44]	; 0x2c
    dmarxdesclist->FirstAppDesc = firstappdescidx;
 8001f9e:	e9c0 120f 	strd	r1, r2, [r0, #60]	; 0x3c
      WRITE_REG(dmarxdesc->DESC0, dmarxdesc->BackupAddr0);
 8001fa2:	6919      	ldr	r1, [r3, #16]
 8001fa4:	6019      	str	r1, [r3, #0]
      if (READ_REG(dmarxdesc->BackupAddr1) != ((uint32_t)RESET))
 8001fa6:	6959      	ldr	r1, [r3, #20]
      WRITE_REG(dmarxdesc->DESC3, ETH_DMARXNDESCRF_BUF1V);
 8001fa8:	60de      	str	r6, [r3, #12]
      if (READ_REG(dmarxdesc->BackupAddr1) != ((uint32_t)RESET))
 8001faa:	b121      	cbz	r1, 8001fb6 <HAL_ETH_IsRxDataAvailable+0x46>
        WRITE_REG(dmarxdesc->DESC2, dmarxdesc->BackupAddr1);
 8001fac:	6099      	str	r1, [r3, #8]
        SET_BIT(dmarxdesc->DESC3, ETH_DMARXNDESCRF_BUF2V);
 8001fae:	68d9      	ldr	r1, [r3, #12]
 8001fb0:	f041 7100 	orr.w	r1, r1, #33554432	; 0x2000000
 8001fb4:	60d9      	str	r1, [r3, #12]
      SET_BIT(dmarxdesc->DESC3, ETH_DMARXNDESCRF_OWN);
 8001fb6:	68d9      	ldr	r1, [r3, #12]
 8001fb8:	f041 4100 	orr.w	r1, r1, #2147483648	; 0x80000000
 8001fbc:	60d9      	str	r1, [r3, #12]
      if(dmarxdesclist->ItMode != ((uint32_t)RESET))
 8001fbe:	6cc1      	ldr	r1, [r0, #76]	; 0x4c
 8001fc0:	b119      	cbz	r1, 8001fca <HAL_ETH_IsRxDataAvailable+0x5a>
        SET_BIT(dmarxdesc->DESC3, ETH_DMARXNDESCRF_IOC);
 8001fc2:	68d9      	ldr	r1, [r3, #12]
 8001fc4:	f041 4180 	orr.w	r1, r1, #1073741824	; 0x40000000
 8001fc8:	60d9      	str	r1, [r3, #12]
      if(descscancnt < (appdesccnt - 1U))
 8001fca:	42af      	cmp	r7, r5
 8001fcc:	d907      	bls.n	8001fde <HAL_ETH_IsRxDataAvailable+0x6e>
        INCR_RX_DESC_INDEX(descidx, 1U);
 8001fce:	1c51      	adds	r1, r2, #1
 8001fd0:	2903      	cmp	r1, #3
 8001fd2:	bf88      	it	hi
 8001fd4:	1ed1      	subhi	r1, r2, #3
        dmarxdesc = (ETH_DMADescTypeDef *)dmarxdesclist->RxDesc[descidx];
 8001fd6:	eb00 0381 	add.w	r3, r0, r1, lsl #2
 8001fda:	460a      	mov	r2, r1
 8001fdc:	6adb      	ldr	r3, [r3, #44]	; 0x2c
    for(descscancnt = 0; descscancnt < appdesccnt; descscancnt++)
 8001fde:	3501      	adds	r5, #1
 8001fe0:	42ac      	cmp	r4, r5
 8001fe2:	d1de      	bne.n	8001fa2 <HAL_ETH_IsRxDataAvailable+0x32>
    WRITE_REG(heth->Instance->DMACRDTPR, (uint32_t)dmarxdesc);
 8001fe4:	6801      	ldr	r1, [r0, #0]
 8001fe6:	f241 1228 	movw	r2, #4392	; 0x1128
 8001fea:	508b      	str	r3, [r1, r2]
  dmarxdesclist->AppDescNbr = 0U;
 8001fec:	2300      	movs	r3, #0
 8001fee:	6443      	str	r3, [r0, #68]	; 0x44
    return 0;
 8001ff0:	2000      	movs	r0, #0
 8001ff2:	e021      	b.n	8002038 <HAL_ETH_IsRxDataAvailable+0xc8>
    if(READ_BIT(dmarxdesc->DESC3, ETH_DMARXNDESCWBF_LD) != (uint32_t)RESET)
 8001ff4:	f8d6 c00c 	ldr.w	ip, [r6, #12]
 8001ff8:	1c4b      	adds	r3, r1, #1
 8001ffa:	f01c 5f80 	tst.w	ip, #268435456	; 0x10000000
 8001ffe:	d01c      	beq.n	800203a <HAL_ETH_IsRxDataAvailable+0xca>
      if(appdesccnt == 1U)
 8002000:	2c00      	cmp	r4, #0
 8002002:	bf08      	it	eq
 8002004:	460a      	moveq	r2, r1
      INCR_RX_DESC_INDEX(descidx, 1U);
 8002006:	2b03      	cmp	r3, #3
      appdesccnt += 1U;
 8002008:	f104 0501 	add.w	r5, r4, #1
      INCR_RX_DESC_INDEX(descidx, 1U);
 800200c:	bf88      	it	hi
 800200e:	1ecb      	subhi	r3, r1, #3
      dmarxdesc = (ETH_DMADescTypeDef *)dmarxdesclist->RxDesc[descidx];
 8002010:	eb00 0183 	add.w	r1, r0, r3, lsl #2
 8002014:	6ac9      	ldr	r1, [r1, #44]	; 0x2c
      if(READ_BIT(dmarxdesc->DESC3,  ETH_DMARXNDESCWBF_OWN)  == (uint32_t)RESET)
 8002016:	68cc      	ldr	r4, [r1, #12]
 8002018:	2c00      	cmp	r4, #0
 800201a:	db09      	blt.n	8002030 <HAL_ETH_IsRxDataAvailable+0xc0>
        if(READ_BIT(dmarxdesc->DESC3,  ETH_DMARXNDESCWBF_CTXT)  != (uint32_t)RESET)
 800201c:	68c9      	ldr	r1, [r1, #12]
 800201e:	004f      	lsls	r7, r1, #1
 8002020:	d506      	bpl.n	8002030 <HAL_ETH_IsRxDataAvailable+0xc0>
          dmarxdesclist->AppContextDesc = 1;
 8002022:	2101      	movs	r1, #1
 8002024:	6481      	str	r1, [r0, #72]	; 0x48
          INCR_RX_DESC_INDEX(descidx, 1U);
 8002026:	1859      	adds	r1, r3, r1
 8002028:	2903      	cmp	r1, #3
 800202a:	bf8c      	ite	hi
 800202c:	3b03      	subhi	r3, #3
 800202e:	460b      	movls	r3, r1
      dmarxdesclist->AppDescNbr = appdesccnt;
 8002030:	6445      	str	r5, [r0, #68]	; 0x44
      dmarxdesclist->FirstAppDesc = firstappdescidx;
 8002032:	e9c0 320f 	strd	r3, r2, [r0, #60]	; 0x3c
      return 1;
 8002036:	2001      	movs	r0, #1
}
 8002038:	bdf0      	pop	{r4, r5, r6, r7, pc}
    else if(READ_BIT(dmarxdesc->DESC3, ETH_DMARXNDESCWBF_FD) != (uint32_t)RESET)
 800203a:	68f6      	ldr	r6, [r6, #12]
 800203c:	00b6      	lsls	r6, r6, #2
 800203e:	d50a      	bpl.n	8002056 <HAL_ETH_IsRxDataAvailable+0xe6>
      INCR_RX_DESC_INDEX(descidx, 1U);
